:100000000C9490000C94D0100C94FD100C94B8003B
:100010000C94B8000C94B8000C94E7070C94B8004A
:100020000C94B8000C94F1070C94B8000C94B80030
:100030000C94B8000C94B8000C94B8000C94B80060
:100040000C94C3110C94B8000C943F0D0C948D0DBE
:100050000C94B8000C94B8000C94B8000C94B80040
:100060000C94B8000C94B80008000000BE9224491B
:10007000123EABAAAA2ABECDCCCC4C3E00000080DA
:10008000BEABAAAAAA3E00000000BF000000803F4D
:100090000000000000084178D3BB4387D1133D190D
:1000A0000E3CC3BD4282AD2B3E68EC8276BED98F3A
:1000B000E1A93E4C80EFFFBE01C4FF7F3F0000007E
:1000C000000000000000240027002A0000000000BB
:1000D000250028002B000000000023002600290036
:1000E00004040404040404040202020202020303DE
:1000F00003030303010204081020408001020408E6
:100100001020010204081020000000070002010076
:100110000003040600000000000000000908F00EC3
:1001200011241FBECFEFD8E0DEBFCDBF13E0A0E0AB
:10013000B1E0E2E8FDE202C005900D92A634B107FD
:10014000D9F714E0A6E4B3E001C01D92A436B107CC
:10015000E1F711E0C0E2D1E004C02297FE010E9465
:100160007916CC31D107C9F70E942A110C94BF1619
:100170000C9400002F923F925F926F927F928F9229
:100180009F92AF92BF92CF92DF92EF92FF920F9326
:100190001F93CF93DF938C011B01EA016115710559
:1001A00019F0FB0191838083209749F0CE010297DB
:1001B000839728F020E030E040E050E0F6C0F801FE
:1001C000A1908F018A2D90E00E947D16892BB9F7AE
:1001D000FDE2AF1631F4F801A1908F01552453943C
:1001E00007C0FBE2AF1619F4F801A1908F01552466
:1001F000209719F0C031D105C1F4F0E3AF1679F4BE
:10020000F8018081883711F0883549F4F801A18020
:100210000E5F1F4FF2E05F2AC0E1D0E006C02097DA
:1002200021F480E3A816E9F427C0C830D10531F1E4
:10023000C930D10524F4C230D10531F50CC0CA3023
:10024000D10589F0C031D105F9F4C12CD12CE12CB4
:10025000B8E0FB2E28C0C12CD12CE12CA0E4FA2E52
:1002600022C0CAE0D0E0FCECCF2EFCECDF2EFCEC90
:10027000EF2EFCE0FF2E17C0C8E0D0E0C12CD12C3F
:10028000E12CE0E1FE2E0FC09E01442737FD409592
:10029000542F60E070E080E090E80E945516C9019C
:1002A000DA016C017D0120E030E040E050E060E0E8
:1002B0003E01882477FC8094982C70EDB72EBA0C00
:1002C000E9E0EB1570F48A2D81548A3118F499EC29
:1002D000B92E06C08A2D81568A3150F589EAB82E8A
:1002E000BA0C8B2D90E08C179D0714F56F3FE1F051
:1002F000C216D306E406F506B0F0CA01B901A4019E
:1003000093010E9436169B01AC012B0D311D411D3E
:10031000511D2130F0E03F07F0E04F07F0E85F07A4
:1003200010F461E001C06FEFF801A1908F01C5CF1B
:100330002114310481F0662331F001501040F101A5
:100340001183008308C051FE1AC002501040F10111
:100350001183008314C067FF12C050FC05C02FEF4B
:100360003FEF4FEF5FE704C020E030E040E050E8AF
:1003700082E290E0909363048093620416C050FE82
:1003800008C050954095309521953F4F4F4F5F4F96
:100390000CC057FF0AC082E290E090936304809300
:1003A00062042FEF3FEF4FEF5FE7B901CA01DF9122
:1003B000CF911F910F91FF90EF90DF90CF90BF9062
:1003C000AF909F908F907F906F905F903F902F9015
:1003D0000895AEE0B0E0EFEEF1E00C9496160D89D2
:1003E0001E898F89988D97FF02C080E090E8019761
:1003F0009E838D831A83098386E08C839E01255E0C
:100400003F4FCE010196698D7A8DA9010E941A0293
:100410004D815E8157FD0AC02F81388542175307F1
:100420000CF49A01020F131FF80110822E96E4E0DB
:100430000C94B216ABE0B0E0E0E2F2E00C94881667
:100440003C012B015A01FC0117821682838181FD38
:1004500003C06FEF7FEFC6C19AE0892E1E0108949A
:10046000211C311CF3012381F20123FD859123FF1F
:1004700081912F01882309F4B2C1853239F423FD1B
:10048000859123FF81912F01853229F490E0B301FA
:100490000E940D04E7CF982FFF24EE249924FFE15A
:1004A000FF15D0F09B3269F09C3228F4903259F05D
:1004B000933291F40EC09D3249F0903369F441E0DB
:1004C00024C052E0F52A84E0F82A28C098E0F92AEE
:1004D00025C0E0E1FE2A22C0F7FC29C0892F805305
:1004E0008A3070F4F6FE05C0989C902C1124980E6A
:1004F00015C0E89CE02C1124E80EF0E2FF2A0EC0A3
:100500009E3229F4F6FC6BC140E4F42A07C09C3605
:1005100019F450E8F52A02C0983649F4F20123FD97
:10052000959123FF91912F01992309F0B8CF892F3D
:100530008554833018F08052833038F444E050E022
:10054000A40EB51E5FE359830FC0933631F0933785
:1005500079F0933509F056C020C0F5018081898378
:1005600042E050E0A40EB51E610101E010E012C0AF
:10057000F501C080D180F6FC03C06FEF7FEF02C0B1
:10058000692D70E042E050E0A40EB51EC6010E9445
:1005900002048C015FE7F52214C0F501C080D18010
:1005A000F6FC03C06FEF7FEF02C0692D70E042E000
:1005B00050E0A40EB51EC6010E94F7038C0150E85E
:1005C000F52AF3FE07C01AC080E290E0B3010E9452
:1005D0000D04EA948E2D90E008171907A8F30EC0B9
:1005E000F601F7FC8591F7FE81916F0190E0B30170
:1005F0000E940D04E110EA9401501040011511050C
:1006000079F7EAC0943611F0993669F5F7FE08C01B
:10061000F501208131814281538184E090E00AC05C
:10062000F501808191819C01442737FD4095542F2D
:1006300082E090E0A80EB91E9FE6F92257FF09C09C
:1006400050954095309521953F4F4F4F5F4FE0E8D3
:10065000FE2ACA01B901A1012AE030E00E94390452
:10066000D82ED21840C0953729F41F2D1F7E2AE0BE
:1006700030E01DC01F2D197F9F3661F0903720F4A8
:10068000983509F0ACC00FC0903739F0983709F0B1
:10069000A6C004C028E030E00AC0106114FD146058
:1006A00020E130E004C014FD166020E132E017FFC5
:1006B00008C0F501608171818281938144E050E03E
:1006C00008C0F50180819181BC0180E090E042E0AA
:1006D00050E0A40EB51EA1010E943904D82ED218F4
:1006E0008FE7F82EF122F6FE0BC05EEFF522D9144B
:1006F00038F4F4FE07C0F2FC05C08FEEF82202C009
:100700001D2D01C0192DF4FE0DC0FE01ED0DF11DD2
:100710008081803319F499EEF92208C01F5FF2FE40
:1007200005C003C08F2D867809F01F5F0F2DF3FCE5
:1007300014C0F0FE0FC01E1510F09D2C0BC09D2C98
:100740009E0C911A1E2D06C080E290E0B3010E941B
:100750000D041F5F1E15C0F304C01E1510F4E11A2E
:1007600001C0EE2404FF0FC080E390E0B3010E94BB
:100770000D0402FF1DC001FD03C088E790E00EC01C
:1007800088E590E00BC0802F867891F001FF02C0D1
:100790008BE201C080E2F7FC8DE290E0B3010E94A1
:1007A0000D0406C080E390E0B3010E940D049A940A
:1007B000D914C0F3DA94F101ED0DF11D808190E0C0
:1007C000B3010E940D04DD20A9F706C080E290E08D
:1007D000B3010E940D04EA94EE20C1F743CEF30169
:1007E00066817781CB012B96E2E10C94A416FC0183
:1007F0000590615070400110D8F7809590958E0F4C
:100800009F1F0895FC016150704001900110D8F7BE
:10081000809590958E0F9F1F08950F931F93CF93F0
:10082000DF938C01EB018B8181FF1BC082FF0DC028
:100830002E813F818C819D812817390764F4E881DE
:10084000F9810193F983E88306C0E885F985802F53
:100850000995892B31F48E819F8101969F838E8328
:1008600002C00FEF1FEFC801DF91CF911F910F91D1
:100870000895FA01AA27283051F1203181F1E89436
:100880006F936E7F6E5F7F4F8F4F9F4FAF4FB1E083
:100890003ED0B4E03CD0670F781F891F9A1FA11D7E
:1008A000680F791F8A1F911DA11D6A0F711D811D7F
:1008B000911DA11D20D009F468943F912AE0269F44
:1008C00011243019305D3193DEF6CF010895462FA3
:1008D0004770405D4193B3E00FD0C9F7F6CF462F84
:1008E0004F70405D4A3318F0495D31FD40524193ED
:1008F00002D0A9F7EACFB4E0A695979587957795AA
:100900006795BA95C9F700976105710508959B0130
:10091000AC010A2E06945795479537952795BA95B9
:10092000C9F7620F731F841F951FA01D089520E64D
:10093000FC0122830895DF92EF92FF920F931F93A1
:10094000CF93DF937C01162F072FD22E2A981C9964
:10095000FECF406CC701642F0E940E08812F902F9C
:100960009C01E90110E006C0C70160E00E940E088A
:1009700089931F5F1D15C0F32A9ADF91CF911F91B4
:100980000F91FF90EF90DF9008950F931F93182F12
:10099000092F2A981C99FECF462B812F902F642F68
:1009A0000E940E08812F902F60E00E940E082A9A64
:1009B0001F910F9108952A981C99FECF0E940E084E
:1009C0002A9A08950F931F93CF93DF938C01EB0125
:1009D0006BE340EC0E94C504282F90E08F77907065
:1009E000892B49F127FD27C0C8016FE340E80E9429
:1009F000C504282F88838E33F0F4BE016F5F7F4FCC
:100A0000C8014FE30E949B04C8016FE340E80E94C5
:100A1000C5048FAFC8016FE340E80E94C504C05C05
:100A2000DF4F982F9F779883C054D040881F882726
:100A3000881F8EAF01C01882C80166E30E94DB04E4
:100A4000C8016AE30E94DB04C80164E30E94DB047E
:100A50008881DF91CF911F910F910895DF92EF92DE
:100A6000FF920F931F93CF93DF937C01142F052FD9
:100A7000D22E2A981C99FECF6064C7010E940E08EE
:100A8000812F902F9C01E90110E005C0C7016991F9
:100A90000E940E081F5F1D15C8F32A9ADF91CF919F
:100AA0001F910F91FF90EF90DF900895FF920F93A9
:100AB0001F93182F092FF42E2A981C99FECF812FEF
:100AC000902F0E940E08812F902F6F2D0E940E08EC
:100AD0002A9A1F910F91FF900895EF92FF920F9322
:100AE0001F93DF93CF93CDB7DEB77C0182E0F70190
:100AF0008183C70164E304C0913121F4C7016AE333
:100B00000E94DB04C70165E340EC0E94C504982FF6
:100B10008F718D3089F784EF91E00E941712C70121
:100B20006FE38E01075F1F4FF80141918F010E9413
:100B30005605C7016FE3A80129850E942E05C7014C
:100B400065E30E94DB04C70165E340EC0E94C50435
:100B50008F718351833088F0C70166E30E94DB0404
:100B6000C7016BE30E94DB04C70164E30E94DB045E
:100B700081E0F701818380E020C04A9BFECF4A9943
:100B8000FECFC7016AE340EC0E94C504082FC701ED
:100B900066E30E94DB04C7016BE30E94DB04C7012C
:100BA00064E30E94DB0481E0F701818380E010E0D0
:100BB0000F771070012B09F481E0CF91DF911F9125
:100BC0000F91FF90EF9008951F93CF93DF93EC0167
:100BD000162F613019F06230D9F40DC06DE042E299
:100BE0000E945605CE016EE041EB0E945605CE01F3
:100BF0006FE04BE319C06DE040E10E945605CE0165
:100C00006EE047EA0E945605CE016FE042E60CC056
:100C10006DE041E20E945605CE016EE042E60E9480
:100C20005605CE016FE046E70E9456051B83DF9113
:100C3000CF911F9108950F931F93CF93DF93EC01F2
:100C4000162F042F8C81861779F0CE016AE0412F90
:100C50000E9456051C83002339F084E693E060E08F
:100C600070E0412F0E943A08DF91CF911F910F91C0
:100C700008950F931F93CF93DF93EC01162F042F4A
:100C80008F81861779F0CE0169E0412F0E945605C9
:100C90001F83002339F084E693E064E070E0412F85
:100CA0000E943A08DF91CF911F910F910895FF9212
:100CB0000F931F93CF93DF93EC01162F042FF22E87
:100CC0008D81861719F48E818417E1F0CE0164E0DE
:100CD000412F0E945605CE0165E0402F0E94560527
:100CE0001D830E83FF2071F084E693E062E070E0E4
:100CF000412F0E943A0884E693E063E070E0402FC1
:100D00000E943A08DF91CF911F910F91FF900895B3
:100D10001F93CF93DF93EC0184E693E060E070E0F3
:100D20000E943308682F8A3020F4CE0140E00E94F0
:100D30001B0684E693E062E070E00E943308182FFF
:100D400084E693E063E070E00E943308482F812F2F
:100D500081508E3F20F0842F81508E3F28F4CE01A9
:100D6000612F20E00E94570684E693E064E070E083
:100D70000E943308682F882321F0CE0140E00E94B2
:100D80003906DF91CF911F910895FB01242F6081D7
:100D900041810E94570608950F931F938C0160E0D4
:100DA0004EE20E945605C80161E04EE20E945605DF
:100DB000C80162E046E00E945605C80163E047E0D2
:100DC0000E945605C80166E04DE30E945605C80121
:100DD00067E046E00E945605C80168E045E00E94D1
:100DE0005605C80165EB47E420E00E945706C8019C
:100DF0006FEF40E00E943906C80160E040E00E94C9
:100E00001B06C8016BE048E00E945605C8016CE073
:100E100040E00E945605C80160E00E94E405C80158
:100E200060E14AEC0E945605C80161E143E80E9476
:100E30005605C80162E143E90E945605C80163E115
:100E400042E20E945605C80164E148EF0E9456053F
:100E5000C80165E145E30E945605C80166E147E027
:100E60000E945605C80167E140E20E945605C8018C
:100E700068E148E10E945605C80169E146E10E9427
:100E80005605C8016AE14CE60E945605C8016BE1AF
:100E900043E40E945605C8016CE140E40E945605F7
:100EA000C8016DE141E90E945605C8016EE147E8BD
:100EB0000E945605C8016FE14BE60E945605C80125
:100EC00060E24BEF0E945605C80161E246E50E94D0
:100ED0005605C80162E240E10E945605C80163E27E
:100EE00049EE0E945605C80164E24AE20E94560596
:100EF000C80165E240E00E945605C80166E24FE184
:100F00000E945605C80167E241E40E945605C801E7
:100F100068E240E00E945605C80169E249E50E9486
:100F20005605C8016AE24FE70E945605C8016BE208
:100F30004FE30E945605C8016CE241E80E94560545
:100F4000C8016DE245E30E945605C8016EE249E022
:100F50000E9456051F910F910895CF93DF93EC01E6
:100F60002A9A85E090E00E9417122A988AE090E081
:100F70000E9417122A9A89E290E00E9417122A987A
:100F80001C99FECFCE0160E30E940E081C99FECF93
:100F90002A9ACE010E94CC06CE010E948806DF91DB
:100FA000CF9108950F931F938C010E94140882E043
:100FB00060E00E94E612C8010E94AD07C8016EE31E
:100FC000F80142810E9456051F910F9108951F92CA
:100FD0000F920FB60F9211240F900FBE0F901F901B
:100FE00018951F920F920FB60F9211240F900FBEFB
:100FF0000F901F9018950F931F938C0103960E94DA
:101000009704F801158E148E118210821F910F9192
:10101000089586E493E00E94FB0708956EBD0DB429
:1010200007FEFDCF8EB508958AE061E00E9425138A
:101030008AE061E00E94E6128BE061E00E94E61225
:101040008CE060E00E94E6128DE061E00E94E61212
:101050008DE061E00E9425138BE060E00E94251383
:1010600080E58CBD0895F999FECF72BD61BDF89AF7
:1010700080B50895F999FECF1FBA72BD61BD40BD1C
:101080000FB6F894FA9AF99A0FBE0895FC01EC593C
:10109000FF4F119211928FEF9FEF819391931082E6
:1010A0000895CF93DF93DC01AA59BF4F11961C928C
:1010B0001E92ED0108C0E61711F481E011C02F5F08
:1010C0003F4F3983288328813981FC01E20FF31FC8
:1010D000E081EE2381F78FEF9FEF8D939C9380E06B
:1010E000DF91CF910895CF93DF93EC01FC01EA5992
:1010F000FF4F2081318137FF08C081E394E060E039
:1011000071E00E9484109E0108C08FEF9FEF9183D1
:1011100080832F5F3F4F2C0F3D1FC901DF91CF917F
:101120000895FF920F931F93CF93DF93EC01CC5957
:10113000DF4FE881F981C456D040EC0FFD1F60837A
:101140006B3339F4C859DF4F81E08883C856D040EB
:101150001AC06A3011F06623B1F4FE01EC59FF4F5A
:10116000A081B181AC0FBD1F1C9211821082CA599F
:10117000DF4F8FEF9FEF899399931882C856D04025
:10118000FF24F39410C0C859DF4F8881C856D0405F
:10119000882341F4FE01EC59FF4F80819181019633
:1011A00091838083FF248E010C591F4FF8018081A9
:1011B00091818436910554F081E394E064E371E019
:1011C0000E948410F8011182108218828F2DDF9105
:1011D000CF911F910F91FF9008950F931F93CF937D
:1011E000DF93EC018C010C591F4FF8011182108222
:1011F000980118C0A436B1056CF081E394E06BE56A
:1012000071E00E9484101882F80111821082CA597C
:10121000DF4F1AC0FE01EA0FFB1F80831196F90110
:10122000B183A083F901A081B181FB01EA0FFB1F0B
:101230008081882311F08B33E9F6AC0FBD1F1C921F
:10124000CC59DF4F199219928FEF9FEF89939993A1
:101250001882DF91CF911F910F910895CF93DF9363
:10126000EC01CA59DF4F2881398137FF0BC081E378
:1012700094E063E871E00E94841020E030E040E0F8
:1012800050E010C02F5F3F4F820F931F60E070E06F
:1012900040E050E00E94BA009B01AC018FEF9FEF4D
:1012A00099838883B901CA01DF91CF910895FC0128
:1012B000DB01E657FF4F8081EA58F040882319F49C
:1012C00020E030E00AC0E55BFF4F8081EE5BFF4F1E
:1012D00080838C939F0121543040C90108950F935E
:1012E0001F93CF93DF93EC0180E00E94BD100E941A
:1012F000730AC657DF4F8881CA58D040882331F01F
:1013000081E394E066EF71E00E9487108E01075B35
:101310001F4FCE01B8010E94E204882379F0C9571B
:10132000DF4F8881C758D040882341F0F801808181
:10133000823020F0C657DF4F81E0888380E064EC84
:101340007CE042E050E00E949A10DF91CF911F9123
:101350000F9108950F931F93CF93DF93EC01FA0140
:10136000DE0190E00BC0319611969B3339F481E396
:1013700094E060E172E00E94871062C080811B9659
:101380008C931B979F5F8081882369F76987C45777
:10139000DF4F8881CC58D0408A879E5F98871C2F6A
:1013A0000D2FCE0165E30E94DB04C257DF4F888119
:1013B000CE58D0408823A1F081E394E06A854AE0CA
:1013C00050E00E941F1081E394E06AE272E00E9404
:1013D0008410BE01655F7F4F81E394E00E94871017
:1013E0002DB73EB7215430400FB6F8943EBF0FBE24
:1013F0002DBFADB7BEB71196FE01389681E40190BE
:101400000D928150E1F7812F902F0E946D052DB72D
:101410003EB72F5B3F4F0FB6F8943EBF0FBE2DBFB8
:10142000882339F481E394E065E372E00E94871039
:1014300002C00E94730A812F902F64E30E94DB0494
:10144000DF91CF911F910F910895BF92CF92DF92BC
:10145000EF92FF920F931F938C01B62E0E94970478
:101460009BE8E92EF12CE00EF11E87ECF70180835A
:101470008CE8C82ED12CC00ED11EF601B0820357C5
:101480001F4FF801108203501040F80110820C5FCA
:101490001F4FF80110820E581040C8010E94D20759
:1014A000C801B70140E00E94C506C801F60160818D
:1014B00040E00E943906C80167E046E00E945605F8
:1014C000C80164E30E94DB0480E064EC7CE042E05D
:1014D00050E00E949A101F910F91FF90EF90DF90C3
:1014E000CF90BF90089581E08093A8030895BC0138
:1014F00081E394E04AE050E00E9471100895BC013D
:1015000081E394E00E9484100895682F83E00E9494
:10151000251308950F931F9301E314E0C80140E0E1
:1015200056E960E070E00E94C80DC80163E070E019
:101530004AE050E00E947110C80166E472E00E9427
:10154000871084E061E00E94E61284E060E00E947F
:10155000251380E060E00E94E61283E061E00E94D3
:10156000E61280E090E00E94850A8FE890E00E94F9
:10157000C0118C0163E00E94250A1093A30300931D
:10158000A20302571F4FF80110821092A10310927C
:10159000A80389E690E00E94C011182F092F0E942D
:1015A00046081093A4030093A50389E690E00E94E7
:1015B000C011182F092F0E9446081093A60300930C
:1015C000A7031F910F910895AF92BF92CF92DF9220
:1015D000EF92FF920F931F9380E00E94C412AA27FC
:1015E00097FDA095BA2FBC01CD010E94CD147B01BF
:1015F0008C0120E030E04AE754E40E949E155B0134
:101600006C0160E070EC8FE794E4A80197010E9400
:10161000CD139B01AC01C601B5010E9432142CE030
:101620003FEE4DEE5BE30E9432140E945E159B017B
:10163000AC0160E070E88CE595E40E94321423E38D
:1016400033E948E853E40E94CD131F910F91FF90B6
:10165000EF90DF90CF90BF90AF9008954F925F9240
:101660006F927F928F929F92AF92BF92CF92DF92B2
:10167000EF92FF920F931F93CF93DF93EC015B01E7
:101680006330710519F480E592E06BC1CE0163E42B
:101690000E945108882309F40DC1CE010E942E0931
:1016A0006230710521F1633071054CF461157105EB
:1016B00009F400C16130710509F0F1C009C063305F
:1016C000710509F457C06430710509F0E8C06FC0B6
:1016D000CE0168E40E945108882309F4EBC0CE01D2
:1016E0000E942E09DC01CB010E94850AE3C00E9402
:1016F000E40A7B018C0184E692E00E947F0AC80123
:10170000B7010E949A146B017C01CB010E94770AF9
:101710008BE692E00E947F0AB7FCCCC0ADB7BEB7A3
:1017200018970FB6F894BEBF0FBEADBFEDB7FEB7AA
:10173000319605E613E012961C930E9311978CE3F5
:1017400090E0938382838DE692E095838483C60143
:10175000960163E0220F331F6A95E1F7880F991F06
:10176000280F391F378326830E94E9018DB79EB762
:10177000089687C0CE0161E40E945108882309F4CD
:1017800099C0CE010E942E09F62ECE0163E50E947B
:101790005108882309F48EC00091A2031091A3037D
:1017A000CE010E947308AC01C8016F2D75C0ADB7A2
:1017B000BEB71E970FB6F894BEBF0FBEADBFEDB754
:1017C000FEB7319605E613E012961C930E9311971F
:1017D0004CE3442E512C5382428285E792E095835C
:1017E00084833DE9632E32E0732E7782668227EA96
:1017F000822E22E0922E918680869BEAC92E92E06C
:10180000D92ED386C28683E0E82EF12CF586E486B5
:101810000E94E9018DB79EB70E960FB6F8949EBF51
:101820000FBE8DBF8BE692E00E947F0AC8010E9426
:101830007F0A8BE692E00E947F0AB7FC3BC0ADB7FF
:10184000BEB71E970FB6F894BEBF0FBEADBFEDB7C3
:10185000FEB7319612961C930E93119753824282D3
:1018600086EB92E095838483778266829186808678
:10187000D386C286F586E4860E94E9018DB79EB7BD
:101880000E960FB6F8949EBF0FBE8DBF8091A20337
:101890009091A3036A2DA8010E94AA090BC082EEB1
:1018A00092E00E947F0ACE010E947F0A8BE692E0BE
:1018B0000E947F0ACE0162E50E945108882309F444
:1018C00052C0CE010E942E096230710521F06430B1
:1018D0007105F1F528C0CE0164E50E945108882306
:1018E00009F441C084EF92E00E947F0AC5010E9482
:1018F000770A89E093E00E947F0ACE010E942E09B8
:10190000882777FD8095982F0E94CD142DEC3CEC14
:101910004CEC5DE30E949E150E949A14DC01CB0101
:101920000E94770A1CC0CE0163E50E9451088823FB
:10193000D1F08FE093E00E947F0AC5010E94770AF0
:1019400089E093E00E947F0ACE010E94730805C0DF
:1019500081E293E00E947F0ACE010E947F0A8BE61B
:1019600092E00E947F0ADF91CF911F910F91FF902B
:10197000EF90DF90CF90BF90AF909F908F907F902F
:101980006F905F904F90089581E08093A8038091BD
:10199000A2039091A303009711F00E946F0908958C
:1019A0008091A803882311F184E00E94791360E0FC
:1019B000892B09F461E084E00E94251364E670E05D
:1019C00080E090E00E945C1284E00E94791360E065
:1019D000892B09F461E084E00E94251364E670E03D
:1019E00080E090E00E945C121092A8030895DF93BB
:1019F000CF930F92CDB7DEB70E94D00C8091A20397
:101A00009091A303BE016F5F7F4F0E945709BC01F5
:101A10000097A9F08091A6039091A7030E94ED087A
:101A2000E091A203F091A303E657FF4F1082698172
:101A30008091A6039091A70370E00E942E0B81E392
:101A400094E00E94460E892BA9F081E394E00E9465
:101A5000770E682F8091A4039091A5030E949108AE
:101A6000882341F08091A4039091A5036FEF7FEF4D
:101A70000E942E0B0F90CF91DF91089508951F9231
:101A80000F920FB60F9211242F933F934F938F9382
:101A90009F93EF93FF938091C00082FD1DC0409102
:101AA000C6002091E9033091EA032F5F3F4F2F7367
:101AB00030708091EB039091EC032817390771F097
:101AC000E091E903F091EA03E755FC4F408330933E
:101AD000EA032093E90302C08091C600FF91EF91D1
:101AE0009F918F914F913F912F910F900FBE0F902B
:101AF0001F901895E0913D04F0913E04E05CFF4F8B
:101B00008191919120813181821B930B8F73907011
:101B1000892B11F00E943E0D08951F920F920FB66F
:101B20000F9211242F933F938F939F93EF93FF93E3
:101B300020912D0430912E0480912F049091300437
:101B40002817390731F48091C1008F7D8093C1003F
:101B500014C0E0912F04F0913004E351FC4F208138
:101B600080912F049091300401968F739070909320
:101B7000300480932F042093C600FF91EF919F9132
:101B80008F913F912F910F900FBE0F901F9018953E
:101B9000AF92BF92DF92EF92FF920F931F93CF937A
:101BA000DF93EC017A018B01DD24D39491E0A92E1F
:101BB000B12CEC89FD89DD2069F0C50108A002C0C7
:101BC000880F991F0A94E2F7808360E874E88EE139
:101BD00090E005C0108260E472E48FE090E0A8011C
:101BE00097010E9455162150304040405040569574
:101BF00047953795279580E12030380720F0DD2084
:101C000011F0DD24D6CFE889F9893083EA89FB8990
:101C1000208319A2EE89FF89408121E030E0C901CB
:101C20000C8C02C0880F991F0A94E2F7482B40835E
:101C3000EE89FF894081C9010D8C02C0880F991F70
:101C40000A94E2F7482B4083EE89FF894081C9015D
:101C50000E8C02C0880F991F0A94E2F7482B40832C
:101C6000EE89FF8980810F8C02C0220F331F0A94F6
:101C7000E2F7209528232083DF91CF911F910F91C8
:101C8000FF90EF90DF90BF90AF900895DC011C961D
:101C9000ED91FC911D97E05CFF4F21913191808186
:101CA0009181281B390B2F733070C9010895DC0115
:101CB0001C96ED91FC911D97E05CFF4F20813181D6
:101CC000E054F040DF01AE5BBF4F8D919C911197C6
:101CD0002817390719F42FEF3FEF07C08D919C911A
:101CE000E80FF91F8081282F30E0C9010895DC0139
:101CF0001C96ED91FC911D97E05CFF4F2081318196
:101D0000E054F040DF01AE5BBF4F8D919C91119785
:101D10002817390719F42FEF3FEF10C08D919C91D0
:101D20001197E80FF91F20818D919C9111970196D1
:101D30008F73907011969C938E9330E0C901089533
:101D4000DC0191968C919197882339F05496ED910E
:101D5000FC915597808186FFF9CF91961C9208954A
:101D6000CF93DF93EC01EE85FF85E05CFF4F208190
:101D70003181E054F0402F5F3F4F2F733070DF010F
:101D8000AE5BBF4F8D919C91119728173907D1F306
:101D9000E05CFF4F80819181E054F040E80FF91F33
:101DA0006083EE85FF85E05CFF4F31832083EE8901
:101DB000FF89208181E090E00F8C02C0880F991F7D
:101DC0000A94E2F7282B208381E089A3EC89FD891E
:101DD00080818064808381E090E0DF91CF910895DD
:101DE000109234041092330488EE93E0A0E0B0E047
:101DF0008093350490933604A0933704B09338044D
:101E00008AE393E0909332048093310489EA93E06B
:101E100090933E0480933D048DEE93E090934004B4
:101E200080933F0485EC90E09093420480934104BA
:101E300084EC90E0909344048093430480EC90E021
:101E4000909346048093450481EC90E0909348047D
:101E50008093470482EC90E090934A048093490475
:101E600086EC90E090934C0480934B0484E0809344
:101E70004D0483E080934E0487E080934F0485E017
:101E80008093500481E0809351040895CF92DF92B3
:101E9000EF92FF920F931F93CF93DF937C016B011F
:101EA0008A01C0E0D0E00FC0D6016D916D01D7016D
:101EB000ED91FC910190F081E02DC7010995C80FCB
:101EC000D91F015010400115110571F7CE01DF91A6
:101ED000CF911F910F91FF90EF90DF90CF900895D9
:101EE000EF92FF920F931F938C01DC01ED91FC9117
:101EF0000190F081E02D6DE009957C01D801ED9114
:101F0000FC910190F081E02DC8016AE009959C01E7
:101F10002E0D3F1DC9011F910F91FF90EF90089565
:101F2000CF93DF93EC016115710519F420E030E0E7
:101F30000FC0DB010D900020E9F71197A61BB70B2E
:101F4000E881F9810280F381E02DAD0109959C01C2
:101F5000C901DF91CF9108954F925F927F928F9246
:101F60009F92AF92BF92CF92DF92EF92FF920F9328
:101F70001F93DF93CF93CDB7DEB7A1970FB6F89439
:101F8000DEBF0FBECDBF2C01742ECB01223008F472
:101F90002AE019A231E2C32ED12CCC0EDD1E822EF6
:101FA0009924AA24BB24672D752FA50194010E94B2
:101FB000551679018A01C801B701A50194010E9453
:101FC0003616472D461B0894C108D1084A3014F430
:101FD000405D01C0495CF6014083E114F104010554
:101FE000110521F07E2C5F2DC801DDCFC201B601A5
:101FF0000E94900FA1960FB6F894DEBF0FBECDBF22
:10200000CF91DF911F910F91FF90EF90DF90CF90D4
:10201000BF90AF909F908F907F905F904F9008956A
:10202000DC012115310541F4ED91FC910190F08125
:10203000E02D642F099508950E94AC0F0895EF924A
:10204000FF920F931F939A01E62EFF2400E010E009
:10205000B801A7010E9410101F910F91FF90EF90FF
:102060000895CF92DF92EF92FF920F931F93CF9339
:10207000DF93EC016A017B012115310541F4E88110
:10208000F9810190F081E02D642F09951FC02A305D
:102090003105D1F477FF17C0E881F9810190F08113
:1020A000E02D6DE209958C0144275527BA014C19A2
:1020B0005D096E097F09CE012AE00E94AC0F9801EC
:1020C000280F391F04C02AE00E94AC0F9C01C901EF
:1020D000DF91CF911F910F91FF90EF90DF90CF9004
:1020E0000895EF92FF920F931F937B019A010027AF
:1020F000F7FC0095102FB801A7010E9431101F9125
:102100000F91FF90EF9008950E94900F0895EF9225
:10211000FF920F931F937C010E94900F8C01C701C7
:102120000E94700F080F191FC8011F910F91FF9097
:10213000EF900895823000F5E82FF0E0EE0FFF1FDA
:10214000ED5AFB4F71836083882319F08130A1F42D
:1021500008C0809169008C7F842B80936900E89A85
:10216000089580916900440F551F440F551F837FC8
:10217000842B80936900E99A0895823080F4882343
:1021800019F0813021F402C0E89801C0E998E82FE5
:10219000F0E0EE0FFF1FED5AFB4F11821082089501
:1021A0001F920F920FB60F9211242F933F934F93CC
:1021B0005F936F937F938F939F93AF93BF93EF93AF
:1021C000FF938091530490915404892B29F0E0915E
:1021D0005304F09154040995FF91EF91BF91AF9191
:1021E0009F918F917F916F915F914F913F912F912F
:1021F0000F900FBE0F901F9018951F920F920FB661
:102200000F9211242F933F934F935F936F937F937C
:102210008F939F93AF93BF93EF93FF938091550458
:1022200090915604892B29F0E0915504F0915604C1
:102230000995FF91EF91BF91AF919F918F917F9100
:102240006F915F914F913F912F910F900FBE0F9023
:102250001F901895CF93DF930E9421120E948A0A43
:10226000CAE7DDE00E94F70C2097E1F30E947A0DA7
:10227000F9CF0F931F93CF93DF93BC018230910569
:1022800010F462E070E0E0916004F0916104A0E07D
:10229000B0E040E050E024C080819181861797072C
:1022A000D0F08617970771F482819381109729F0F7
:1022B00013969C938E9312972CC0909361048093F5
:1022C000600427C04115510519F08417950718F4CB
:1022D000EF018D01AC01DF01828193819C01F90145
:1022E0003097D1F641155105F9F0CA01861B970BBD
:1022F0008430910580F48A819B810115110521F0BC
:10230000F8019383828304C09093610480936004F6
:10231000FE0132962FC0FE01E80FF91F6193719301
:1023200002979983888326C08DB79EB788579040BF
:10233000209131033091320328173907C8F4AC01DA
:10234000421B530B4617570798F0CB0102964817CC
:10235000590770F0820F931F9093320380933103DB
:102360009093340380933303F9016193719302C016
:10237000E0E0F0E0CF01DF91CF911F910F91089540
:102380000E94391108951F920F920FB60F921124D7
:102390002F933F934F935F936F937F938F939F936D
:1023A000AF93BF9320915B0430915C0440915D0436
:1023B00050915E0470915F04DA01C9010296A11D7B
:1023C000B11D672F6A5F6D3730F06D57DA01C901B3
:1023D0000396A11DB11D60935F0480935B049093ED
:1023E0005C04A0935D04B0935E04809157049091C7
:1023F0005804A0915904B0915A040196A11DB11D31
:102400008093570490935804A0935904B0935A04AE
:10241000BF91AF919F918F917F916F915F914F91FC
:102420003F912F910F900FBE0F901F90189501971D
:1024300039F0019729F0880F991F01970197F1F75B
:102440000895789484B5826084BD84B5816084BD2C
:1024500085B5826085BD85B5816085BDEEE6F0E01D
:10246000808181608083E1E8F0E010828081826079
:102470008083808181608083E0E8F0E080818160FA
:102480008083E1EBF0E0808184608083E0EBF0E02A
:10249000808181608083EAE7F0E0808184608083CE
:1024A0008081826080838081816080838081806878
:1024B00080831092C1000895EF92FF920F931F93B3
:1024C000CF93DF937B018C013FB7F8948091570441
:1024D00090915804A0915904B0915A0426B5A89B34
:1024E00005C02F3F19F00196A11DB11D3FBFBA2FA6
:1024F000A92F982F8827820F911DA11DB11D53E090
:10250000880F991FAA1FBB1F5A95D1F7EC0130C045
:102510000E94CC133FB7F8948091570490915804CF
:10252000A0915904B0915A0426B5A89B05C02F3F2D
:1025300019F00196A11DB11D3FBFBA2FA92F982FE9
:102540008827820F911DA11DB11D33E0880F991FAF
:10255000AA1FBB1F3A95D1F78C1B9D0B885E934039
:10256000B8F20894E108F10801091109C851DC4FDB
:10257000E114F1040105110559F6DF91CF911F9186
:102580000F91FF90EF900895982F8E3008F09E5095
:102590009770809135038295880F880F807C892BF6
:1025A00080937C0080917A00806480937A0080918F
:1025B0007A0086FDFCCF2091780040917900942F1D
:1025C00080E030E0282B392BC9010895CF93DF93A9
:1025D000482F50E0CA018C509F4FFC01349140526B
:1025E0005F4FFA018491882369F190E0880F991F69
:1025F000FC01EE53FF4FA591B491FC01E453FF4F52
:10260000C591D491662351F42FB7F8948C91932FF0
:10261000909589238C93888189230BC0623061F463
:102620002FB7F8948C91932F909589238C93888160
:10263000832B88832FBF06C09FB7F8948C91832B80
:102640008C939FBFDF91CF910895482F50E0CA012E
:10265000885F9E4FFC012491CA018C509F4FFC0162
:10266000949140525F4FFA013491332309F440C0F2
:10267000222351F1233071F0243028F42130A1F0CD
:10268000223011F514C02630B1F02730C1F02430CB
:10269000D9F404C0809180008F7703C080918000BE
:1026A0008F7D8093800010C084B58F7702C084B581
:1026B0008F7D84BD09C08091B0008F7703C0809169
:1026C000B0008F7D8093B000E32FF0E0EE0FFF1F8E
:1026D000E453FF4FA591B4912FB7F894662321F4EA
:1026E0008C919095892302C08C91892B8C932FBF5C
:1026F0000895682F70E0CB01885F9E4FFC01249104
:10270000CB018C509F4FFC01449160527F4FFB01E5
:102710009491992319F420E030E03CC0222351F138
:10272000233071F0243028F42130A1F0223011F54B
:1027300014C02630B1F02730C1F02430D9F404C0E1
:10274000809180008F7703C0809180008F7D80937F
:10275000800010C084B58F7702C084B58F7D84BDA2
:1027600009C08091B0008F7703C08091B0008F7D49
:102770008093B000892F90E0880F991F8A529F4F55
:10278000FC01A591B4918C9120E030E0842311F0FC
:1027900021E030E0C901089508955058BB27AA27C9
:1027A0000ED04DC13ED130F043D120F031F49F3FE7
:1027B00011F41EF433C10EF4E095E7FB29C1E92FB3
:1027C0004FD180F3BA17620773078407950718F093
:1027D00071F49EF567C10EF4E0950B2EBA2FA02D73
:1027E0000B01B90190010C01CA01A0011124FF27BE
:1027F000591B99F0593F50F4503E68F11A16F040B9
:10280000A22F232F342F4427585FF3CF46953795B7
:102810002795A795F0405395C9F77EF41F16BA0B7C
:10282000620B730B840BBAF09150A1F0FF0FBB1F2A
:10283000661F771F881FC2F70EC0BA0F621F731F73
:10284000841F48F4879577956795B795F7959E3FD0
:1028500008F0B3CF9395880F08F09927EE0F97955E
:10286000879508950CD0EBC0E3D040F0DAD030F07B
:1028700021F45F3F19F0CCC0511115C1CFC0F0D089
:1028800098F39923C9F35523B1F3951B550BBB2737
:10289000AA2762177307840738F09F5F5F4F220FE4
:1028A000331F441FAA1FA9F333D00E2E3AF0E0E8DD
:1028B00030D091505040E695001CCAF729D0FE2F29
:1028C00027D0660F771F881FBB1F261737074807BB
:1028D000AB07B0E809F0BB0B802DBF01FF27935871
:1028E0005F4F2AF09E3F510568F092C0DCC05F3F09
:1028F000ECF3983EDCF3869577956795B795F79559
:102900009F5FC9F7880F911D9695879597F9089550
:10291000E1E0660F771F881FBB1F621773078407EC
:10292000BA0720F0621B730B840BBA0BEE1F88F7FB
:10293000E095089504D06894B111B5C0089598D079
:1029400088F09F5790F0B92F9927B751A0F0D1F098
:10295000660F771F881F991F1AF0BA95C9F712C022
:10296000B13081F09FD0B1E008959CC0672F782FDF
:102970008827B85F39F0B93FCCF38695779567958E
:10298000B395D9F73EF490958095709561957F4FFA
:102990008F4F9F4F0895E89409C097FB3EF49095A0
:1029A0008095709561957F4F8F4F9F4F9923A9F028
:1029B000F92F96E9BB279395F695879577956795B7
:1029C000B795F111F8CFFAF4BB0F11F460FF1BC0FB
:1029D0006F5F7F4F8F4F9F4F16C0882311F096E98E
:1029E00011C0772321F09EE8872F762F05C066233C
:1029F00071F096E8862F70E060E02AF09A95660FF5
:102A0000771F881FDAF7880F9695879597F90895AD
:102A100097F99F6780E870E060E008959FEF80EC91
:102A2000089500240A941616170618060906089534
:102A300000240A9412161306140605060895092E9A
:102A40000394000C11F4882352F0BB0F40F4BF2B09
:102A500011F460FF04C06F5F7F4F8F4F9F4F089549
:102A600057FD9058440F551F59F05F3F71F047953F
:102A7000880F97FB991F61F09F3F79F08795089524
:102A8000121613061406551FF2CF4695F1DF08C043
:102A9000161617061806991FF1CF86957105610560
:102AA00008940895E894BB2766277727CB0197F908
:102AB00008950EF0A6C0B2CF6894AACFD9DFC8F3AC
:102AC0009923D1F3C6F3DF93CF931F930F93FF9214
:102AD000C92FDD2788232AF02197660F771F881FCB
:102AE000DAF720E030E040E85FEB9FE3883920F040
:102AF000803E30F021968F7751DEE8E6F0E003C0AB
:102B00004DDEE5E9F0E08DD08B01BE01EC01FB2E3E
:102B10006F5771097595771F880B990B3EDF28E178
:102B200032E741E35FE316D0AF2D9801AE01FF908D
:102B30000F911F91CF91DF9142DE81CF0BD07FCFDC
:102B400070DF28F075DF18F0952309F061CF66CFAC
:102B50001124A9CF85DFA0F3959FD1F3950F50E005
:102B6000551F629FF001729FBB27F00DB11D639F3F
:102B7000AA27F00DB11DAA1F649F6627B00DA11DE5
:102B8000661F829F2227B00DA11D621F739FB00D8B
:102B9000A11D621F839FA00D611D221F749F3327FB
:102BA000A00D611D231F849F600D211D822F762F94
:102BB0006A2F11249F5750408AF0E1F088234AF091
:102BC000EE0FFF1FBB1F661F771F881F91505040DD
:102BD000A9F79E3F510570F01BCF65CF5F3FECF327
:102BE000983EDCF3869577956795B795F795E795C9
:102BF0009F5FC1F7FE2B880F911D9695879597F9DA
:102C000008959F3F49F0915028F4869577956795F0
:102C1000B7959F5F80389F4F880F9695879597F956
:102C20000895DF93CF931F930F93FF92EF92DF925C
:102C30007B018C01689405C0DA2EEF018BDFFE0169
:102C4000E894A5912591359145915591AEF3EF0109
:102C5000B6DDFE019701A801DA9479F7DF90EF90D5
:102C6000FF900F911F91CF91DF910895629FD00146
:102C7000739FF001829FE00DF11D649FE00DF11D37
:102C8000929FF00D839FF00D749FF00D659FF00DE6
:102C90009927729FB00DE11DF91F639FB00DE11DD3
:102CA000F91FBD01CF0111240895A1E21A2EAA1B1C
:102CB000BB1BFD010DC0AA1FBB1FEE1FFF1FA217EC
:102CC000B307E407F50720F0A21BB30BE40BF50BE9
:102CD000661F771F881F991F1A9469F76095709572
:102CE000809590959B01AC01BD01CF010895EE0F39
:102CF000FF1F0590F491E02D0994911106C08032D8
:102D000019F089508550D0F708959927882708959C
:102D10002F923F924F925F926F927F928F929F92EB
:102D2000AF92BF92CF92DF92EF92FF920F931F93D9
:102D3000CF93DF93CDB7DEB7CA1BDB0B0FB6F8948A
:102D4000DEBF0FBECDBF09942A88398848885F84CA
:102D50006E847D848C849B84AA84B984C884DF803B
:102D6000EE80FD800C811B81AA81B981CE0FD11D1F
:102D70000FB6F894DEBF0FBECDBFED010895F894F5
:022D8000FFCF83
:102D8200436F6D6D616E643A20417474656D707449
:102D920020746F2072656164206120737472696EA1
:102DA20067206265666F7265206120736561726378
:102DB200682E0A00436F6D6D616E644275666665CA
:102DC200722E50757428293A206C656E67746820DB
:102DD2006F766572666C6F772E0A00436F6D6D6158
:102DE2006E644275666665722E46696C6C28293A75
:102DF200206C656E677468206F766572666C6F779B
:102E02002E0A00436F6D6D616E643A2041747465E1
:102E12006D707420746F2072656164206120636F2D
:102E22006D6D616E64206C6F6E67206265666F7295
:102E3200652061207365617263682E0A00436F6DBD
:102E42006D616E643A20417474656D707420746FA4
:102E5200207265616420612047436F646520666C5F
:102E62006F6174206265666F7265206120736561AF
:102E72007263682E0A004F76657277726974696EA2
:102E82006720696E707574207061636B65742100D0
:102E92005472616E736D6974206275666665722024
:102EA2006F766572666C6F7721002073656E646958
:102EB2006E673A20005472616E736D6974206661A8
:102EC200696C65642100207374617274696E6700B5
:102ED20054616C6B696E6720746F206D7973656CD9
:102EE20066210A0054656D703A20000A00523220B1
:102EF2005425640A0025732C2076657273696F6EFF
:102F02003A2025732C20646174653A2025732C20A5
:102F1200616464726573733A2025640A00576943D9
:102F22006F6E74726F6C00302E3100323031342D7E
:102F320030312D3131005234205325732C207665E7
:102F42007273696F6E3A2025732C20646174653A3E
:102F52002025732C20616464726573733A202564A2
:102F62000A00556E6B6E6F776E20636F6D6D616ECA
:102F7200643A200054656D702072657475726E65D6
:102F8200642066726F6D3A200020776173200049D9
:102F920064656E7469666965722066726F6D3A2047
:102FA20000556E6B6E6F776E207265706C793A2089
:102FB20000640464000100000000B00E460F460EDB
:062FC200770E570EA00E71
:00000001FF
