:100000000C9491000C949B100C94C8100C94B900A3
:100010000C94B9000C94B9000C94E8070C94B90046
:100020000C94B9000C94F2070C94B9000C94B9002C
:100030000C94B9000C94B9000C94B9000C94B9005C
:100040000C948E110C94B9000C94260C0C94740C26
:100050000C94B9000C94B9000C94B9000C94B9003C
:100060000C94B9000C94B90008000000BE92244919
:10007000123EABAAAA2ABECDCCCC4C3E00000080DA
:10008000BEABAAAAAA3E00000000BF000000803F4D
:100090000000000000084178D3BB4387D1133D190D
:1000A0000E3CC3BD4282AD2B3E68EC8276BED98F3A
:1000B000E1A93E4C80EFFFBE01C4FF7F3F0000007E
:1000C000000000000000240027002A0000000000BB
:1000D000250028002B000000000023002600290036
:1000E00004040404040404040202020202020303DE
:1000F00003030303010204081020408001020408E6
:100100001020010204081020000000070002010076
:100110000003040600000000000000000A08370A7F
:10012000D70D11241FBECFEFD8E0DEBFCDBF12E048
:10013000A0E0B1E0E8E7FDE202C005900D92A43630
:10014000B107D9F713E0A4E6B2E001C01D92A238CE
:10015000B107E1F711E0C2E2D1E004C02297FE014D
:100160000E947416CC31D107C9F70E94F5100C9487
:10017000BA160C9400002F923F925F926F927F927A
:100180008F929F92AF92BF92CF92DF92EF92FF92A7
:100190000F931F93CF93DF938C011B01EA0161152D
:1001A000710519F0FB0191838083209749F0CE01FE
:1001B0000297839728F020E030E040E050E0F6C05E
:1001C000F801A1908F018A2D90E00E947816892B6A
:1001D000B9F7FDE2AF1631F4F801A1908F01552473
:1001E000539407C0FBE2AF1619F4F801A1908F01F8
:1001F0005524209719F0C031D105C1F4F0E3AF16B2
:1002000079F4F8018081883711F0883549F4F801D4
:10021000A1800E5F1F4FF2E05F2AC0E1D0E006C070
:10022000209721F480E3A816E9F427C0C830D1054F
:1002300031F1C930D10524F4C230D10531F50CC0FB
:10024000CA30D10589F0C031D105F9F4C12CD12CC7
:10025000E12CB8E0FB2E28C0C12CD12CE12CA0E46D
:10026000FA2E22C0CAE0D0E0FCECCF2EFCECDF2E50
:10027000FCECEF2EFCE0FF2E17C0C8E0D0E0C12C54
:10028000D12CE12CE0E1FE2E0FC09E01442737FD6A
:100290004095542F60E070E080E090E80E94501696
:1002A000C901DA016C017D0120E030E040E050E05E
:1002B00060E03E01882477FC8094982C70EDB72E86
:1002C000BA0CE9E0EB1570F48A2D81548A3118F4E8
:1002D00099ECB92E06C08A2D81568A3150F589EAEB
:1002E000B82EBA0C8B2D90E08C179D0714F56F3F3C
:1002F000E1F0C216D306E406F506B0F0CA01B90172
:10030000A40193010E9431169B01AC012B0D311DFC
:10031000411D511D2130F0E03F07F0E04F07F0E8AC
:100320005F0710F461E001C06FEFF801A1908F0149
:10033000C5CF2114310481F0662331F00150104003
:10034000F1011183008308C051FE1AC00250104011
:10035000F1011183008314C067FF12C050FC05C077
:100360002FEF3FEF4FEF5FE704C020E030E040E0C9
:1003700050E882E290E0909381038093800316C05E
:1003800050FE08C050954095309521953F4F4F4FF6
:100390005F4F0CC057FF0AC082E290E09093810348
:1003A000809380032FEF3FEF4FEF5FE7B901CA0162
:1003B000DF91CF911F910F91FF90EF90DF90CF9041
:1003C000BF90AF909F908F907F906F905F903F9085
:1003D0002F900895AEE0B0E0E0EFF1E00C949116BC
:1003E0000D891E898F89988D97FF02C080E090E863
:1003F00001979E838D831A83098386E08C839E01F7
:10040000255E3F4FCE010196698D7A8DA9010E942C
:100410001B024D815E8157FD0AC02F81388542172E
:1004200053070CF49A01020F131FF80110822E9645
:10043000E4E00C94AD16ABE0B0E0E1E2F2E00C9445
:1004400083163C012B015A01FC011782168283811D
:1004500081FD03C06FEF7FEFC6C19AE0892E1E01B8
:100460000894211C311CF3012381F20123FD8591A5
:1004700023FF81912F01882309F4B2C1853239F419
:1004800023FD859123FF81912F01853229F490E08E
:10049000B3010E940E04E7CF982FFF24EE24992485
:1004A000FFE1FF15D0F09B3269F09C3228F49032C6
:1004B00059F0933291F40EC09D3249F0903369F4B3
:1004C00041E024C052E0F52A84E0F82A28C098E0F0
:1004D000F92A25C0E0E1FE2A22C0F7FC29C0892FB5
:1004E00080538A3070F4F6FE05C0989C902C11243D
:1004F000980E15C0E89CE02C1124E80EF0E2FF2ACB
:100500000EC09E3229F4F6FC6BC140E4F42A07C009
:100510009C3619F450E8F52A02C0983649F4F201E5
:1005200023FD959123FF91912F01992309F0B8CFD5
:10053000892F8554833018F08052833038F444E09A
:1005400050E0A40EB51E5FE359830FC0933631F01F
:10055000933779F0933509F056C020C0F5018081BA
:10056000898342E050E0A40EB51E610101E010E075
:1005700012C0F501C080D180F6FC03C06FEF7FEFA1
:1005800002C0692D70E042E050E0A40EB51EC60125
:100590000E9403048C015FE7F52214C0F501C080BE
:1005A000D180F6FC03C06FEF7FEF02C0692D70E0D1
:1005B00042E050E0A40EB51EC6010E94F8038C0173
:1005C00050E8F52AF3FE07C01AC080E290E0B301BC
:1005D0000E940E04EA948E2D90E008171907A8F3E4
:1005E0000EC0F601F7FC8591F7FE81916F0190E056
:1005F000B3010E940E04E110EA940150104001156D
:10060000110579F7EAC0943611F0993669F5F7FECD
:1006100008C0F501208131814281538184E090E05E
:100620000AC0F501808191819C01442737FD4095E6
:10063000542F82E090E0A80EB91E9FE6F92257FFE2
:1006400009C050954095309521953F4F4F4F5F4FD2
:10065000E0E8FE2ACA01B901A1012AE030E00E94C7
:100660003A04D82ED21840C0953729F41F2D1F7E8A
:100670002AE030E01DC01F2D197F9F3661F09037B2
:1006800020F4983509F0ACC00FC0903739F0983796
:1006900009F0A6C004C028E030E00AC0106114FDD3
:1006A000146020E130E004C014FD166020E132E067
:1006B00017FF08C0F501608171818281938144E058
:1006C00050E008C0F50180819181BC0180E090E09C
:1006D00042E050E0A40EB51EA1010E943A04D82EBB
:1006E000D2188FE7F82EF122F6FE0BC05EEFF5224E
:1006F000D91438F4F4FE07C0F2FC05C08FEEF822DE
:1007000002C01D2D01C0192DF4FE0DC0FE01ED0D1E
:10071000F11D8081803319F499EEF92208C01F5F22
:10072000F2FE05C003C08F2D867809F01F5F0F2DE4
:10073000F3FC14C0F0FE0FC01E1510F09D2C0BC072
:100740009D2C9E0C911A1E2D06C080E290E0B301F4
:100750000E940E041F5F1E15C0F304C01E1510F486
:10076000E11A01C0EE2404FF0FC080E390E0B30162
:100770000E940E0402FF1DC001FD03C088E790E047
:100780000EC088E590E00BC0802F867891F001FFC5
:1007900002C08BE201C080E2F7FC8DE290E0B30181
:1007A0000E940E0406C080E390E0B3010E940E0494
:1007B0009A94D914C0F3DA94F101ED0DF11D808102
:1007C00090E0B3010E940E04DD20A9F706C080E28C
:1007D00090E0B3010E940E04EA94EE20C1F743CEEC
:1007E000F30166817781CB012B96E2E10C949F1691
:1007F000FC010590615070400110D8F780959095EC
:100800008E0F9F1F0895FC016150704001900110F0
:10081000D8F7809590958E0F9F1F08950F931F9383
:10082000CF93DF938C01EB018B8181FF1BC082FF93
:100830000DC02E813F818C819D812817390764F47A
:10084000E881F9810193F983E88306C0E885F98599
:10085000802F0995892B31F48E819F8101969F838A
:100860008E8302C00FEF1FEFC801DF91CF911F9160
:100870000F910895FA01AA27283051F1203181F112
:10088000E8946F936E7F6E5F7F4F8F4F9F4FAF4F98
:10089000B1E03ED0B4E03CD0670F781F891F9A1FAB
:1008A000A11D680F791F8A1F911DA11D6A0F711D5F
:1008B000811D911DA11D20D009F468943F912AE06B
:1008C000269F11243019305D3193DEF6CF01089553
:1008D000462F4770405D4193B3E00FD0C9F7F6CF84
:1008E000462F4F70405D4A3318F0495D31FD40524C
:1008F000419302D0A9F7EACFB4E0A69597958795E2
:1009000077956795BA95C9F70097610571050895C0
:100910009B01AC010A2E069457954795379527956C
:10092000BA95C9F7620F731F841F951FA01D089504
:1009300020E6FC0122830895DF92EF92FF920F934D
:100940001F93CF93DF937C01162F072FD22E2A9867
:100950001C99FECF406CC701642F0E940F08812FA5
:10096000902F9C01E90110E006C0C70160E00E94E1
:100970000F0889931F5F1D15C0F32A9ADF91CF914D
:100980001F910F91FF90EF90DF9008950F931F93A9
:10099000182F092F2A981C99FECF462B812F902FB4
:1009A000642F0E940F08812F902F60E00E940F0893
:1009B0002A9A1F910F9108952A981C99FECF0E94A0
:1009C0000F082A9A08950F931F93CF93DF938C01FA
:1009D000EB016BE340EC0E94C604282F90E08F7778
:1009E0009070892B49F127FD27C0C8016FE340E8CB
:1009F0000E94C604282F88838E33F0F4BE016F5FF7
:100A00007F4FC8014FE30E949C04C8016FE340E898
:100A10000E94C6048FAFC8016FE340E80E94C6047D
:100A2000C05CDF4F982F9F779883C054D040881FB9
:100A30008827881F8EAF01C01882C80166E30E9414
:100A4000DC04C8016AE30E94DC04C80164E30E947C
:100A5000DC048881DF91CF911F910F910895DF927F
:100A6000EF92FF920F931F93CF93DF937C01142F8C
:100A7000052FD22E2A981C99FECF6064C7010E94D0
:100A80000F08812F902F9C01E90110E005C0C701DC
:100A900069910E940F081F5F1D15C8F32A9ADF9104
:100AA000CF911F910F91FF90EF90DF900895FF92EB
:100AB0000F931F93182F092FF42E2A981C99FECFFD
:100AC000812F902F0E940F08812F902F6F2D0E9451
:100AD0000F082A9A1F910F91FF900895EF92FF92AD
:100AE0000F931F93DF93CF93CDB7DEB77C0182E0E6
:100AF000F7018183C70164E304C0913121F4C70188
:100B00006AE30E94DC04C70165E340EC0E94C6046E
:100B1000982F8F718D3089F784EF91E00E94E21158
:100B2000C7016FE38E01075F1F4FF80141918F01ED
:100B30000E945705C7016FE3A80129850E942F0570
:100B4000C70165E30E94DC04C70165E340EC0E9435
:100B5000C6048F718351833088F0C70166E30E9419
:100B6000DC04C7016BE30E94DC04C70164E30E945C
:100B7000DC0481E0F701818380E020C04A9BFECF46
:100B80004A99FECFC7016AE340EC0E94C604082FD1
:100B9000C70166E30E94DC04C7016BE30E94DC042A
:100BA000C70164E30E94DC0481E0F701818380E0F7
:100BB00010E00F771070012B09F481E0CF91DF91E5
:100BC0001F910F91FF90EF9008951F93CF93DF93A4
:100BD000EC01162F613019F06230D9F40DC06DE0D0
:100BE00042E20E945705CE016EE041EB0E9457059C
:100BF000CE016FE04BE319C06DE040E10E94570564
:100C0000CE016EE047EA0E945705CE016FE042E652
:100C10000CC06DE041E20E945705CE016EE042E655
:100C20000E945705CE016FE046E70E9457051B83DF
:100C3000DF91CF911F9108950F931F93CF93DF936F
:100C4000EC01162F042F8C81861779F0CE016AE013
:100C5000412F0E9457051C83002339F082E892E05F
:100C600060E070E0412F0E943B08DF91CF911F911F
:100C70000F9108950F931F93CF93DF93EC01162FDD
:100C8000042F8F81861779F0CE0169E0412F0E94F1
:100C900057051F83002339F082E892E064E070E09A
:100CA000412F0E943B08DF91CF911F910F91089532
:100CB000FF920F931F93CF93DF93EC01162F042F16
:100CC000F22E8D81861719F48E818417E1F0CE0102
:100CD00064E0412F0E945705CE0165E0402F0E943D
:100CE00057051D830E83FF2071F082E892E062E0D9
:100CF00070E0412F0E943B0882E892E063E070E0E0
:100D0000402F0E943B08DF91CF911F910F91FF90E0
:100D100008951F93CF93DF93EC0182E892E060E0A7
:100D200070E00E943408682F8A3020F4CE0140E041
:100D30000E941C0682E892E062E070E00E943408A3
:100D4000182F82E892E063E070E00E943408482F98
:100D5000812F81508E3F20F0842F81508E3F28F4C8
:100D6000CE01612F20E00E94580682E892E064E004
:100D700070E00E943408682F882321F0CE0140E003
:100D80000E943A06DF91CF911F910895FB01242F15
:100D9000608141810E94580608950F931F938C0132
:100DA00060E04EE20E945705C80161E04EE20E94F9
:100DB0005705C80162E046E00E945705C80163E09C
:100DC00047E00E945705C80166E04DE30E945705C1
:100DD000C80167E046E00E945705C80168E045E0A9
:100DE0000E945705C80165EB47E420E00E945806C1
:100DF000C8016FEF40E00E943A06C80160E040E0A1
:100E00000E941C06C8016BE048E00E945705C8011B
:100E10006CE040E00E945705C80160E00E94E505D3
:100E2000C80160E14AEC0E945705C80161E143E84E
:100E30000E945705C80162E143E90E945705C801B5
:100E400063E142E20E945705C80164E148EF0E9455
:100E50005705C80165E145E30E945705C80166E1F1
:100E600047E00E945705C80167E140E20E9457052C
:100E7000C80168E148E10E945705C80169E146E1FF
:100E80000E945705C8016AE14CE60E945705C80157
:100E90006BE143E40E945705C8016CE140E40E9405
:100EA0005705C8016DE141E90E945705C8016EE18F
:100EB00047E80E945705C8016FE14BE60E945705BD
:100EC000C80160E24BEF0E945705C80161E246E5A8
:100ED0000E945705C80162E240E10E945705C8011F
:100EE00063E249EE0E945705C80164E24AE20E94AB
:100EF0005705C80165E240E00E945705C80166E257
:100F00004FE10E945705C80167E241E40E9457057E
:100F1000C80168E240E00E945705C80169E249E55E
:100F20000E945705C8016AE24FE70E945705C801B1
:100F30006BE24FE30E945705C8016CE241E80E9452
:100F40005705C8016DE245E30E945705C8016EE2EE
:100F500049E00E9457051F910F910895CF93DF93A9
:100F6000EC012A9A85E090E00E94E2112A988AE03A
:100F700090E00E94E2112A9A89E290E00E94E21138
:100F80002A981C99FECFCE0160E30E940F081C999D
:100F9000FECF2A9ACE010E94CD06CE010E9489067C
:100FA000DF91CF9108950F931F938C010E94150834
:100FB00082E060E00E94B112C8010E94AE07C80141
:100FC0006EE3F80142810E9457051F910F91089529
:100FD0001F920F920FB60F9211240F900FBE0F9019
:100FE0001F9018951F920F920FB60F9211240F9019
:100FF0000FBE0F901F9018950F931F938C010396AF
:101000000E949804F801158E148E118210821F918F
:101010000F91089584E692E00E94FC0708956EBD4A
:101020000DB407FEFDCF8EB508958AE061E00E9401
:10103000F0128AE061E00E94B1128BE061E00E9450
:10104000B1128CE060E00E94B1128DE061E00E947C
:10105000B1128DE061E00E94F0128BE060E00E942E
:10106000F01280E58CBD0895F999FECF72BD61BD87
:10107000F89A80B50895F999FECF1FBA72BD61BD87
:1010800040BD0FB6F894FA9AF99A0FBE0895FC0184
:10109000EC59FF4F119211928FEF9FEF8193919333
:1010A00010820895CF93DF93DC01AA59BF4F1196A8
:1010B0001C921E92ED0108C0E61711F481E011C0E8
:1010C0002F5F3F4F3983288328813981FC01E20F4C
:1010D000F31FE081EE2381F78FEF9FEF8D939C93B9
:1010E00080E0DF91CF910895CF93DF93EC01FC0175
:1010F000EA59FF4F2081318137FF08C08FE493E028
:1011000060E071E00E94580F9E0108C08FEF9FEFD2
:10111000918380832F5F3F4F2C0F3D1FC901DF91CB
:10112000CF910895FF920F931F93CF93DF93EC011C
:10113000CC59DF4FE881F981C456D040EC0FFD1F38
:1011400060836B3339F4C859DF4F81E08883C85618
:10115000D0401AC06A3011F06623B1F4FE01EC5998
:10116000FF4FA081B181AC0FBD1F1C921182108274
:10117000CA59DF4F8FEF9FEF899399931882C85612
:10118000D040FF24F39410C0C859DF4F8881C8565F
:10119000D040882341F4FE01EC59FF4F80819181BA
:1011A000019691838083FF248E010C591F4FF80113
:1011B000808191818436910554F08FE493E064E35B
:1011C00071E00E94580FF8011182108218828F2D51
:1011D000DF91CF911F910F91FF900895CF93DF93EF
:1011E000EC01CA59DF4F2881398137FF0BC08FE4EA
:1011F00093E065E571E00E94580F20E030E040E0A8
:1012000050E010C02F5F3F4F820F931F60E070E0EF
:1012100040E050E00E94BB009B01AC018FEF9FEFCC
:1012200099838883B901CA01DF91CF910895FC01A8
:10123000DB01E657FF4F8081EA58F040882319F41C
:1012400020E030E00AC0E55BFF4F8081EE5BFF4F9E
:1012500080838C939F0121543040C90108950F93DE
:101260001F93CF93DF93EC0180E00E9488100E94CF
:10127000330AC657DF4F8881CA58D040882331F0DF
:101280008FE493E068EC71E00E9452108E01075BDE
:101290001F4FCE01B8010E94E304882379F0C9579B
:1012A000DF4F8881C758D040882341F0F801808102
:1012B000823020F0C657DF4F81E0888380E067E905
:1012C0007BE042E050E00E946510DF91CF911F91DA
:1012D0000F9108950F931F93CF93DF93EC01FA01C1
:1012E000DE0190E00BC0319611969B3339F48FE408
:1012F00093E062EE71E00E94521062C080811B9602
:101300008C931B979F5F8081882369F76987C457F7
:10131000DF4F8881CC58D0408A879E5F98871C2FEA
:101320000D2FCE0165E30E94DC04C257DF4F888198
:10133000CE58D0408823A1F08FE493E06A854AE03C
:1013400050E00E94060F8FE493E06CEF71E00E9482
:10135000580FBE01655F7F4F8FE493E00E94580FE6
:101360002DB73EB7215430400FB6F8943EBF0FBEA4
:101370002DBFADB7BEB71196FE01389681E401903E
:101380000D928150E1F7812F902F0E946E052DB7AD
:101390003EB72F5B3F4F0FB6F8943EBF0FBE2DBF39
:1013A000882339F48FE493E067E072E00E945210E2
:1013B00002C00E94330A812F902F64E30E94DC0454
:1013C000DF91CF911F910F910895BF92CF92DF923D
:1013D000EF92FF920F931F938C01B62E0E949804F8
:1013E0009BE8E92EF12CE00EF11E87ECF7018083DB
:1013F0008CE8C82ED12CC00ED11EF601B082035746
:101400001F4FF801108203501040F80110820C5F4A
:101410001F4FF80110820E581040C8010E94D307D8
:10142000C801B70140E00E94C606C801F60160810C
:1014300040E00E943A06C80167E046E00E94570576
:10144000C80164E30E94DC0480E067E97BE042E0DD
:1014500050E00E9465101F910F91FF90EF90DF9078
:10146000CF90BF90089581E08093C60208950F93B6
:101470001F9389E690E00E948B11182F092F0E947C
:1014800047081093C2020093C30289E690E00E94CD
:101490008B11182F092F0E9447081093C402009344
:1014A000C5021F910F910895BC018FE493E00E9443
:1014B000580F0895682F84E00E94F01208950F934A
:1014C0001F930FE413E0C80140E056E960E070E0CC
:1014D0000E94AF0CC80168E172E00E94521084E0E3
:1014E00061E00E94B11284E060E00E94F01280E0AE
:1014F00060E00E94B11284E061E00E94B11280E0DD
:1015000090E00E945A0A8FE890E00E948B118C01B3
:1015100064E00E94E5091093C1020093C0020257E3
:101520001F4F81E0F80180831092BF021092C60223
:101530001F910F910895AF92BF92CF92DF92EF92D9
:10154000FF920F931F9380E00E948F12AA2797FDAE
:10155000A095BA2FBC01CD010E949C147B018C0187
:1015600020E030E04AE754E40E9495155B016C01ED
:1015700060E070EC8FE794E4A80197010E94981353
:101580009B01AC01C601B5010E94011424E43FEAAD
:101590004EEA5DE30E9401140E9455159B01AC01C7
:1015A00060E070E889E595E40E94011423E333E9E3
:1015B00048E853E40E9498131F910F91FF90EF9019
:1015C000DF90CF90BF90AF9008959F92AF92BF925F
:1015D000CF92DF92EF92FF920F931F93CF93DF93FF
:1015E000EC01962E63E40E945208882309F493C00C
:1015F000CE010E94EE086130710579F0623071050C
:1016000024F4672B09F487C07BC062307105A1F018
:101610006330710509F074C056C0CE0168E40E94C1
:101620005208882309F477C0CE010E94EE08DC013D
:10163000CB010E945A0A6FC00E949B0A6B017C0179
:101640008FE493E06EE172E00E94580F8FE493E024
:10165000B701A60122E030E00E943F108DB79EB78F
:1016600008970FB6F8949EBF0FBE8DBF0DB71EB77B
:101670000F5F1F4F83E8A82E82E0B82EEDB7FEB7AC
:10168000B282A1828CE390E0F8019383828385E2A9
:1016900092E095838483C701B6010E946914F80122
:1016A000778366830E94EA018DB79EB708960FB6CE
:1016B000F8949EBF0FBE8DBF8091C0029091C10271
:1016C000692DA5011AC0CE0161E40E945208882349
:1016D00011F1CE010E94EE08C62ECE0163E50E94F4
:1016E00052088823C1F00091C0021091C102CE01BE
:1016F0000E947408AC01C8016C2D0E946A090BC0DD
:101700008CE292E00E94540ACE010E94540A8EE3B9
:1017100092E00E94540ADF91CF911F910F91FF90A8
:10172000EF90DF90CF90BF90AF909F90089581E0B1
:101730008093C6028091C0029091C102009711F07F
:101740000E942F0908958091C602882311F184E038
:101750000E94441360E0892B09F461E084E00E9458
:10176000F01264E670E080E090E00E94271284E0CE
:101770000E94441360E0892B09F461E084E00E9438
:10178000F01264E670E080E090E00E942712109270
:10179000C6020895FF920F931F93DF93CF930F928A
:1017A000CDB7DEB70E94A30B8091C0029091C10219
:1017B000BE016F5F7F4F0E9417098C01009719F1DE
:1017C000FF24F801EF0DF11D8091C4029091C50234
:1017D00060810E949208882341F069818091C4024F
:1017E0009091C50270E00E94E50AF394F801EF0DB4
:1017F000F11D8081882329F7E091C002F091C10298
:10180000E657FF4F10828FE493E00E942D0D892B45
:10181000A9F08FE493E00E945E0D682F8091C202D0
:101820009091C3020E949208882341F08091C202E5
:101830009091C3026FEF7FEF0E94E50A0F90CF9166
:10184000DF911F910F91FF90089508951F920F92BD
:101850000FB60F9211242F933F934F938F939F9323
:10186000EF93FF938091C00082FD1DC04091C600A0
:1018700020910703309108032F5F3F4F2F73307083
:101880008091090390910A032817390771F0E091BC
:101890000703F0910803E953FD4F40833093080399
:1018A0002093070302C08091C600FF91EF919F91A2
:1018B0008F914F913F912F910F900FBE0F901F90DE
:1018C0001895E0915B03F0915C03E05CFF4F819120
:1018D000919120813181821B930B8F739070892BA2
:1018E00011F00E94250C08951F920F920FB60F92CF
:1018F00011242F933F938F939F93EF93FF93209106
:101900004B0330914C0380914D0390914E03281767
:10191000390731F48091C1008F7D8093C10014C0DC
:10192000E0914D03F0914E03E55FFC4F20818091E3
:101930004D0390914E0301968F73907090934E03D8
:1019400080934D032093C600FF91EF919F918F915B
:101950003F912F910F900FBE0F901F901895AF924F
:10196000BF92DF92EF92FF920F931F93CF93DF937B
:10197000EC017A018B01DD24D39491E0A92EB12CE6
:10198000EC89FD89DD2069F0C50108A002C0880F3F
:10199000991F0A94E2F7808360E874E88EE190E092
:1019A00005C0108260E472E48FE090E0A801970126
:1019B0000E94501621503040404050405695479567
:1019C0003795279580E12030380720F0DD2011F091
:1019D000DD24D6CFE889F9893083EA89FB89208321
:1019E00019A2EE89FF89408121E030E0C9010C8C09
:1019F00002C0880F991F0A94E2F7482B4083EE89B2
:101A0000FF894081C9010D8C02C0880F991F0A947B
:101A1000E2F7482B4083EE89FF894081C9010E8C93
:101A200002C0880F991F0A94E2F7482B4083EE8981
:101A3000FF8980810F8C02C0220F331F0A94E2F7C6
:101A4000209528232083DF91CF911F910F91FF9044
:101A5000EF90DF90BF90AF900895DC011C96ED9160
:101A6000FC911D97E05CFF4F219131918081918124
:101A7000281B390B2F733070C9010895DC011C96A7
:101A8000ED91FC911D97E05CFF4F20813181E05486
:101A9000F040DF01AE5BBF4F8D919C9111972817ED
:101AA000390719F42FEF3FEF07C08D919C91E80F94
:101AB000F91F8081282F30E0C9010895DC011C96B0
:101AC000ED91FC911D97E05CFF4F20813181E05446
:101AD000F040DF01AE5BBF4F8D919C9111972817AD
:101AE000390719F42FEF3FEF10C08D919C9111979A
:101AF000E80FF91F20818D919C91119701968F73AA
:101B0000907011969C938E9330E0C9010895DC018A
:101B100091968C919197882339F05496ED91FC9190
:101B20005597808186FFF9CF91961C920895CF93A7
:101B3000DF93EC01EE85FF85E05CFF4F2081318172
:101B4000E054F0402F5F3F4F2F733070DF01AE5BEA
:101B5000BF4F8D919C91119728173907D1F3E05C05
:101B6000FF4F80819181E054F040E80FF91F6083BE
:101B7000EE85FF85E05CFF4F31832083EE89FF898E
:101B8000208181E090E00F8C02C0880F991F0A9499
:101B9000E2F7282B208381E089A3EC89FD898081ED
:101BA0008064808381E090E0DF91CF91089510926E
:101BB00052031092510388EE93E0A0E0B0E08093CE
:101BC000530390935403A0935503B093560387E5B2
:101BD00092E09093500380934F0387EC92E09093B0
:101BE0005C0380935B038BE093E090935E038093B0
:101BF0005D0385EC90E09093600380935F0384EC39
:101C000090E0909362038093610380EC90E0909366
:101C100064038093630381EC90E090936603809368
:101C2000650382EC90E0909368038093670386ECF1
:101C300090E090936A038093690384E080936B0340
:101C400083E080936C0387E080936D0385E080934D
:101C50006E0381E080936F030895CF92DF92EF923D
:101C6000FF920F931F93CF93DF937C016B018A0147
:101C7000C0E0D0E00FC0D6016D916D01D701ED91AC
:101C8000FC910190F081E02DC7010995C80FD91F83
:101C9000015010400115110571F7CE01DF91CF9170
:101CA0001F910F91FF90EF90DF90CF900895EF92EA
:101CB000FF920F931F938C01DC01ED91FC91019039
:101CC000F081E02D6DE009957C01D801ED91FC914A
:101CD0000190F081E02DC8016AE009959C012E0D6C
:101CE0003F1DC9011F910F91FF90EF900895CF9371
:101CF000DF93EC016115710519F420E030E00FC0AD
:101D0000DB010D900020E9F71197A61BB70BE881C6
:101D1000F9810280F381E02DAD0109959C01C90193
:101D2000DF91CF9108954F925F927F928F929F9211
:101D3000AF92BF92CF92DF92EF92FF920F931F93D9
:101D4000DF93CF93CDB7DEB7A1970FB6F894DEBF80
:101D50000FBECDBF2C01742ECB01223008F42AE037
:101D600019A231E2C32ED12CCC0EDD1E822E992475
:101D7000AA24BB24672D752FA50194010E9450163B
:101D800079018A01C801B701A50194010E943116A9
:101D9000472D461B0894C108D1084A3014F4405D11
:101DA00001C0495CF6014083E114F104010511050D
:101DB00021F07E2C5F2DC801DDCFC201B6010E944B
:101DC000770EA1960FB6F894DEBF0FBECDBFCF91B0
:101DD000DF911F910F91FF90EF90DF90CF90BF9018
:101DE000AF909F908F907F905F904F900895DC010F
:101DF0002115310541F4ED91FC910190F081E02D28
:101E0000642F099508950E94930E0895EF92FF9212
:101E10000F931F939A01E62EFF2400E010E0B80113
:101E2000A7010E94F70E1F910F91FF90EF90089568
:101E3000CF92DF92EF92FF920F931F93CF93DF9396
:101E4000EC016A017B012115310541F4E881F9813A
:101E50000190F081E02D642F09951FC02A303105D3
:101E6000D1F477FF17C0E881F9810190F081E02D6E
:101E70006DE209958C0144275527BA014C195D097B
:101E80006E097F09CE012AE00E94930E9801280F67
:101E9000391F04C02AE00E94930E9C01C901DF9102
:101EA000CF911F910F91FF90EF90DF90CF90089509
:101EB0000E94770E08957F928F929F92AF92BF9269
:101EC000CF92DF92EF92FF920F931F93CF93DF9306
:101ED0004C017A018B01722ECB01BA01A801970146
:101EE0000E94F815882321F0C40160E472E021C04B
:101EF000C0E0D0E057016801E894D7F8C601B50109
:101F00002FEF3FEF4FE75FE70E94F815882351F46A
:101F1000C601B5012FEF3FEF4FE75FE70E94FD13CA
:101F2000181614F0C1E0D0E0219739F0C40164E440
:101F300072E00E94770EEC0193C0C801B7012FEF49
:101F40003FEF4FE75FE40E944C15181654F0C801AC
:101F5000B7012FEF3FEF4FE75FEC0E94FD1388239F
:101F600024F4C40168E472E0E4CFC801B70120E0C2
:101F700030E040E050E00E94FD1387FD03C0C0E068
:101F8000D0E00EC0D401ED91FC910190F081E02DE4
:101F9000C4016DE20995EC0117FB109517F9109536
:101FA00020E030E040E05FE3DD240BC0CA01B9016E
:101FB00020E030E040E251E40E9401149B01AC01BA
:101FC000D394D71498F3C801B7010E9499135B0109
:101FD0006C010E946E147B018C01C401B801A70141
:101FE0002AE030E00E94F70EC80FD91F772039F0A1
:101FF000C4016CE472E00E94770EC80FD91FC801BB
:10200000B7010E949A149B01AC01C601B5010E9460
:10201000981324C020E030E040E251E40E9495157E
:102020007B018C010E9469145B016C01CC24B7FC1C
:10203000C094DC2CC401B601A5012AE030E00E9466
:10204000180FC80FD91FC601B5010E949C149B012F
:10205000AC01C801B7010E9498137A947720D1F699
:10206000CE01DF91CF911F910F91FF90EF90DF9004
:10207000CF90BF90AF909F908F907F900895EF92F8
:10208000FF920F931F937C010E945B0F8C01C7018D
:102090000E94570E080F191FC8011F910F91FF9042
:1020A000EF900895EF92FF920F931F937C010E948F
:1020B000770E8C01C7010E94570E080F191FC80127
:1020C0001F910F91FF90EF900895823000F5E82F57
:1020D000F0E0EE0FFF1FEF58FC4F71836083882301
:1020E00019F08130A1F408C0809169008C7F842BA5
:1020F00080936900E89A089580916900440F551F04
:10210000440F551F837F842B80936900E99A0895BB
:10211000823080F4882319F0813021F402C0E898DD
:1021200001C0E998E82FF0E0EE0FFF1FEF58FC4FD9
:102130001182108208951F920F920FB60F921124F0
:102140002F933F934F935F936F937F938F939F93BF
:10215000AF93BF93EF93FF938091710390917203BC
:10216000892B29F0E0917103F09172030995FF9199
:10217000EF91BF91AF919F918F917F916F915F91FF
:102180004F913F912F910F900FBE0F901F90189578
:102190001F920F920FB60F9211242F933F934F93DC
:1021A0005F936F937F938F939F93AF93BF93EF93BF
:1021B000FF938091730390917403892B29F0E09130
:1021C0007303F09174030995FF91EF91BF91AF9163
:1021D0009F918F917F916F915F914F913F912F913F
:1021E0000F900FBE0F901F901895CF93DF930E9412
:1021F000EC110E945F0AC1E6DCE00E94CA0B209746
:10220000E1F30E94610CF9CF0F931F93CF93DF93FB
:10221000BC018230910510F462E070E0E0917E0331
:10222000F0917F03A0E0B0E040E050E024C0808166
:10223000918186179707D0F08617970771F48281EE
:102240009381109729F013969C938E9312972CC02C
:1022500090937F0380937E0327C04115510519F0A9
:102260008417950718F4EF018D01AC01DF0182811D
:1022700093819C01F9013097D1F641155105F9F090
:10228000CA01861B970B8430910580F48A819B815B
:102290000115110521F0F8019383828304C0909306
:1022A0007F0380937E03FE0132962FC0FE01E80F6C
:1022B000F91F6193719302979983888326C08DB724
:1022C0009EB78857904020914E0230914F022817B8
:1022D0003907C8F4AC01421B530B4617570798F057
:1022E000CB0102964817590770F0820F931F909305
:1022F0004F0280934E029093510280935002F90155
:102300006193719302C0E0E0F0E0CF01DF91CF91E3
:102310001F910F9108950E94041108951F920F922A
:102320000FB60F9211242F933F934F935F936F93A8
:102330007F938F939F93AF93BF93209179033091B5
:102340007A0340917B0350917C0370917D03DA0105
:10235000C9010296A11DB11D672F6A5F6D3730F06C
:102360006D57DA01C9010396A11DB11D60937D036C
:102370008093790390937A03A0937B03B0937C03BB
:102380008091750390917603A0917703B0917803C3
:102390000196A11DB11D8093750390937603A093C0
:1023A0007703B0937803BF91AF919F918F917F9105
:1023B0006F915F914F913F912F910F900FBE0F90B2
:1023C0001F901895019739F0019729F0880F991FF0
:1023D00001970197F1F70895789484B5826084BDE0
:1023E00084B5816084BD85B5826085BD85B5816019
:1023F00085BDEEE6F0E0808181608083E1E8F0E079
:102400001082808182608083808181608083E0E8A7
:10241000F0E0808181608083E1EBF0E08081846086
:102420008083E0EBF0E0808181608083EAE7F0E088
:1024300080818460808380818260808380818160EC
:1024400080838081806880831092C1000895EF921C
:10245000FF920F931F93CF93DF937B018C013FB7C4
:10246000F8948091750390917603A0917703B091D1
:10247000780326B5A89B05C02F3F19F00196A11D32
:10248000B11D3FBFBA2FA92F982F8827820F911D0A
:10249000A11DB11D53E0880F991FAA1FBB1F5A959C
:1024A000D1F7EC0130C00E9497133FB7F8948091A8
:1024B000750390917603A0917703B091780326B5C8
:1024C000A89B05C02F3F19F00196A11DB11D3FBF6C
:1024D000BA2FA92F982F8827820F911DA11DB11DFA
:1024E00033E0880F991FAA1FBB1F3A95D1F78C1BA9
:1024F0009D0B885E9340B8F20894E108F108010949
:102500001109C851DC4FE114F1040105110559F618
:10251000DF91CF911F910F91FF90EF900895982F29
:102520008E3008F09E509770809152028295880FED
:10253000880F807C892B80937C0080917A00806456
:1025400080937A0080917A0086FDFCCF20917800FC
:1025500040917900942F80E030E0282B392BC9017D
:102560000895CF93DF93482F50E0CA018C509F4FBE
:10257000FC01349140525F4FFA018491882369F144
:1025800090E0880F991FFC01EE53FF4FA591B49185
:10259000FC01E453FF4FC591D491662351F42FB74A
:1025A000F8948C91932F909589238C93888189231B
:1025B0000BC0623061F42FB7F8948C91932F9095F3
:1025C00089238C938881832B88832FBF06C09FB774
:1025D000F8948C91832B8C939FBFDF91CF910895BA
:1025E000482F50E0CA01885F9E4FFC012491CA0128
:1025F0008C509F4FFC01949140525F4FFA013491EF
:10260000332309F440C0222351F1233071F02430E8
:1026100028F42130A1F0223011F514C02630B1F099
:102620002730C1F02430D9F404C0809180008F7726
:1026300003C0809180008F7D8093800010C084B59E
:102640008F7702C084B58F7D84BD09C08091B000B2
:102650008F7703C08091B0008F7D8093B000E32F0F
:10266000F0E0EE0FFF1FE453FF4FA591B4912FB799
:10267000F894662321F48C919095892302C08C9163
:10268000892B8C932FBF0895682F70E0CB01885F52
:102690009E4FFC012491CB018C509F4FFC01449133
:1026A00060527F4FFB019491992319F420E030E0B0
:1026B0003CC0222351F1233071F0243028F4213022
:1026C000A1F0223011F514C02630B1F02730C1F04E
:1026D0002430D9F404C0809180008F7703C08091AA
:1026E00080008F7D8093800010C084B58F7702C0FA
:1026F00084B58F7D84BD09C08091B0008F7703C001
:102700008091B0008F7D8093B000892F90E0880F7A
:10271000991F8A529F4FFC01A591B4918C9120E0A2
:1027200030E0842311F021E030E0C90108950895DC
:102730005058BB27AA270ED075C166D130F06BD197
:1027400020F031F49F3F11F41EF45BC10EF4E095CC
:10275000E7FB51C1E92F77D180F3BA1762077307FE
:102760008407950718F071F49EF58FC10EF4E0957B
:102770000B2EBA2FA02D0B01B90190010C01CA013B
:10278000A0011124FF27591B99F0593F50F4503EE6
:1027900068F11A16F040A22F232F342F4427585FD8
:1027A000F3CF469537952795A795F0405395C9F7F0
:1027B0007EF41F16BA0B620B730B840BBAF09150A8
:1027C000A1F0FF0FBB1F661F771F881FC2F70EC047
:1027D000BA0F621F731F841F48F48795779567951A
:1027E000B795F7959E3F08F0B3CF9395880F08F003
:1027F0009927EE0F979587950895D9D008F481E031
:1028000008950CD00FC107D140F0FED030F021F474
:102810005F3F19F0F0C0511139C1F3C014D198F3E2
:102820009923C9F35523B1F3951B550BBB27AA2751
:1028300062177307840738F09F5F5F4F220F331FC3
:10284000441FAA1FA9F333D00E2E3AF0E0E830D08F
:1028500091505040E695001CCAF729D0FE2F27D092
:10286000660F771F881FBB1F261737074807AB0760
:10287000B0E809F0BB0B802DBF01FF2793585F4FD5
:102880002AF09E3F510568F0B6C000C15F3FECF3EF
:10289000983EDCF3869577956795B795F7959F5F9A
:1028A000C9F7880F911D9695879597F90895E1E0EE
:1028B000660F771F881FBB1F621773078407BA074D
:1028C00020F0621B730B840BBA0BEE1F88F7E095A8
:1028D000089504D06894B111D9C00895BCD088F08F
:1028E0009F5790F0B92F9927B751A0F0D1F0660FFC
:1028F000771F881F991F1AF0BA95C9F712C0B13017
:1029000081F0C3D0B1E00895C0C0672F782F882729
:10291000B85F39F0B93FCCF3869577956795B39555
:10292000D9F73EF490958095709561957F4F8F4FC4
:102930009F4F0895E89409C097FB3EF490958095C9
:10294000709561957F4F8F4F9F4F9923A9F0F92F75
:1029500096E9BB279395F695879577956795B795F3
:10296000F111F8CFFAF4BB0F11F460FF1BC06F5FD9
:102970007F4F8F4F9F4F16C0882311F096E911C0EB
:10298000772321F09EE8872F762F05C0662371F00C
:1029900096E8862F70E060E02AF09A95660F771F20
:1029A000881FDAF7880F9695879597F90895990FFC
:1029B0000008550FAA0BE0E8FEEF16161706E80709
:1029C000F907C0F012161306E407F50798F0621B2A
:1029D000730B840B950B39F40A2661F0232B242BFF
:1029E000252B21F408950A2609F4A140A6958FEF1E
:1029F000811D811D089597F99F6780E870E060E070
:102A000008959FEF80EC089500240A941616170687
:102A100018060906089500240A94121613061406CF
:102A200005060895092E0394000C11F4882352F032
:102A3000BB0F40F4BF2B11F460FF04C06F5F7F4FEA
:102A40008F4F9F4F089557FD9058440F551F59F0D1
:102A50005F3F71F04795880F97FB991F61F09F3F8B
:102A600079F087950895121613061406551FF2CFB4
:102A70004695F1DF08C0161617061806991FF1CF04
:102A800086957105610508940895E894BB2766272B
:102A90007727CB0197F908958ADF08F48FEF08951F
:102AA0000EF0AAC0AECF6894A6CFD5DFC8F39923A5
:102AB000D1F3C6F3DF93CF931F930F93FF92C92FE8
:102AC000DD2788232AF02197660F771F881FDAF702
:102AD00020E030E040E85FEB9FE3883920F0803E63
:102AE00030F021968F7725DEE8E6F0E003C021DEA6
:102AF000E5E9F0E091D08B01BE01EC01FB2E6F57B0
:102B000071097595771F880B990B16DF28E132E75D
:102B100041E35FE316D0AF2D9801AE01FF900F9116
:102B20001F91CF91DF9116DE7DCF0BD07BCF6CDF75
:102B300028F071DF18F0952309F05DCF62CF1124E2
:102B4000A5CF81DFA0F3959FD1F3950F50E0551FDE
:102B5000629FF001729FBB27F00DB11D639FAA27F2
:102B6000F00DB11DAA1F649F6627B00DA11D661F41
:102B7000829F2227B00DA11D621F739FB00DA11D62
:102B8000621F839FA00D611D221F749F3327A00D1C
:102B9000611D231F849F600D211D822F762F6A2FB8
:102BA00011249F5750408AF0E1F088234AF0EE0F3D
:102BB000FF1FBB1F661F771F881F91505040A9F74A
:102BC0009E3F510570F017CF61CF5F3FECF3983E09
:102BD000DCF3869577956795B795F795E7959F5FB1
:102BE000C1F7FE2B880F911D9695879597F908954B
:102BF000DEDE880B990B08959F3F49F0915028F431
:102C0000869577956795B7959F5F80389F4F880F1A
:102C10009695879597F90895DF93CF931F930F9318
:102C2000FF92EF92DF927B018C01689405C0DA2E4F
:102C3000EF0187DFFE01E894A5912591359145913B
:102C40005591AEF3EF0186DDFE019701A801DA94FC
:102C500079F7DF90EF90FF900F911F91CF91DF9167
:102C60000895629FD001739FF001829FE00DF11DD6
:102C7000649FE00DF11D929FF00D839FF00D749FF6
:102C8000F00D659FF00D9927729FB00DE11DF91FA2
:102C9000639FB00DE11DF91FBD01CF0111240895FF
:102CA000A1E21A2EAA1BBB1BFD010DC0AA1FBB1F50
:102CB000EE1FFF1FA217B307E407F50720F0A21BC2
:102CC000B30BE40BF50B661F771F881F991F1A942F
:102CD00069F760957095809590959B01AC01BD0159
:102CE000CF010895EE0FFF1F0590F491E02D099498
:102CF000911106C0803219F089508550D0F708959F
:102D00009927882708952F923F924F925F926F9252
:102D10007F928F929F92AF92BF92CF92DF92EF926B
:102D2000FF920F931F93CF93DF93CDB7DEB7CA1BEC
:102D3000DB0B0FB6F894DEBF0FBECDBF09942A8817
:102D4000398848885F846E847D848C849B84AA84BF
:102D5000B984C884DF80EE80FD800C811B81AA814C
:102D6000B981CE0FD11D0FB6F894DEBF0FBECDBF17
:082D7000ED010895F894FFCF76
:102D7800436F6D6D616E643A20417474656D707453
:102D880020746F2072656164206120737472696EAB
:102D980067206265666F7265206120736561726382
:102DA800682E0A00436F6D6D616E642062756666F9
:102DB8006572206C656E677468206F766572666CE4
:102DC8006F772E0A00436F6D6D616E643A2041740F
:102DD80074656D707420746F207265616420612061
:102DE800636F6D6D616E64206C6F6E6720626566DF
:102DF8006F72652061207365617263682E0A0043F3
:102E08006F6D6D616E643A20417474656D707420E5
:102E1800746F207265616420612047436F64652088
:102E2800666C6F6174206265666F726520612073DD
:102E380065617263682E0A004F76657277726974ED
:102E4800696E6720696E707574207061636B657454
:102E580021005472616E736D6974206275666665CF
:102E680072206F766572666C6F7721002073656ECD
:102E780064696E673A20005472616E736D697420DC
:102E88006661696C656421007374617274005465CD
:102E98006D703A200043322025640A00556E6B6E2F
:102EA8006F776E20636F6D6D616E643A20000A0063
:102EB8006E616E00696E66006F7666002E00820392
:102EC80064000100000000970D2D0E2D0D5E0D3ED3
:042ED8000D870D0055
:00000001FF
