:100000000C9463000C947B090C94A8090C948B004D
:100010000C948B000C948B000C94DD030C948B00DF
:100020000C948B000C94E7030C948B000C948B00C5
:100030000C948B000C948B000C948B000C948B0014
:100040000C946E0A0C948B000C943D060C948B0659
:100050000C948B000C948B000C948B000C948B00F4
:100060000C948B000C948B000000000024002700EF
:100070002A0000000000250028002B0000000000DE
:1000800023002600290004040404040404040202DA
:100090000202020203030303030301020408102007
:1000A0004080010204081020010204081020000012
:1000B0000007000201000003040600000000000029
:1000C0000000FF03EE0711241FBECFEFD8E0DEBF14
:1000D000CDBF11E0A0E0B1E0EEE3F9E102C0059090
:1000E0000D92A437B107D9F712E0A4E7B1E001C03F
:1000F0001D92AC38B107E1F710E0C6ECD0E004C0C7
:100100002297FE010E94990CC23CD107C9F70E94B8
:10011000D5090C949D0C0C94000020E6FC01228370
:100120000895DF92EF92FF920F931F93CF93DF9387
:100130007C01162F072FD22E2A981C99FECF406CD7
:10014000C701642F0E940404812F902F9C01E901B4
:1001500010E006C0C70160E00E94040489931F5F9D
:100160001D15C0F32A9ADF91CF911F910F91FF9037
:10017000EF90DF9008950F931F93182F092F2A985F
:100180001C99FECF462B812F902F642F0E940404D0
:10019000812F902F60E00E9404042A9A1F910F91F2
:1001A00008952A981C99FECF0E9404042A9A089563
:1001B0000F931F93CF93DF938C01EB016BE340EC24
:1001C0000E94BB00282F90E08F779070892B49F117
:1001D00027FD27C0C8016FE340E80E94BB00282F1D
:1001E00088838E33F0F4BE016F5F7F4FC8014FE309
:1001F0000E949100C8016FE340E80E94BB008FAFEE
:10020000C8016FE340E80E94BB00C05CDF4F982F3D
:100210009F779883C054D040881F8827881F8EAF4F
:1002200001C01882C80166E30E94D100C8016AE3D8
:100230000E94D100C80164E30E94D1008881DF914F
:10024000CF911F910F910895DF92EF92FF920F933C
:100250001F93CF93DF937C01142F052FD22E2A9862
:100260001C99FECF6064C7010E940404812F902F67
:100270009C01E90110E005C0C70169910E940404D6
:100280001F5F1D15C8F32A9ADF91CF911F910F911F
:10029000FF90EF90DF900895FF920F931F93182F18
:1002A000092FF42E2A981C99FECF812F902F0E949F
:1002B0000404812F902F6F2D0E9404042A9A1F910D
:1002C0000F91FF900895EF92FF920F931F93DF938A
:1002D000CF93CDB7DEB77C0182E0F7018183C70100
:1002E00064E304C0913121F4C7016AE30E94D100A4
:1002F000C70165E340EC0E94BB00982F8F718D30E1
:1003000089F784EF91E00E94C20AC7016FE38E0172
:10031000075F1F4FF80141918F010E944C01C701F7
:100320006FE3A80129850E942401C70165E30E94AB
:10033000D100C70165E340EC0E94BB008F7183517F
:10034000833088F0C70166E30E94D100C7016BE3E8
:100350000E94D100C70164E30E94D10081E0F7014F
:10036000818380E020C04A9BFECF4A99FECFC7011F
:100370006AE340EC0E94BB00082FC70166E30E94BD
:10038000D100C7016BE30E94D100C70164E30E9462
:10039000D10081E0F701818380E010E00F771070D9
:1003A000012B09F481E0CF91DF911F910F91FF9014
:1003B000EF9008951F93CF93DF93EC01162F6130D8
:1003C00019F06230D9F40DC06DE042E20E944C0198
:1003D000CE016EE041EB0E944C01CE016FE04BE399
:1003E00019C06DE040E10E944C01CE016EE047EA89
:1003F0000E944C01CE016FE042E60CC06DE041E28C
:100400000E944C01CE016EE042E60E944C01CE01FA
:100410006FE046E70E944C011B83DF91CF911F9153
:1004200008950F931F93CF93DF93EC01162F042FA2
:100430008C81861779F0CE016AE0412F0E944C0131
:100440001C83002339F082E991E060E070E0412FE5
:100450000E943004DF91CF911F910F9108950F9367
:100460001F93CF93DF93EC01162F042F8F818617F4
:1004700079F0CE0169E0412F0E944C011F830023D7
:1004800039F082E991E064E070E0412F0E9430048D
:10049000DF91CF911F910F910895FF920F931F93BA
:1004A000CF93DF93EC01162F042FF22E8D81861748
:1004B00019F48E818417E1F0CE0164E0412F0E948F
:1004C0004C01CE0165E0402F0E944C011D830E833C
:1004D000FF2071F082E991E062E070E0412F0E941C
:1004E000300482E991E063E070E0402F0E94300424
:1004F000DF91CF911F910F91FF9008951F93CF939C
:10050000DF93EC0182E991E060E070E00E94290451
:10051000682F8A3020F4CE0140E00E94110282E967
:1005200091E062E070E00E942904182F82E991E0D6
:1005300063E070E00E942904482F812F81508E3F94
:1005400020F0842F81508E3F28F4CE01612F20E0CF
:100550000E944D0282E991E064E070E00E9429046B
:10056000682F882321F0CE0140E00E942F02DF9106
:10057000CF911F910895FB01242F608141810E943A
:100580004D0208950F931F938C0160E04EE20E948C
:100590004C01C80161E04EE20E944C01C80162E0DA
:1005A00046E00E944C01C80163E047E00E944C0114
:1005B000C80166E04DE30E944C01C80167E046E0D7
:1005C0000E944C01C80168E045E00E944C01C8014E
:1005D00065EB47E420E00E944D02C8016FEF40E068
:1005E0000E942F02C80160E040E00E941102C80191
:1005F0006BE048E00E944C01C8016CE040E00E94C2
:100600004C01C80160E00E94DA01C80160E14AECD7
:100610000E944C01C80161E143E80E944C01C801FD
:1006200062E143E90E944C01C80163E142E20E9499
:100630004C01C80164E148EF0E944C01C80165E12A
:1006400045E30E944C01C80166E147E00E944C016D
:10065000C80167E140E20E944C01C80168E148E13D
:100660000E944C01C80169E146E10E944C01C801A9
:100670006AE14CE60E944C01C8016BE143E40E9430
:100680004C01C8016CE140E40E944C01C8016DE1DD
:1006900041E90E944C01C8016EE147E80E944C010B
:1006A000C8016FE14BE60E944C01C80160E24BEFCC
:1006B0000E944C01C80161E246E50E944C01C8015C
:1006C00062E240E10E944C01C80163E249EE0E94EF
:1006D0004C01C80164E24AE20E944C01C80165E293
:1006E00040E00E944C01C80166E24FE10E944C01CB
:1006F000C80167E241E40E944C01C80168E240E0A1
:100700000E944C01C80169E249E50E944C01C80100
:100710006AE24FE70E944C01C8016BE24FE30E947E
:100720004C01C8016CE241E80E944C01C8016DE235
:1007300045E30E944C01C8016EE249E00E944C0171
:100740001F910F910895CF93DF93EC012A9A85E0D2
:1007500090E00E94C20A2A988AE090E00E94C20AB1
:100760002A9A89E290E00E94C20A2A981C99FECF38
:10077000CE0160E30E9404041C99FECF2A9ACE01A8
:100780000E94C202CE010E947E02DF91CF910895A5
:100790000F931F938C010E940A0482E060E00E9484
:1007A0006F0BC8010E94A303C8016EE3F8014281E8
:1007B0000E944C011F910F9108951F920F920FB646
:1007C0000F9211240F900FBE0F901F9018951F923B
:1007D0000F920FB60F9211240F900FBE0F901F9023
:1007E00018950F931F938C0103960E948D00F801BA
:1007F000158E148E118210821F910F91089584E737
:1008000091E00E94F10308956EBD0DB407FEFDCF87
:100810008EB508958AE061E00E94AE0B8AE061E047
:100820000E946F0B8BE061E00E946F0B8CE060E038
:100830000E946F0B8DE061E00E946F0B8DE061E024
:100840000E94AE0B8BE060E00E94AE0B80E58CBD99
:100850000895F999FECF72BD61BDF89A80B50895EB
:10086000F999FECF1FBA72BD61BD40BD0FB6F894B5
:10087000FA9AF99A0FBE0895FC01DB01E657FF4F83
:100880008081EA58F040882319F420E030E00AC063
:10089000E55BFF4F8081EE5BFF4F80838C939F0170
:1008A00021543040C90108950F931F93CF93DF93D4
:1008B000EC0180E00E9468090E945805C657DF4F8E
:1008C0008881CA58D040882331F08BE592E060E0FF
:1008D00071E00E9432098E01075B1F4FCE01B80103
:1008E0000E94D800882379F0C957DF4F8881C75804
:1008F000D040882341F0F8018081823020F0C65733
:10090000DF4F81E0888380E068E975E042E050E0F5
:100910000E944509DF91CF911F910F9108950F9388
:100920001F93CF93DF93EC01FA01DE0190E00BC03F
:10093000319611969B3339F48BE592E06AE171E0D0
:100940000E94320962C080811B968C931B979F5F27
:100950008081882369F76987C457DF4F8881CC5825
:10096000D0408A879E5F98871C2F0D2FCE0165E3AC
:100970000E94D100C257DF4F8881CE58D0408823D3
:10098000A1F08BE592E06A854AE050E00E941D09E3
:100990008BE592E064E371E00E942F09BE01655F80
:1009A0007F4F8BE592E00E942F092DB73EB721546F
:1009B00030400FB6F8943EBF0FBE2DBFADB7BEB7E7
:1009C0001196FE01389681E401900D928150E1F775
:1009D000812F902F0E9463012DB73EB72F5B3F4FB1
:1009E0000FB6F8943EBF0FBE2DBF882339F48BE5B8
:1009F00092E06FE371E00E94320902C00E94580544
:100A0000812F902F64E30E94D100DF91CF911F913D
:100A10000F910895BF92CF92DF92EF92FF920F93C2
:100A20001F938C01B62E0E948D009BE8E92EF12CBD
:100A3000E00EF11E87ECF70180838CE8C82ED12CE4
:100A4000C00ED11EF601B08203571F4FF80110826D
:100A500003501040F80110820C5F1F4FF801108204
:100A60000E581040C8010E94C803C801B70140E0F9
:100A70000E94BB02C801F601608140E00E942F0283
:100A8000C80167E046E00E944C01C80164E30E948F
:100A9000D10080E068E975E042E050E00E9445093D
:100AA0001F910F91FF90EF90DF90CF90BF9008952E
:100AB00081E08093D20108950F931F930BE512E01C
:100AC000C80140E056E960E070E00E94C606C80137
:100AD00060E571E00E94320984E061E00E946F0BE2
:100AE00084E060E00E94AE0B80E060E00E946F0B4B
:100AF00086E061E00E946F0B86E060E00E94AE0B32
:100B00008FE890E00E946B0A8C0165E00E940A0564
:100B10001093D1010093D00102571F4F81E0F801DB
:100B200080831092CF011092D2011F910F910895EE
:100B300081E08093D2018091D0019091D101009702
:100B400011F00E94540408958091D201882311F17C
:100B500084E00E94020C60E0892B09F461E084E0EB
:100B60000E94AE0B64E670E080E090E00E94070B0C
:100B700084E00E94020C60E0892B09F461E084E0CB
:100B80000E94AE0B64E670E080E090E00E94070BEC
:100B90001092D20108950F931F93DF93CF930F927A
:100BA000CDB7DEB70E94A4058091D0019091D1010C
:100BB000BE016F5F7F4F0E943C048C010097F9F0EB
:100BC0008BE592E066E571E00E942F098BE592E0EB
:100BD00069814AE050E00E941D098BE592E06CE5D6
:100BE00071E00E942F098BE592E0B8010E942F0965
:100BF000E091D001F091D101E657FF4F10828BE5D3
:100C000092E00E944407892B89F18091CF01082F3F
:100C1000112707FD10958BE592E00E9475070D5690
:100C20001E4FF80180839091CF01E92FFF27E7FD48
:100C3000F095ED56FE4F80819F5F8A30A9F4909326
:100C4000CF01E92FFF27E7FDF095ED56FE4F10820B
:100C50008091D0019091D10164E043E951E00E947C
:100C60008F041092CF0102C09093CF010F90CF91CB
:100C7000DF911F910F91089508951F920F920FB663
:100C80000F9211242F933F934F938F939F93EF9342
:100C9000FF938091C00082FD1DC04091C60020914D
:100CA0001302309114022F5F3F4F2F7330708091E9
:100CB0001502909116022817390771F0E09113027E
:100CC000F0911402ED52FE4F4083309314022093B2
:100CD000130202C08091C600FF91EF919F918F9106
:100CE0004F913F912F910F900FBE0F901F9018952D
:100CF000E0916702F0916802E05CFF4F8191919171
:100D000020813181821B930B8F739070892B11F09E
:100D10000E943C0608951F920F920FB60F92112465
:100D20002F933F938F939F93EF93FF9320915702BD
:100D3000309158028091590290915A022817390730
:100D400031F48091C1008F7D8093C10014C0E09187
:100D50005902F0915A02E95EFD4F208180915902BB
:100D600090915A0201968F73907090935A028093DB
:100D700059022093C600FF91EF919F918F913F916F
:100D80002F910F900FBE0F901F901895AF92BF92AA
:100D9000DF92EF92FF920F931F93CF93DF93EC01BB
:100DA0007A018B01DD24D39491E0A92EB12CEC893A
:100DB000FD89DD2069F0C50108A002C0880F991FD8
:100DC0000A94E2F7808360E874E88EE190E005C061
:100DD000108260E472E48FE090E0A80197010E9425
:100DE000750C2150304040405040569547953795FE
:100DF000279580E12030380720F0DD2011F0DD2438
:100E0000D6CFE889F9893083EA89FB89208319A242
:100E1000EE89FF89408121E030E0C9010C8C02C0DD
:100E2000880F991F0A94E2F7482B4083EE89FF89C7
:100E30004081C9010D8C02C0880F991F0A94E2F706
:100E4000482B4083EE89FF894081C9010E8C02C086
:100E5000880F991F0A94E2F7482B4083EE89FF8997
:100E600080810F8C02C0220F331F0A94E2F7209575
:100E700028232083DF91CF911F910F91FF90EF9056
:100E8000DF90BF90AF900895DC011C96ED91FC912E
:100E90001D97E05CFF4F2191319180819181281B4A
:100EA000390B2F733070C9010895DC011C96ED9148
:100EB000FC911D97E05CFF4F20813181E054F040B0
:100EC000DF01AE5BBF4F8D919C91119728173907B9
:100ED00019F42FEF3FEF07C08D919C91E80FF91F98
:100EE0008081282F30E0C9010895DC011C96ED9126
:100EF000FC911D97E05CFF4F20813181E054F04070
:100F0000DF01AE5BBF4F8D919C9111972817390778
:100F100019F42FEF3FEF10C08D919C911197E80FBE
:100F2000F91F20818D919C91119701968F7390707C
:100F300011969C938E9330E0C9010895DC0191963F
:100F40008C919197882339F05496ED91FC915597A7
:100F5000808186FFF9CF91961C920895CF93DF93FD
:100F6000EC01EE85FF85E05CFF4F20813181E0548C
:100F7000F0402F5F3F4F2F733070DF01AE5BBF4FEC
:100F80008D919C91119728173907D1F3E05CFF4FA1
:100F900080819181E054F040E80FF91F6083EE8575
:100FA000FF85E05CFF4F31832083EE89FF8920813C
:100FB00081E090E00F8C02C0880F991F0A94E2F73D
:100FC000282B208381E089A3EC89FD8980818064BE
:100FD000808381E090E0DF91CF91089510925E02CE
:100FE00010925D0288EE93E0A0E0B0E080935F0293
:100FF00090936002A0936102B093620287E691E051
:1010000090935C0280935B0283ED91E09093680281
:101010008093670287E192E090936A02809369026D
:1010200085EC90E090936C0280936B0284EC90E0EE
:1010300090936E0280936D0280EC90E0909370022A
:1010400080936F0281EC90E0909372028093710222
:1010500082EC90E0909374028093730286EC90E0AF
:10106000909376028093750284E08093770283E008
:101070008093780287E08093790285E080937A02FA
:1010800081E080937B020895CF92DF92EF92FF92EE
:101090000F931F93CF93DF937C016B018A01C0E014
:1010A000D0E00FC0D6016D916D01D701ED91FC919B
:1010B0000190F081E02DC7010995C80FD91F01509B
:1010C00010400115110571F7CE01DF91CF911F91ED
:1010D0000F91FF90EF90DF90CF900895EF92FF92E5
:1010E0000F931F938C01DC01ED91FC910190F08135
:1010F000E02D6DE009957C01D801ED91FC91019006
:10110000F081E02DC8016AE009959C012E0D3F1D7C
:10111000C9011F910F91FF90EF900895CF93DF9336
:10112000EC016115710519F420E030E00FC0DB011E
:101130000D900020E9F71197A61BB70BE881F98104
:101140000280F381E02DAD0109959C01C901DF9179
:10115000CF9108954F925F927F928F929F92AF921C
:10116000BF92CF92DF92EF92FF920F931F93DF9384
:10117000CF93CDB7DEB7A1970FB6F894DEBF0FBE01
:10118000CDBF2C01742ECB01223008F42AE019A225
:1011900031E2C32ED12CCC0EDD1E822E9924AA243E
:1011A000BB24672D752FA50194010E94750C790150
:1011B0008A01C801B701A50194010E94560C472D70
:1011C000461B0894C108D1084A3014F4405D01C0A0
:1011D000495CF6014083E114F1040105110521F099
:1011E0007E2C5F2DC801DDCFC201B6010E948E08A2
:1011F000A1960FB6F894DEBF0FBECDBFCF91DF91A1
:101200001F910F91FF90EF90DF90CF90BF90AF9024
:101210009F908F907F905F904F900895DC012115F3
:10122000310541F4ED91FC910190F081E02D642FA6
:10123000099508950E94AA080895EF92FF920F93CE
:101240001F939A01E62EFF2400E010E0B801A701E9
:101250000E940E091F910F91FF90EF9008950E9438
:101260008E080895EF92FF920F931F937C010E94C6
:101270008E088C01C7010E946E08080F191FC80153
:101280001F910F91FF90EF900895823000F5E82FA5
:10129000F0E0EE0FFF1FE358FD4F7183608388235A
:1012A00019F08130A1F408C0809169008C7F842BF3
:1012B00080936900E89A089580916900440F551F52
:1012C000440F551F837F842B80936900E99A08950A
:1012D000823080F4882319F0813021F402C0E8982C
:1012E00001C0E998E82FF0E0EE0FFF1FE358FD4F33
:1012F0001182108208951F920F920FB60F9211243F
:101300002F933F934F935F936F937F938F939F930D
:10131000AF93BF93EF93FF9380917D0290917E02F4
:10132000892B29F0E0917D02F0917E020995FF91D1
:10133000EF91BF91AF919F918F917F916F915F914D
:101340004F913F912F910F900FBE0F901F901895C6
:101350001F920F920FB60F9211242F933F934F932A
:101360005F936F937F938F939F93AF93BF93EF930D
:10137000FF9380917F0290918002892B29F0E09168
:101380007F02F09180020995FF91EF91BF91AF919B
:101390009F918F917F916F915F914F913F912F918D
:1013A0000F900FBE0F901F901895CF93DF930E9460
:1013B000CC0A0E945C05C8E7D6E00E94CB052097C6
:1013C000E1F30E947806F9CF0F931F93CF93DF9339
:1013D000BC018230910510F462E070E0E0918A0275
:1013E000F0918B02A0E0B0E040E050E024C08081AA
:1013F000918186179707D0F08617970771F482813D
:101400009381109729F013969C938E9312972CC07A
:1014100090938B0280938A0227C04115510519F0E1
:101420008417950718F4EF018D01AC01DF0182816B
:1014300093819C01F9013097D1F641155105F9F0DE
:10144000CA01861B970B8430910580F48A819B81A9
:101450000115110521F0F8019383828304C0909354
:101460008B0280938A02FE0132962FC0FE01E80FA4
:10147000F91F6193719302979983888326C08DB772
:101480009EB78857904020915F01309160012817E6
:101490003907C8F4AC01421B530B4617570798F0A5
:1014A000CB0102964817590770F0820F931F909353
:1014B000600180935F019093620180936101F90163
:1014C0006193719302C0E0E0F0E0CF01DF91CF9132
:1014D0001F910F9108950E94E40908951F920F92A1
:1014E0000FB60F9211242F933F934F935F936F93F7
:1014F0007F938F939F93AF93BF93209185023091F9
:101500008602409187025091880270918902DA0127
:10151000C9010296A11DB11D672F6A5F6D3730F0BA
:101520006D57DA01C9010396A11DB11D60938902AF
:101530008093850290938602A0938702B0938802DD
:101540008091810290918202A0918302B0918402E5
:101550000196A11DB11D8093810290938202A093F8
:101560008302B0938402BF91AF919F918F917F913D
:101570006F915F914F913F912F910F900FBE0F9000
:101580001F901895019739F0019729F0880F991F3E
:1015900001970197F1F70895789484B5826084BD2E
:1015A00084B5816084BD85B5826085BD85B5816067
:1015B00085BDEEE6F0E0808181608083E1E8F0E0C7
:1015C0001082808182608083808181608083E0E8F6
:1015D000F0E0808181608083E1EBF0E080818460D5
:1015E0008083E0EBF0E0808181608083EAE7F0E0D7
:1015F000808184608083808182608083808181603B
:1016000080838081806880831092C1000895EF926A
:10161000FF920F931F93CF93DF937B018C013FB712
:10162000F8948091810290918202A0918302B091FE
:10163000840226B5A89B05C02F3F19F00196A11D75
:10164000B11D3FBFBA2FA92F982F8827820F911D58
:10165000A11DB11D53E0880F991FAA1FBB1F5A95EA
:10166000D1F7EC0130C00E94550C3FB7F89480913F
:10167000810290918202A0918302B091840226B5EA
:10168000A89B05C02F3F19F00196A11DB11D3FBFBA
:10169000BA2FA92F982F8827820F911DA11DB11D48
:1016A00033E0880F991FAA1FBB1F3A95D1F78C1BF7
:1016B0009D0B885E9340B8F20894E108F108010997
:1016C0001109C851DC4FE114F1040105110559F667
:1016D000DF91CF911F910F91FF90EF900895CF93DD
:1016E000DF93482F50E0CA0186569F4FFC0134918A
:1016F0004A575F4FFA018491882369F190E0880F7F
:10170000991FFC01E859FF4FA591B491FC01EE58D7
:10171000FF4FC591D491662351F42FB7F8948C9163
:10172000932F909589238C93888189230BC06230F5
:1017300061F42FB7F8948C91932F909589238C9313
:101740008881832B88832FBF06C09FB7F8948C9124
:10175000832B8C939FBFDF91CF910895482F50E04A
:10176000CA0182559F4FFC012491CA0186569F4FA2
:10177000FC0194914A575F4FFA013491332309F4E5
:1017800040C0222351F1233071F0243028F421305D
:10179000A1F0223011F514C02630B1F02730C1F08D
:1017A0002430D9F404C0809180008F7703C08091E9
:1017B00080008F7D8093800010C084B58F7702C039
:1017C00084B58F7D84BD09C08091B0008F7703C040
:1017D0008091B0008F7D8093B000E32FF0E0EE0F9A
:1017E000FF1FEE58FF4FA591B4912FB7F8946623D1
:1017F00021F48C919095892302C08C91892B8C9334
:101800002FBF0895682F70E0CB0182559F4FFC01D8
:101810002491CB0186569F4FFC0144916A577F4F1C
:10182000FB019491992319F420E030E03CC022237D
:1018300051F1233071F0243028F42130A1F022300E
:1018400011F514C02630B1F02730C1F02430D9F49E
:1018500004C0809180008F7703C0809180008F7DCD
:101860008093800010C084B58F7702C084B58F7DCF
:1018700084BD09C08091B0008F7703C08091B00013
:101880008F7D8093B000892F90E0880F991F845836
:101890009F4FFC01A591B4918C9120E030E084230E
:1018A00011F021E030E0C90108950895629FD00150
:1018B000739FF001829FE00DF11D649FE00DF11D0B
:1018C000929FF00D839FF00D749FF00D659FF00DBA
:1018D0009927729FB00DE11DF91F639FB00DE11DA7
:1018E000F91FBD01CF0111240895A1E21A2EAA1BF0
:1018F000BB1BFD010DC0AA1FBB1FEE1FFF1FA217C0
:10190000B307E407F50720F0A21BB30BE40BF50BBC
:10191000661F771F881F991F1A9469F76095709545
:10192000809590959B01AC01BD01CF010895EE0F0C
:0E193000FF1F0590F491E02D0994F894FFCF6D
:10193E004F76657277726974696E6720696E70751D
:10194E0074207061636B657421005472616E736DE7
:10195E00697420627566666572206F766572666C54
:10196E006F7721002073656E64696E673A200054AC
:10197E0072616E736D6974206661696C65642100B5
:10198E0073746172740046726F6D20003A20008C81
:10199E0002640000000000AE0744084407750755B6
:0419AE00079E070089
:00000001FF
