:100000000C94AE000C94D3130C9400140C94D600F2
:100010000C94D6000C94D6000C947D090C94D60058
:100020000C94D6000C9487090C94D6000C94D6003E
:100030000C94D6000C94D6000C94D6000C94D600E8
:100040000C94C6140C94D6000C9442100C9490108E
:100050000C94D6000C94D6000C94D6000C94D600C8
:100060000C94D6000C94D60008000000BE922449DF
:10007000123EABAAAA2ABECDCCCC4C3E00000080DA
:10008000BEABAAAAAA3E00000000BF000000803F4D
:100090000000000000084178D3BB4387D1133D190D
:1000A0000E3CC3BD4282AD2B3E68EC8276BED98F3A
:1000B000E1A93E4C80EFFFBE01C4FF7F3F0000007E
:1000C000000000000000240027002A0000000000BB
:1000D000250028002B000000000023002600290036
:1000E00004040404040404040202020202020303DE
:1000F00003030303010204081020408001020408E6
:100100001020010204081020000000070002010076
:10011000000304060000000000000000494E4649AC
:100120004E4954594E414ECDCCCC3D0AD7233C17B5
:10013000B7D13877CC2B329595E6241FB14F0A0002
:100140000020410000C84200401C4620BCBE4CCAF2
:100150001B0E5AAEC59D74009F09F31111241FBEDA
:10016000CFEFD8E0DEBFCDBF13E0A0E0B1E0ECE719
:10017000F2E302C005900D92A034B107D9F714E064
:10018000A0E4B3E001C01D92AF36B107E1F711E082
:10019000CCE5D1E004C02297FE010E94F618C835D4
:1001A000D107C9F70E942D140C943C190C9400003F
:1001B000A0E0B0E0EEEDF0E00C940B19EC015B0177
:1001C0006115710519F0FB0191838083F9908F2DE2
:1001D00090E00E94FA18892BC9F7FDE2FF1621F47E
:1001E000F990EE24E39405C02BE2F21609F4F9909D
:1001F000EE248E0101501040C8016CE171E043E033
:1002000050E00E946703892B01F58E010E5F1F4F9E
:10021000C8016FE171E045E050E00E946703892B5F
:1002200019F48E01095F1F4FA114B10419F0F501F3
:1002300011830083E0FC04C070E090E080E814C00B
:1002400070E090E080E86FEF08C1C80164E271E0FF
:1002500043E050E00E946703892B69F4A114B104C4
:1002600029F470E090E080EC6FE7F7C02296F5018A
:10027000D183C083F6CF8824992440E050E060E029
:1002800070E0EF2DE053EA30A0F5F2E0EF2A8E2D7A
:1002900090E09C0128703070E2FE06C0232B79F5B7
:1002A0000894811C911C2BC0232B19F00894810801
:1002B0009108DB01CA0112E0880F991FAA1FBB1F1A
:1002C0001A95D1F7480F591F6A1F7B1F440F551FFE
:1002D000661F771F4E0F511D611D711D483929E999
:1002E000520729E9620729E1720748F084E0E82A09
:1002F00006C0EE3F31F4E3FC39C098E0E92AF990FA
:10030000C0CFE53311F0E53189F529912D3219F48B
:10031000E0E1EE2A05C02B3219F081E090E003C045
:10032000299182E090E0E22FE053EA3018F0C81BF8
:10033000D90B1CC020E030E0FCE020383F075CF423
:10034000C901880F991F880F991F280F391F220F85
:10035000331F2E0F311DE991E053EA3068F3E4FEBC
:1003600003C0309521953F4F820E931ECE2CDD2485
:10037000E1FE07C0A114B10421F02197F501D1835A
:10038000C083CB01BA010E9424177B018C01F3E0EA
:10039000CF22DD2423E0C216D10421F417FB1095EF
:1003A00017F9109557016801C801B70120E030E046
:1003B00040E050E00E948716882309F44AC097FE67
:1003C0000DC02BE3E22E21E0F22E9094819491084F
:1003D0009394C0E2D0E000E010E012C093E5E92E73
:1003E00091E0F92EF6CFF701259135914591549181
:1003F000C601B5010E941B185B016C018C1A9D0A95
:100400008C169D0684F7D595C7950F5F1F4F063054
:10041000110529F08CEF9FEFE80EF91EF1CFC50111
:10042000D6017C018D018C2D880F8D2D881F8F3F6B
:1004300051F0C601B50120E030E040E050E00E94FC
:100440008716882331F482E290E090936E048093C3
:100450006D047E2D9F2D802F612F272F392F482F40
:10046000562FB901CA01CDB7DEB7ECE00C942719BD
:100470002F923F925F926F927F928F929F92AF9254
:10048000BF92CF92DF92EF92FF920F931F93CF9381
:10049000DF938C011B01EA016115710519F0FB0165
:1004A00091838083209749F0CE010297839728F0AB
:1004B00020E030E040E050E0F6C0F801A1908F016C
:1004C0008A2D90E00E94FA18892BB9F7FDE2AF1649
:1004D00031F4F801A1908F015524539407C0FBE239
:1004E000AF1619F4F801A1908F015524209719F047
:1004F000C031D105C1F4F0E3AF1679F4F801808181
:10050000883711F0883549F4F801A1800E5F1F4F3C
:10051000F2E05F2AC0E1D0E006C0209721F480E33A
:10052000A816E9F427C0C830D10531F1C930D1058A
:1005300024F4C230D10531F50CC0CA30D10589F0A0
:10054000C031D105F9F4C12CD12CE12CB8E0FB2E3F
:1005500028C0C12CD12CE12CA0E4FA2E22C0CAE084
:10056000D0E0FCECCF2EFCECDF2EFCECEF2EFCE020
:10057000FF2E17C0C8E0D0E0C12CD12CE12CE0E167
:10058000FE2E0FC09E01442737FD4095542F60E09A
:1005900070E080E090E80E94D218C901DA016C0195
:1005A0007D0120E030E040E050E060E03E01882442
:1005B00077FC8094982C70EDB72EBA0CE9E0EB151F
:1005C00070F48A2D81548A3118F499ECB92E06C042
:1005D0008A2D81568A3150F589EAB82EBA0C8B2DB6
:1005E00090E08C179D0714F56F3FE1F0C216D3061B
:1005F000E406F506B0F0CA01B901A40193010E9416
:10060000B3189B01AC012B0D311D411D511D213033
:10061000F0E03F07F0E04F07F0E85F0710F461E01B
:1006200001C06FEFF801A1908F01C5CF21143104F3
:1006300081F0662331F001501040F10111830083F5
:1006400008C051FE1AC002501040F101118300830E
:1006500014C067FF12C050FC05C02FEF3FEF4FEFF3
:100660005FE704C020E030E040E050E882E290E044
:1006700090936E0480936D0416C050FE08C0509590
:100680004095309521953F4F4F4F5F4F0CC057FF1E
:100690000AC082E290E090936E0480936D042FEF85
:1006A0003FEF4FEF5FE7B901CA01DF91CF911F9193
:1006B0000F91FF90EF90DF90CF90BF90AF909F9001
:1006C0008F907F906F905F903F902F900895FB01E7
:1006D000DC014150504088F08D9181341CF08B3505
:1006E0000CF4805E659161341CF06B350CF4605E37
:1006F000861B611171F3990B0895881BFCCFAEE046
:10070000B0E0E5E8F3E00C9413190D891E898F8998
:10071000988D97FF02C080E090E801979E838D83BB
:100720001A83098386E08C839E01255E3F4FCE01AC
:100730000196698D7A8DA9010E94B0034D815E8179
:1007400057FD0AC02F813885421753070CF49A01D0
:10075000020F131FF80110822E96E4E00C942F195B
:10076000ABE0B0E0E6EBF3E00C9405193C012B01A3
:100770005A01FC0117821682838181FD03C06FEF4D
:100780007FEFC6C19AE0892E1E010894211C311CFE
:10079000F3012381F20123FD859123FF81912F0134
:1007A000882309F4B2C1853239F423FD859123FFF2
:1007B00081912F01853229F490E0B3010E94A305B5
:1007C000E7CF982FFF24EE249924FFE1FF15D0F006
:1007D0009B3269F09C3228F4903259F0933291F4B4
:1007E0000EC09D3249F0903369F441E024C052E0DC
:1007F000F52A84E0F82A28C098E0F92A25C0E0E12B
:10080000FE2A22C0F7FC29C0892F80538A3070F459
:10081000F6FE05C0989C902C1124980E15C0E89CFB
:10082000E02C1124E80EF0E2FF2A0EC09E3229F4DB
:10083000F6FC6BC140E4F42A07C09C3619F450E87A
:10084000F52A02C0983649F4F20123FD959123FF61
:1008500091912F01992309F0B8CF892F85548330C6
:1008600018F08052833038F444E050E0A40EB51EF6
:100870005FE359830FC0933631F0933779F09335A6
:1008800009F056C020C0F5018081898342E050E024
:10089000A40EB51E610101E010E012C0F501C08098
:1008A000D180F6FC03C06FEF7FEF02C0692D70E0CE
:1008B00042E050E0A40EB51EC6010E9498058C01CE
:1008C0005FE7F52214C0F501C080D180F6FC03C0BB
:1008D0006FEF7FEF02C0692D70E042E050E0A40EA0
:1008E000B51EC6010E948D058C0150E8F52AF3FE65
:1008F00007C01AC080E290E0B3010E94A305EA9409
:100900008E2D90E008171907A8F30EC0F601F7FC2A
:100910008591F7FE81916F0190E0B3010E94A305DC
:10092000E110EA94015010400115110579F7EAC071
:10093000943611F0993669F5F7FE08C0F50120816B
:1009400031814281538184E090E00AC0F5018081C9
:1009500091819C01442737FD4095542F82E090E01F
:10096000A80EB91E9FE6F92257FF09C05095409581
:10097000309521953F4F4F4F5F4FE0E8FE2ACA0167
:10098000B901A1012AE030E00E94CF05D82ED2188B
:1009900040C0953729F41F2D1F7E2AE030E01DC08E
:1009A0001F2D197F9F3661F0903720F4983509F09C
:1009B000ACC00FC0903739F0983709F0A6C004C01A
:1009C00028E030E00AC0106114FD146020E130E03E
:1009D00004C014FD166020E132E017FF08C0F501E5
:1009E000608171818281938144E050E008C0F5010B
:1009F00080819181BC0180E090E042E050E0A40E53
:100A0000B51EA1010E94CF05D82ED2188FE7F82E6F
:100A1000F122F6FE0BC05EEFF522D91438F4F4FE95
:100A200007C0F2FC05C08FEEF82202C01D2D01C0E8
:100A3000192DF4FE0DC0FE01ED0DF11D80818033F6
:100A400019F499EEF92208C01F5FF2FE05C003C039
:100A50008F2D867809F01F5F0F2DF3FC14C0F0FE78
:100A60000FC01E1510F09D2C0BC09D2C9E0C911AD2
:100A70001E2D06C080E290E0B3010E94A3051F5F17
:100A80001E15C0F304C01E1510F4E11A01C0EE24B7
:100A900004FF0FC080E390E0B3010E94A30502FFB2
:100AA0001DC001FD03C088E790E00EC088E590E01E
:100AB0000BC0802F867891F001FF02C08BE201C04D
:100AC00080E2F7FC8DE290E0B3010E94A30506C02E
:100AD00080E390E0B3010E94A3059A94D914C0F377
:100AE000DA94F101ED0DF11D808190E0B3010E94D7
:100AF000A305DD20A9F706C080E290E0B3010E94C3
:100B0000A305EA94EE20C1F743CEF3016681778115
:100B1000CB012B96E2E10C942119FC010590615068
:100B200070400110D8F7809590958E0F9F1F089503
:100B3000FC016150704001900110D8F780959095AC
:100B40008E0F9F1F08950F931F93CF93DF938C01F8
:100B5000EB018B8181FF1BC082FF0DC02E813F8185
:100B60008C819D812817390764F4E881F98101930C
:100B7000F983E88306C0E885F985802F0995892BDC
:100B800031F48E819F8101969F838E8302C00FEF87
:100B90001FEFC801DF91CF911F910F910895FA01C6
:100BA000AA27283051F1203181F1E8946F936E7FAC
:100BB0006E5F7F4F8F4F9F4FAF4FB1E03ED0B4E09D
:100BC0003CD0670F781F891F9A1FA11D680F791FDE
:100BD0008A1F911DA11D6A0F711D811D911DA11DEF
:100BE00020D009F468943F912AE0269F11243019FF
:100BF000305D3193DEF6CF010895462F4770405D9A
:100C00004193B3E00FD0C9F7F6CF462F4F70405D48
:100C10004A3318F0495D31FD4052419302D0A9F7A3
:100C2000EACFB4E0A6959795879577956795BA959D
:100C3000C9F700976105710508959B01AC010A2E63
:100C400006945795479537952795BA95C9F7620F3A
:100C5000731F841F951FA01D089520E6FC012283A9
:100C60000895DF92EF92FF920F931F93CF93DF933C
:100C70007C01162F072FD22E2A981C99FECF406C8C
:100C8000C701642F0E94A409812F902F9C01E901C4
:100C900010E006C0C70160E00E94A40989931F5FAD
:100CA0001D15C0F32A9ADF91CF911F910F91FF90EC
:100CB000EF90DF9008950F931F93182F092F2A9814
:100CC0001C99FECF462B812F902F642F0E94A409E0
:100CD000812F902F60E00E94A4092A9A1F910F9102
:100CE00008952A981C99FECF0E94A4092A9A089573
:100CF0000F931F93CF93DF938C01EB016BE340ECD9
:100D00000E945B06282F90E08F779070892B49F125
:100D100027FD27C0C8016FE340E80E945B06282F2B
:100D200088838E33F0F4BE016F5F7F4FC8014FE3BD
:100D30000E943106C8016FE340E80E945B068FAF56
:100D4000C8016FE340E80E945B06C05CDF4F982F4C
:100D50009F779883C054D040881F8827881F8EAF04
:100D600001C01882C80166E30E947106C8016AE3E7
:100D70000E947106C80164E30E9471068881DF91B8
:100D8000CF911F910F910895DF92EF92FF920F93F1
:100D90001F93CF93DF937C01142F052FD22E2A9817
:100DA0001C99FECF6064C7010E94A409812F902F77
:100DB0009C01E90110E005C0C70169910E94A409E6
:100DC0001F5F1D15C8F32A9ADF91CF911F910F91D4
:100DD000FF90EF90DF900895FF920F931F93182FCD
:100DE000092FF42E2A981C99FECF812F902F0E9454
:100DF000A409812F902F6F2D0E94A4092A9A1F9178
:100E00000F91FF900895EF92FF920F931F93DF933E
:100E1000CF93CDB7DEB77C0182E0F7018183C701B4
:100E200064E304C0913121F4C7016AE30E947106B2
:100E3000C70165E340EC0E945B06982F8F718D30EF
:100E400089F784EF91E00E942815C7016FE38E01B6
:100E5000075F1F4FF80141918F010E94EC06C70107
:100E60006FE3A80129850E94C406C70165E30E94BB
:100E70007106C70165E340EC0E945B068F718351E8
:100E8000833088F0C70166E30E947106C7016BE3F7
:100E90000E947106C70164E30E94710681E0F701B8
:100EA000818380E020C04A9BFECF4A99FECFC701D4
:100EB0006AE340EC0E945B06082FC70166E30E94CC
:100EC0007106C7016BE30E947106C70164E30E94CB
:100ED000710681E0F701818380E010E00F771070E8
:100EE000012B09F481E0CF91DF911F910F91FF90C9
:100EF000EF9008951F93CF93DF93EC01162F61308D
:100F000019F06230D9F40DC06DE042E20E94EC06A7
:100F1000CE016EE041EB0E94EC06CE016FE04BE3A8
:100F200019C06DE040E10E94EC06CE016EE047EA98
:100F30000E94EC06CE016FE042E60CC06DE041E29B
:100F40000E94EC06CE016EE042E60E94EC06CE0165
:100F50006FE046E70E94EC061B83DF91CF911F9163
:100F600008950F931F93CF93DF93EC01162F042F57
:100F70008C81861779F0CE016AE0412F0E94EC0641
:100F80001C83002339F08EE593E060E070E0412F90
:100F90000E94D009DF91CF911F910F9108950F9377
:100FA0001F93CF93DF93EC01162F042F8F818617A9
:100FB00079F0CE0169E0412F0E94EC061F830023E7
:100FC00039F08EE593E064E070E0412F0E94D00993
:100FD000DF91CF911F910F910895FF920F931F936F
:100FE000CF93DF93EC01162F042FF22E8D818617FD
:100FF00019F48E818417E1F0CE0164E0412F0E9444
:10100000EC06CE0165E0402F0E94EC061D830E83A6
:10101000FF2071F08EE593E062E070E0412F0E94C6
:10102000D0098EE593E063E070E0402F0E94D00984
:10103000DF91CF911F910F91FF9008951F93CF9350
:10104000DF93EC018EE593E060E070E00E94C90957
:10105000682F8A3020F4CE0140E00E94B1078EE56F
:1010600093E062E070E00E94C909182F8EE593E0DA
:1010700063E070E00E94C909482F812F81508E3FA4
:1010800020F0842F81508E3F28F4CE01612F20E084
:101090000E94ED078EE593E064E070E00E94C909CC
:1010A000682F882321F0CE0140E00E94CF07DF9116
:1010B000CF911F910895FB01242F608141810E94EF
:1010C000ED0708950F931F938C0160E04EE20E949C
:1010D000EC06C80161E04EE20E94EC06C80162E045
:1010E00046E00E94EC06C80163E047E00E94EC067F
:1010F000C80166E04DE30E94EC06C80167E046E0E7
:101100000E94EC06C80168E045E00E94EC06C801B8
:1011100065EB47E420E00E94ED07C8016FEF40E077
:101120000E94CF07C80160E040E00E94B107C801FB
:101130006BE048E00E94EC06C8016CE040E00E94D1
:10114000EC06C80160E00E947A07C80160E14AEC41
:101150000E94EC06C80161E143E80E94EC06C80168
:1011600062E143E90E94EC06C80163E142E20E94A9
:10117000EC06C80164E148EF0E94EC06C80165E195
:1011800045E30E94EC06C80166E147E00E94EC06D8
:10119000C80167E140E20E94EC06C80168E148E14D
:1011A0000E94EC06C80169E146E10E94EC06C80114
:1011B0006AE14CE60E94EC06C8016BE143E40E9440
:1011C000EC06C8016CE140E40E94EC06C8016DE148
:1011D00041E90E94EC06C8016EE147E80E94EC0676
:1011E000C8016FE14BE60E94EC06C80160E24BEFDC
:1011F0000E94EC06C80161E246E50E94EC06C801C7
:1012000062E240E10E94EC06C80163E249EE0E94FE
:10121000EC06C80164E24AE20E94EC06C80165E2FD
:1012200040E00E94EC06C80166E24FE10E94EC0635
:10123000C80167E241E40E94EC06C80168E240E0B0
:101240000E94EC06C80169E249E50E94EC06C8016B
:101250006AE24FE70E94EC06C8016BE24FE30E948E
:10126000EC06C8016CE241E80E94EC06C8016DE2A0
:1012700045E30E94EC06C8016EE249E00E94EC06DC
:101280001F910F910895CF93DF93EC012A9A85E087
:1012900090E00E9428152A988AE090E00E94281584
:1012A0002A9A89E290E00E9428152A981C99FECF7C
:1012B000CE0160E30E94A4091C99FECF2A9ACE01B8
:1012C0000E946208CE010E941E08DF91CF9108950E
:1012D0000F931F938C010E94AA0982E060E00E9494
:1012E0008F15C8010E944309C8016EE3F8014281CD
:1012F0000E94EC061F910F9108951F920F920FB656
:101300000F9211240F900FBE0F901F9018951F92EF
:101310000F920FB60F9211240F900FBE0F901F90D7
:1013200018950F931F938C0103960E942D06F801C8
:10133000158E148E118210821F910F91089580E4F2
:1013400093E00E94910908956EBD0DB407FEFDCF94
:101350008EB508958AE061E00E94CE158AE061E0D2
:101360000E948F158BE061E00E948F158CE060E099
:101370000E948F158DE061E00E948F158DE061E085
:101380000E94CE158BE060E00E94CE1580E58CBDFA
:101390000895F999FECF72BD61BDF89A80B50895A0
:1013A000F999FECF1FBA72BD61BD40BD0FB6F8946A
:1013B000FA9AF99A0FBE0895FC01EC59FF4F119269
:1013C00011928FEF9FEF8193919310820895CF93A5
:1013D000DF93DC01AA59BF4F11961C921E92ED01BA
:1013E00008C0E61711F481E011C02F5F3F4F398329
:1013F000288328813981FC01E20FF31FE081EE236D
:1014000081F78FEF9FEF8D939C9380E0DF91CF91D9
:101410000895CF93DF93EC01FC01EA59FF4F20813F
:10142000318137FF08C08CE394E060E071E00E94F6
:1014300087139E0108C08FEF9FEF918380832F5FFA
:101440003F4F2C0F3D1FC901DF91CF910895FF92AF
:101450000F931F93CF93DF93EC01CC59DF4FE881BB
:10146000F981C456D040EC0FFD1F60836B3339F413
:10147000C859DF4F81E08883C856D0401AC06A300F
:1014800011F06623B1F4FE01EC59FF4FA081B18148
:10149000AC0FBD1F1C9211821082CA59DF4F8FEF13
:1014A0009FEF899399931882C856D040FF24F394F4
:1014B00010C0C859DF4F8881C856D040882341F4F6
:1014C000FE01EC59FF4F80819181019691838083C9
:1014D000FF248E010C591F4FF801808191818436C1
:1014E000910554F08CE394E064E371E00E9487136B
:1014F000F8011182108218828F2DDF91CF911F91F8
:101500000F91FF9008950F931F93CF93DF93EC01FA
:101510008C010C591F4FF80111821082980118C0DC
:10152000A436B1056CF08CE394E06BE571E00E94A9
:1015300087131882F80111821082CA59DF4F1AC02E
:10154000FE01EA0FFB1F80831196F901B183A0838E
:10155000F901A081B181FB01EA0FFB1F8081882383
:1015600011F08B33E9F6AC0FBD1F1C92CC59DF4F45
:10157000199219928FEF9FEF899399931882DF91B7
:10158000CF911F910F910895CF93DF93EC01CA592A
:10159000DF4F2881398137FF0BC08CE394E063E88B
:1015A00071E00E94871320E030E040E050E010C07E
:1015B0002F5F3F4F820F931F60E070E040E050E0EC
:1015C0000E9438029B01AC018FEF9FEF99838883C3
:1015D000B901CA01DF91CF910895CF93DF93EC0158
:1015E000CA59DF4F2881398137FF0BC08CE394E063
:1015F0006DEB71E00E94871360E070E0F0E0E0E0E6
:101600000EC02F5F3F4F820F931F60E070E00E947B
:10161000D800F82FE92F8FEF9FEF998388834F2F02
:101620005E2FCA01DF91CF910895FC01DB01E657DF
:10163000FF4F8081EA58F040882319F420E030E021
:101640000AC0E55BFF4F8081ED5BFF4F80838C9389
:101650009F0122543040C90108950F931F93CF93E7
:10166000DF93EC0180E00E94C0130E94370CC65744
:10167000DF4F8881CA58D040882331F08CE394E052
:1016800066EF71E00E948A138E01075B1F4FCE0147
:10169000B8010E947806882379F0C957DF4F888106
:1016A000C758D040882341F0F8018081823020F073
:1016B000C657DF4F81E0888380E06FEE7FE042E035
:1016C00050E00E949D13DF91CF911F910F910895DB
:1016D0000F931F93CF93DF93EC01FA01DE0190E0AB
:1016E0000BC0319611969B3339F48CE394E060E1A2
:1016F00072E00E948A1362C080811B968C931B97B4
:101700009F5F8081882369F76987C357DF4F88818E
:10171000CD58D0408A879E5F98871C2F0D2FCE0111
:1017200065E30E947106C157DF4F8881CF58D040D2
:101730008823A1F08CE394E06A854AE050E00E949F
:1017400022138CE394E06AE272E00E948713BE01E8
:10175000655F7F4F8CE394E00E948A132DB73EB7FC
:10176000215430400FB6F8943EBF0FBE2DBFADB729
:10177000BEB71196FE01389681E401900D9281501A
:10178000E1F7812F902F0E9403072DB73EB72F5B03
:101790003F4F0FB6F8943EBF0FBE2DBF882339F4DC
:1017A0008CE394E065E372E00E948A1302C00E9419
:1017B000370C812F902F64E30E947106DF91CF9147
:1017C0001F910F910895BF92CF92DF92EF92FF92F7
:1017D0000F931F938C01B62E0E942D069BE8C92EF5
:1017E000D12CC00ED11E87ECF601808304571F4F09
:1017F000F80110820C5810408DE8E82EF12CE00E14
:10180000F11EF701B08202571F4FF80110820450F9
:101810001040F80110820B5F1F4FF80110820F5823
:101820001040C8010E946809C801B60140E00E944A
:101830005B08C801F701608140E00E94CF07C80142
:1018400067E046E00E94EC06C80164E30E9471066E
:1018500080E06FEE7FE042E050E00E949D131F9118
:101860000F91FF90EF90DF90CF90BF900895CF93AE
:10187000DF93C091A803D091A9038A81882341F402
:1018800081E08A830E941A156C837D838E839F83F7
:10189000C091A803D091A9038B81882361F481E0D2
:1018A0008B830E941A156C597F4F8F4F9F4F68870B
:1018B00079878A879B87DF91CF910895BC018CE35C
:1018C00094E04AE050E00E9474130895BC018CE358
:1018D00094E00E9487130895EF92FF920F931F9355
:1018E000CF93DF9388E10FB6F89480936000109255
:1018F00060000FBE0E941A156093AA037093AB0399
:101900008093AC039093AD038CE394E040E056E900
:1019100060E070E00E94CB108CE394E06AE070E03D
:101920004AE050E00E9474138CE394E066E472E0B5
:101930000E948A1384E061E00E948F1584E060E0D9
:101940000E94CE1580E060E00E948F1583E2E82EB1
:1019500083E0F82ECCE9D3E08CE090E00E94C31441
:10196000182F092FF70161917F0170E00E942C1060
:10197000188309832296FAE2EF16F3E0FF0661F777
:1019800080E990E00E94C3148C016AE00E94E30B9E
:101990001093AF030093AE0301571F4FF80110825D
:1019A00010929B0389E690E00E94C314182F092F20
:1019B0000E94DC091093B0030093B10389E690E024
:1019C0000E94C314182F092F0E94DC091093B20340
:1019D0000093B30329E288E190E00FB6F894A8954C
:1019E000809360000FBE20936000A895DF91CF9197
:1019F0001F910F91FF90EF900895AF92BF92CF92F9
:101A0000DF92EF92FF920F931F9380E00E946D157B
:101A1000AA2797FDA095BA2FBC01CD010E942617D9
:101A20007B018C0120E030E04AE754E40E941B185F
:101A30005B016C0160E070EC8FE794E4A801970112
:101A40000E9422169B01AC01C601B5010E948B16B3
:101A50002CE03FEE4DEE5BE30E948B160E94DB17FD
:101A60009B01AC0160E070E88CE595E40E948B1668
:101A700023E333E948E853E40E9422161F910F91B3
:101A8000FF90EF90DF90CF90BF90AF9008954F926E
:101A90005F926F927F928F929F92AF92BF92CF92FE
:101AA000DF92EF92FF920F931F93CF93DF934C013E
:101AB0003B016A30710519F480E592E0FAC1C40176
:101AC00063E40E94E709882309F49CC1C4010E94D1
:101AD000C40A6230710509F48DC0633071054CF49D
:101AE0006115710509F48EC16130710509F07FC17E
:101AF0000DC06430710509F4E8C0643071050CF460
:101B0000C7C06530710509F072C156C1C40168E4EF
:101B10000E94E709882309F475C1C4010E94C40A20
:101B20007B018C01C40160E50E94E709882309F468
:101B300069C1C4010E94C40AEB01C40164E40E94AB
:101B4000E709882359F40F2EF0E0AF2EF0E0BF2E06
:101B5000F0E0CF2EF0E0DF2EF02D05C0C4010E9492
:101B6000ED0A5B016C01FE01EE0FFF1FEF2809F18A
:101B7000E456FC4FC081D1818A81882309F042C19B
:101B800081E08A830E941A157B018C01C601B50190
:101B900020E030E04AE754E40E941B180E94F81647
:101BA000E60EF71E081F191FEC82FD820E831F83AD
:101BB00029C1E456FC4FC081D1818B81882309F073
:101BC00021C181E08B830E941A157B018C01C60123
:101BD000B50120E030E04AE754E40E941B180E945F
:101BE000F816E60EF71E081F191FE886F9860A8701
:101BF0001B8708C10E94FD0C7B018C0184E692E0EA
:101C00000E94660CC801B7010E94F3166B017C01AB
:101C1000CB010E945E0C8BE692E00E94660C77FC82
:101C2000F1C0ADB7BEB718970FB6F894BEBF0FBEE0
:101C3000ADBFEDB7FEB731960FE513E012961C93DA
:101C40000E9311978CE390E0938382838DE692E06C
:101C500095838483C601960163E0220F331F6A9542
:101C6000E1F7880F991F280F391F378326830E94B9
:101C70007F038DB79EB708960FB6F8949EBF0FBE30
:101C80008DBF8091AE039091AF03662DA80191C0E6
:101C9000C40161E40E94E709882309F4B3C0C401C8
:101CA0000E94C40AF62EC40163E50E94E709882356
:101CB00009F4A8C00091AE031091AF03C4010E94C3
:101CC000090AAC01C8016F2D74C0ADB7BEB71E972D
:101CD0000FB6F894BEBF0FBEADBFEDB7FEB73196DD
:101CE000CFE5D3E01296DC93CE9311974CE3442ECC
:101CF000512C5382428285E792E09583848336E9B2
:101D0000A32E32E0B32EB782A68220EAC22E22E0B2
:101D1000D22ED186C08695EAE92E92E0F92EF3867E
:101D2000E2860AE010E0158704870E947F038DB7E2
:101D30009EB70E960FB6F8949EBF0FBE8DBF8BE672
:101D400092E00E94660CCE010E94660C8BE692E047
:101D50000E94660C77FC56C0ADB7BEB71E970FB693
:101D6000F894BEBF0FBEADBFEDB7FEB73196129669
:101D7000DC93CE9311975382428280EB92E095835D
:101D80008483B782A682D186C086F386E2861587D1
:101D900004870E947F038DB79EB70E960FB6F89406
:101DA0009EBF0FBE8DBF8091AE039091AF03662D95
:101DB000AE010E94680B26C0C40160E50E94E709DD
:101DC000882301F1C4010E94C40A162FC40168E4EB
:101DD0000E94E7098823B1F0812F61E00E948F15EE
:101DE000C4010E94C40A812F0E94CE150BC085ED4C
:101DF00092E00E94660CC4010E94660C8BE692E0A1
:101E00000E94660CC40162E50E94E709882309F478
:101E100052C0C4010E94C40A6230710521F06430CE
:101E20007105F1F528C0C40164E50E94E709882323
:101E300009F441C087EE92E00E94660CC3010E9443
:101E40005E0C8BEF92E00E94660CC4010E94C40AF3
:101E5000882777FD8095982F0E9426172DEC3CEC63
:101E60004CEC5DE30E941B180E94F316DC01CB01D1
:101E70000E945E0C1CC0C40163E50E94E709882330
:101E8000D1F081E093E00E94660CC3010E945E0CD9
:101E90008BEF92E00E94660CC4010E94090A05C003
:101EA00083E193E00E94660CC4010E94660C8BE6FD
:101EB00092E00E94660CDF91CF911F910F91FF90ED
:101EC000EF90DF90CF90BF90AF909F908F907F90DA
:101ED0006F905F904F900895CF92DF92EF92FF92B4
:101EE0000F931F93DF93CF930F92CDB7DEB70E946E
:101EF0001A156B017C018091AA039091AB03A0910C
:101F0000AC03B091AD03A7019601281B390B4A0B16
:101F10005B0BDA01C90180559044A140B04018F034
:101F20000CE913E002C0A895FBCFF80181919191D3
:101F30008F01B701A6010E94FA0FF3E00A3A1F07CA
:101F4000A1F78091AE039091AF03BE016F5F7F4F09
:101F50000E94150BBC010097E9F08091B2039091AB
:101F6000B3030E94830AE091AE03F091AF03E657FA
:101F7000FF4F108269818091B2039091B30370E0AA
:101F80000E94470DC092AA03D092AB03E092AC032B
:101F9000F092AD038CE394E00E944911892BA9F0E3
:101FA0008CE394E00E947A11682F8091B0039091A5
:101FB000B1030E94270A882341F08091B0039091D9
:101FC000B1036FEF7FEF0E94470D0F90CF91DF912C
:101FD0001F910F91FF90EF90DF90CF9008950E9496
:101FE000370C8091AE039091AF03009711F00E94DF
:101FF0002D0B0895EF92FF920F931F93CF93DF93D2
:10200000EC017A018B018A81882371F08C819D819A
:10201000AE81BF81481759076A077B0728F01A82EB
:10202000888161E00E94CE158B81882371F08885BC
:102030009985AA85BB85E816F9060A071B0728F0CB
:102040001B82888160E00E94CE15DF91CF911F91A5
:102050000F91FF90EF9008950F931F938C01862F9F
:10206000F8016083718361E00E948F15F80180811F
:1020700060E00E94CE15F801128213821F910F9129
:10208000089508951F920F920FB60F9211242F9367
:102090003F934F938F939F93EF93FF938091C00053
:1020A00082FD1DC04091C6002091F4033091F503DC
:1020B0002F5F3F4F2F7330708091F6039091F7039D
:1020C0002817390771F0E091F403F091F503EC540F
:1020D000FC4F40833093F5032093F40302C08091BA
:1020E000C600FF91EF919F918F914F913F912F915A
:1020F0000F900FBE0F901F901895E0914804F0913B
:102100004904E05CFF4F8191919120813181821BD4
:10211000930B8F739070892B11F00E9441100895DA
:102120001F920F920FB60F9211242F933F938F930C
:102130009F93EF93FF93209138043091390480915D
:102140003A0490913B042817390731F48091C1007B
:102150008F7D8093C10014C0E0913A04F0913B045C
:10216000E850FC4F208180913A0490913B04019605
:102170008F73907090933B0480933A042093C60031
:10218000FF91EF919F918F913F912F910F900FBEF3
:102190000F901F901895AF92BF92DF92EF92FF922F
:1021A0000F931F93CF93DF93EC017A018B01DD2412
:1021B000D39491E0A92EB12CEC89FD89DD2069F042
:1021C000C50108A002C0880F991F0A94E2F7808316
:1021D00060E874E88EE190E005C0108260E472E48B
:1021E0008FE090E0A80197010E94D2182150304062
:1021F00040405040569547953795279580E12030CF
:10220000380720F0DD2011F0DD24D6CFE889F989E8
:102210003083EA89FB89208319A2EE89FF894081F6
:1022200021E030E0C9010C8C02C0880F991F0A948C
:10223000E2F7482B4083EE89FF894081C9010D8C6C
:1022400002C0880F991F0A94E2F7482B4083EE8959
:10225000FF894081C9010E8C02C0880F991F0A9422
:10226000E2F7482B4083EE89FF8980810F8C02C002
:10227000220F331F0A94E2F7209528232083DF9151
:10228000CF911F910F91FF90EF90DF90BF90AF9093
:102290000895DC011C96ED91FC911D97E05CFF4FC9
:1022A0002191319180819181281B390B2F733070DE
:1022B000C9010895DC011C96ED91FC911D97E05C2D
:1022C000FF4F20813181E054F040DF01AE5BBF4F12
:1022D0008D919C9111972817390719F42FEF3FEF33
:1022E00007C08D919C91E80FF91F8081282F30E065
:1022F000C9010895DC011C96ED91FC911D97E05CED
:10230000FF4F20813181E054F040DF01AE5BBF4FD1
:102310008D919C9111972817390719F42FEF3FEFF2
:1023200010C08D919C911197E80FF91F20818D911C
:102330009C91119701968F73907011969C938E9338
:1023400030E0C9010895DC0191968C919197882322
:1023500039F05496ED91FC915597808186FFF9CF25
:1023600091961C920895CF93DF93EC01EE85FF8543
:10237000E05CFF4F20813181E054F0402F5F3F4F00
:102380002F733070DF01AE5BBF4F8D919C91119721
:1023900028173907D1F3E05CFF4F80819181E05429
:1023A000F040E80FF91F6083EE85FF85E05CFF4F8A
:1023B00031832083EE89FF89208181E090E00F8CBA
:1023C00002C0880F991F0A94E2F7282B208381E02E
:1023D00089A3EC89FD8980818064808381E090E01D
:1023E000DF91CF91089510923F0410923E0488EE41
:1023F00093E0A0E0B0E08093400490934104A09368
:102400004204B093430483E393E090933D048093AC
:102410003C0484EB93E0909349048093480488EF54
:1024200093E090934B0480934A0485EC90E0909362
:102430004D0480934C0484EC90E090934F0480937F
:102440004E0480EC90E0909351048093500481EC12
:1024500090E0909353048093520482EC90E0909328
:1024600055048093540486EC90E090935704809335
:10247000560484E08093580483E08093590487E0F5
:1024800080935A0485E080935B0481E080935C0430
:102490000895CF92DF92EF92FF920F931F93CF9305
:1024A000DF937C016B018A01C0E0D0E00FC0D60150
:1024B0006D916D01D701ED91FC910190F081E02DBE
:1024C000C7010995C80FD91F01501040011511050A
:1024D00071F7CE01DF91CF911F910F91FF90EF9097
:1024E000DF90CF900895EF92FF920F931F938C018E
:1024F000DC01ED91FC910190F081E02D6DE00995FA
:102500007C01D801ED91FC910190F081E02DC80192
:102510006AE009959C012E0D3F1DC9011F910F9185
:10252000FF90EF900895CF93DF93EC016115710553
:1025300019F420E030E00FC0DB010D900020E9F736
:102540001197A61BB70BE881F9810280F381E02D7A
:10255000AD0109959C01C901DF91CF9108954F927A
:102560005F927F928F929F92AF92BF92CF92DF92B3
:10257000EF92FF920F931F93DF93CF93CDB7DEB708
:10258000A1970FB6F894DEBF0FBECDBF2C01742EFD
:10259000CB01223008F42AE019A231E2C32ED12C5B
:1025A000CC0EDD1E822E9924AA24BB24672D752F04
:1025B000A50194010E94D21879018A01C801B701CE
:1025C000A50194010E94B318472D461B0894C10829
:1025D000D1084A3014F4405D01C0495CF6014083E3
:1025E000E114F1040105110521F07E2C5F2DC801D5
:1025F000DDCFC201B6010E949312A1960FB6F894E6
:10260000DEBF0FBECDBFCF91DF911F910F91FF9025
:10261000EF90DF90CF90BF90AF909F908F907F9082
:102620005F904F900895DC012115310541F4ED9143
:10263000FC910190F081E02D642F099508950E948E
:10264000AF120895EF92FF920F931F939A01E62E17
:10265000FF2400E010E0B801A7010E9413131F91AE
:102660000F91FF90EF900895CF92DF92EF92FF923B
:102670000F931F93CF93DF93EC016A017B01211528
:10268000310541F4E881F9810190F081E02D642F5A
:1026900009951FC02A303105D1F477FF17C0E881B2
:1026A000F9810190F081E02D6DE209958C014427BC
:1026B0005527BA014C195D096E097F09CE012AE040
:1026C0000E94AF129801280F391F04C02AE00E940F
:1026D000AF129C01C901DF91CF911F910F91FF9023
:1026E000EF90DF90CF900895EF92FF920F931F939A
:1026F0007B019A010027F7FC0095102FB801A70174
:102700000E9434131F910F91FF90EF9008950E9443
:1027100093120895EF92FF920F931F937C010E94F2
:1027200093128C01C7010E947312080F191FC80170
:102730001F910F91FF90EF900895823000F5E82FE0
:10274000F0E0EE0FFF1FE25AFB4F71836083882396
:1027500019F08130A1F408C0809169008C7F842B2E
:1027600080936900E89A089580916900440F551F8D
:10277000440F551F837F842B80936900E99A089545
:10278000823080F4882319F0813021F402C0E89867
:1027900001C0E998E82FF0E0EE0FFF1FE25AFB4F6F
:1027A0001182108208951F920F920FB60F9211247A
:1027B0002F933F934F935F936F937F938F939F9349
:1027C000AF93BF93EF93FF9380915E0490915F046A
:1027D000892B29F0E0915E04F0915F040995FF9147
:1027E000EF91BF91AF919F918F917F916F915F9189
:1027F0004F913F912F910F900FBE0F901F90189502
:102800001F920F920FB60F9211242F933F934F9365
:102810005F936F937F938F939F93AF93BF93EF9348
:10282000FF938091600490916104892B29F0E091DD
:102830006004F09161040995FF91EF91BF91AF9110
:102840009F918F917F916F915F914F913F912F91C8
:102850000F900FBE0F901F901895CF93DF930E949B
:1028600032150E946C0CCDE7D0E10E946C0F2097CE
:10287000E1F30E947D10F9CF0F931F93CF93DF9365
:10288000BC018230910510F462E070E0E0916B04CD
:10289000F0916C04A0E0B0E040E050E024C0808102
:1028A000918186179707D0F08617970771F4828178
:1028B0009381109729F013969C938E9312972CC0B6
:1028C00090936C0480936B0427C04115510519F057
:1028D0008417950718F4EF018D01AC01DF018281A7
:1028E00093819C01F9013097D1F641155105F9F01A
:1028F000CA01861B970B8430910580F48A819B81E5
:102900000115110521F0F8019383828304C090938F
:102910006C0480936B04FE0132962FC0FE01E80F19
:10292000F91F6193719302979983888326C08DB7AD
:102930009EB78857904020912A0330912B03281787
:102940003907C8F4AC01421B530B4617570798F0E0
:10295000CB0102964817590770F0820F931F90938E
:102960002B0380932A0390932D0380932C03F9016A
:102970006193719302C0E0E0F0E0CF01DF91CF916D
:102980001F910F9108950E943C1408951F920F9279
:102990000FB60F9211242F933F934F935F936F9332
:1029A0007F938F939F93AF93BF9320916604309151
:1029B0006704409168045091690470916A04DA01D7
:1029C000C9010296A11DB11D672F6A5F6D3730F0F6
:1029D0006D57DA01C9010396A11DB11D60936A0408
:1029E0008093660490936704A0936804B09369048D
:1029F0008091620490916304A0916404B091650495
:102A00000196A11DB11D8093620490936304A0936D
:102A10006404B0936504BF91AF919F918F917F91B2
:102A20006F915F914F913F912F910F900FBE0F903B
:102A30001F9018958FB7F894209166043091670421
:102A400040916804509169048FBFB901CA0108958B
:102A5000019739F0019729F0880F991F0197019785
:102A6000F1F70895789484B5826084BD84B581605F
:102A700084BD85B5826085BD85B5816085BDEEE686
:102A8000F0E0808181608083E1E8F0E01082808165
:102A900082608083808181608083E0E8F0E08081D3
:102AA00081608083E1EBF0E0808184608083E0EBF3
:102AB000F0E0808181608083EAE7F0E080818460DB
:102AC0008083808182608083808181608083808137
:102AD000806880831092C1000895982F8E3008F08E
:102AE0009E50977080912E038295880F880F807C6E
:102AF000892B80937C0080917A00806480937A0097
:102B000080917A0086FDFCCF209178004091790079
:102B1000942F80E030E0282B392BC9010895CF9302
:102B2000DF93482F50E0CA018C509F4FFC01349135
:102B300040525F4FFA018491882369F190E0880F39
:102B4000991FFC01EE53FF4FA591B491FC01E45392
:102B5000FF4FC591D491662351F42FB7F8948C910F
:102B6000932F909589238C93888189230BC06230A1
:102B700061F42FB7F8948C91932F909589238C93BF
:102B80008881832B88832FBF06C09FB7F8948C91D0
:102B9000832B8C939FBFDF91CF910895482F50E0F6
:102BA000CA01885F9E4FFC012491CA018C509F4F3F
:102BB000FC01949140525F4FFA013491332309F4A0
:102BC00040C0222351F1233071F0243028F4213009
:102BD000A1F0223011F514C02630B1F02730C1F039
:102BE0002430D9F404C0809180008F7703C0809195
:102BF00080008F7D8093800010C084B58F7702C0E5
:102C000084B58F7D84BD09C08091B0008F7703C0EB
:102C10008091B0008F7D8093B000E32FF0E0EE0F45
:102C2000FF1FE453FF4FA591B4912FB7F89466238B
:102C300021F48C919095892302C08C91892B8C93DF
:102C40002FBF08955058BB27AA270ED075C166D153
:102C500030F06BD120F031F49F3F11F41EF45BC1D2
:102C60000EF4E095E7FB51C1E92F77D180F3BA1755
:102C7000620773078407950718F071F49EF58FC1FA
:102C80000EF4E0950B2EBA2FA02D0B01B901900187
:102C90000C01CA01A0011124FF27591B99F0593FCB
:102CA00050F4503E68F11A16F040A22F232F342F13
:102CB0004427585FF3CF469537952795A795F04061
:102CC0005395C9F77EF41F16BA0B620B730B840B76
:102CD000BAF09150A1F0FF0FBB1F661F771F881F2E
:102CE000C2F70EC0BA0F621F731F841F48F4879586
:102CF00077956795B795F7959E3F08F0B3CF939575
:102D0000880F08F09927EE0F979587950895D9D0E9
:102D100008F481E008950CD00FC107D140F0FED037
:102D200030F021F45F3F19F0F0C0511139C1F3C008
:102D300014D198F39923C9F35523B1F3951B550B7F
:102D4000BB27AA2762177307840738F09F5F5F4F7E
:102D5000220F331F441FAA1FA9F333D00E2E3AF0BF
:102D6000E0E830D091505040E695001CCAF729D0D9
:102D7000FE2F27D0660F771F881FBB1F2617370728
:102D80004807AB07B0E809F0BB0B802DBF01FF2758
:102D900093585F4F2AF09E3F510568F0B6C000C1BE
:102DA0005F3FECF3983EDCF3869577956795B79592
:102DB000F7959F5FC9F7880F911D9695879597F9AD
:102DC0000895E1E0660F771F881FBB1F6217730726
:102DD0008407BA0720F0621B730B840BBA0BEE1F3B
:102DE00088F7E095089504D06894B111D9C008958A
:102DF000BCD088F09F5790F0B92F9927B751A0F019
:102E0000D1F0660F771F881F991F1AF0BA95C9F77E
:102E100012C0B13081F0C3D0B1E00895C0C0672FB7
:102E2000782F8827B85F39F0B93FCCF3869577952E
:102E30006795B395D9F73EF4909580957095619517
:102E40007F4F8F4F9F4F0895E89409C097FB3EF442
:102E500090958095709561957F4F8F4F9F4F9923E7
:102E6000A9F0F92F96E9BB279395F6958795779565
:102E70006795B795F111F8CFFAF4BB0F11F460FF25
:102E80001BC06F5F7F4F8F4F9F4F16C0882311F07D
:102E900096E911C0772321F09EE8872F762F05C091
:102EA000662371F096E8862F70E060E02AF09A952C
:102EB000660F771F881FDAF7880F9695879597F921
:102EC0000895990F0008550FAA0BE0E8FEEF1616BB
:102ED0001706E807F907C0F012161306E407F5070E
:102EE00098F0621B730B840B950B39F40A2661F082
:102EF000232B242B252B21F408950A2609F4A14025
:102F0000A6958FEF811D811D089597F99F6780E831
:102F100070E060E008959FEF80EC089500240A942B
:102F20001616170618060906089500240A941216A4
:102F30001306140605060895092E0394000C11F4D7
:102F4000882352F0BB0F40F4BF2B11F460FF04C084
:102F50006F5F7F4F8F4F9F4F089557FD9058440FDD
:102F6000551F59F05F3F71F04795880F97FB991FE8
:102F700061F09F3F79F087950895121613061406A5
:102F8000551FF2CF4695F1DF08C016161706180632
:102F9000991FF1CF86957105610508940895E8940D
:102FA000BB2766277727CB0197F908950EF0A6C0B7
:102FB000B2CF6894AACFD9DFC8F39923D1F3C6F36F
:102FC000DF93CF931F930F93FF92C92FDD278823A1
:102FD0002AF02197660F771F881FDAF720E030E08C
:102FE00040E85FEB9FE3883920F0803E30F0219687
:102FF0008F7729DEE8E6F0E003C025DEE5E9F0E0C2
:103000008DD08B01BE01EC01FB2E6F5771097595B8
:10301000771F880B990B1ADF28E132E741E35FE362
:1030200016D0AF2D9801AE01FF900F911F91CF9157
:10303000DF911ADE81CF0BD07FCF70DF28F075DFF4
:1030400018F0952309F061CF66CF1124A9CF85DF51
:10305000A0F3959FD1F3950F50E0551F629FF001AB
:10306000729FBB27F00DB11D639FAA27F00DB11D04
:10307000AA1F649F6627B00DA11D661F829F22278D
:10308000B00DA11D621F739FB00DA11D621F839F14
:10309000A00D611D221F749F3327A00D611D231FEA
:1030A000849F600D211D822F762F6A2F11249F5738
:1030B00050408AF0E1F088234AF0EE0FFF1FBB1F5B
:1030C000661F771F881F91505040A9F79E3F5105FA
:1030D00070F01BCF65CF5F3FECF3983EDCF3869535
:1030E00077956795B795F795E7959F5FC1F7FE2BA5
:1030F000880F911D9695879597F908959F3F49F000
:10310000915028F4869577956795B7959F5F80389D
:103110009F4F880F9695879597F90895DF93CF93E2
:103120001F930F93FF92EF92DF927B018C016894C3
:1031300005C0DA2EEF018BDFFE01E894A591259101
:10314000359145915591AEF3EF018EDDFE0197016A
:10315000A801DA9479F7DF90EF90FF900F911F911B
:10316000CF91DF910895629FD001739FF001829FFC
:10317000E00DF11D649FE00DF11D929FF00D839F06
:10318000F00D749FF00D659FF00D9927729FB00DA3
:10319000E11DF91F639FB00DE11DF91FBD01CF01B6
:1031A00011240895A1E21A2EAA1BBB1BFD010DC01C
:1031B000AA1FBB1FEE1FFF1FA217B307E407F507E7
:1031C00020F0A21BB30BE40BF50B661F771F881FC3
:1031D000991F1A9469F760957095809590959B0159
:1031E000AC01BD01CF010895EE0FFF1F0590F491D2
:1031F000E02D0994911106C0803219F08950855054
:10320000D0F708959927882708952F923F924F92DB
:103210005F926F927F928F929F92AF92BF92CF9266
:10322000DF92EF92FF920F931F93CF93DF93CDB76F
:10323000DEB7CA1BDB0B0FB6F894DEBF0FBECDBFE7
:1032400009942A88398848885F846E847D848C84B8
:103250009B84AA84B984C884DF80EE80FD800C81C1
:103260001B81AA81B981CE0FD11D0FB6F894DEBFA4
:0C3270000FBECDBFED010895F894FFCF14
:10327C00436F6D6D616E643A20417474656D70744A
:10328C0020746F2072656164206120737472696EA2
:10329C0067206265666F7265206120736561726379
:1032AC00682E0A00436F6D6D616E644275666665CB
:1032BC00722E50757428293A206C656E67746820DC
:1032CC006F766572666C6F772E0A00436F6D6D6159
:1032DC006E644275666665722E46696C6C28293A76
:1032EC00206C656E677468206F766572666C6F779C
:1032FC002E0A00436F6D6D616E643A2041747465E3
:10330C006D707420746F2072656164206120636F2E
:10331C006D6D616E64206C6F6E67206265666F7296
:10332C00652061207365617263682E0A00436F6DBE
:10333C006D616E643A20417474656D707420746FA5
:10334C00207265616420612047436F646520666C60
:10335C006F6174206265666F7265206120736561B0
:10336C007263682E0A004F76657277726974696EA3
:10337C006720696E707574207061636B65742100D1
:10338C005472616E736D6974206275666665722025
:10339C006F766572666C6F7721002073656E646959
:1033AC006E673A20005472616E736D6974206661A9
:1033BC00696C65642100207374617274696E6700B6
:1033CC0054616C6B696E6720746F206D7973656CDA
:1033DC0066210A0054656D703A20000A00523220B2
:1033EC005425640A0025732C207665723A202573C7
:1033FC002C20646174653A2025732C2061646472FE
:10340C003A2025640A005769436F6E74726F6C0022
:10341C00302E313200323031342D30382D323400F0
:10342C005234205325732C207665723A2025732C48
:10343C0020646174653A2025732C20616464723AAF
:10344C002025640A00556E6B6E6F776E20636F6D6E
:10345C006D616E643A200054656D702072657475F0
:10346C00726E65642066726F6D2000207761732028
:10347C00004964656E7469666965722066726F6D69
:10348C003A2000556E6B6E6F776E207265706C799A
:10349C003A2000030809110F10046F0464000100A6
:1034AC00000000B311491249117A115A11A31100ED
:00000001FF
