:100000000C9491000C94FB0E0C94280F0C94B900E6
:100010000C94B9000C94B9000C94DB070C94B90053
:100020000C94B9000C94E5070C94B9000C94B90039
:100030000C94B9000C94B9000C94B9000C94B9005C
:100040000C94EE0F0C94B9000C94BD0B0C940B0C9B
:100050000C94B9000C94B9000C94B9000C94B9003C
:100060000C94B9000C94B90008000000BE92244919
:10007000123EABAAAA2ABECDCCCC4C3E00000080DA
:10008000BEABAAAAAA3E00000000BF000000803F4D
:100090000000000000084178D3BB4387D1133D190D
:1000A0000E3CC3BD4282AD2B3E68EC8276BED98F3A
:1000B000E1A93E4C80EFFFBE01C4FF7F3F0000007E
:1000C000000000000000240027002A0000000000BB
:1000D000250028002B000000000023002600290036
:1000E00004040404040404040202020202020303DE
:1000F00003030303010204081020408001020408E6
:100100001020010204081020000000070002010076
:10011000000304060000000000000000FD070C0AB8
:100120006E0D11241FBECFEFD8E0DEBFCDBF12E0B1
:10013000A0E0B1E0E6E7F9E202C005900D92A2343A
:10014000B107D9F713E0A2E4B2E001C01D92A036D6
:10015000B107E1F711E0C2E2D1E004C02297FE014D
:100160000E947314CC31D107C9F70E94550F0C942B
:10017000B9140C9400002F923F925F926F927F927D
:100180008F929F92AF92BF92CF92DF92EF92FF92A7
:100190000F931F93CF93DF938C011B01EA0161152D
:1001A000710519F0FB0191838083209749F0CE01FE
:1001B0000297839728F020E030E040E050E0F6C05E
:1001C000F801A1908F018A2D90E00E947714892B6D
:1001D000B9F7FDE2AF1631F4F801A1908F01552473
:1001E000539407C0FBE2AF1619F4F801A1908F01F8
:1001F0005524209719F0C031D105C1F4F0E3AF16B2
:1002000079F4F8018081883711F0883549F4F801D4
:10021000A1800E5F1F4FF2E05F2AC0E1D0E006C070
:10022000209721F480E3A816E9F427C0C830D1054F
:1002300031F1C930D10524F4C230D10531F50CC0FB
:10024000CA30D10589F0C031D105F9F4C12CD12CC7
:10025000E12CB8E0FB2E28C0C12CD12CE12CA0E46D
:10026000FA2E22C0CAE0D0E0FCECCF2EFCECDF2E50
:10027000FCECEF2EFCE0FF2E17C0C8E0D0E0C12C54
:10028000D12CE12CE0E1FE2E0FC09E01442737FD6A
:100290004095542F60E070E080E090E80E944F1499
:1002A000C901DA016C017D0120E030E040E050E05E
:1002B00060E03E01882477FC8094982C70EDB72E86
:1002C000BA0CE9E0EB1570F48A2D81548A3118F4E8
:1002D00099ECB92E06C08A2D81568A3150F589EAEB
:1002E000B82EBA0C8B2D90E08C179D0714F56F3F3C
:1002F000E1F0C216D306E406F506B0F0CA01B90172
:10030000A40193010E9430149B01AC012B0D311DFF
:10031000411D511D2130F0E03F07F0E04F07F0E8AC
:100320005F0710F461E001C06FEFF801A1908F0149
:10033000C5CF2114310481F0662331F00150104003
:10034000F1011183008308C051FE1AC00250104011
:10035000F1011183008314C067FF12C050FC05C077
:100360002FEF3FEF4FEF5FE704C020E030E040E0C9
:1003700050E882E290E090935F0380935E0316C0A2
:1003800050FE08C050954095309521953F4F4F4FF6
:100390005F4F0CC057FF0AC082E290E090935F036A
:1003A00080935E032FEF3FEF4FEF5FE7B901CA0184
:1003B000DF91CF911F910F91FF90EF90DF90CF9041
:1003C000BF90AF909F908F907F906F905F903F9085
:1003D0002F900895AEE0B0E0E0EFF1E00C949014BF
:1003E0000D891E8986E08C831A8309838FEF9FE72E
:1003F0009E838D839E01275E3F4FCE0101966F89BC
:10040000788DA9010E940E022F813885020F131FDB
:10041000F80110822E96E4E00C94AC14ABE0B0E04E
:10042000E4E1F2E00C9482143C012B015A01FC013E
:1004300017821682838181FD03C06FEF7FEFC6C1F3
:100440009AE0892E1E010894211C311CF30123819E
:10045000F20123FD859123FF81912F01882309F467
:10046000B2C1853239F423FD859123FF81912F019B
:10047000853229F490E0B3010E940104E7CF982F60
:10048000FF24EE249924FFE1FF15D0F09B3269F0A0
:100490009C3228F4903259F0933291F40EC09D3280
:1004A00049F0903369F441E024C052E0F52A84E039
:1004B000F82A28C098E0F92A25C0E0E1FE2A22C0E7
:1004C000F7FC29C0892F80538A3070F4F6FE05C0EE
:1004D000989C902C1124980E15C0E89CE02C1124B7
:1004E000E80EF0E2FF2A0EC09E3229F4F6FC6BC142
:1004F00040E4F42A07C09C3619F450E8F52A02C0FB
:10050000983649F4F20123FD959123FF91912F0133
:10051000992309F0B8CF892F8554833018F0805281
:10052000833038F444E050E0A40EB51E5FE35983F5
:100530000FC0933631F0933779F0933509F056C0F8
:1005400020C0F5018081898342E050E0A40EB51EF1
:10055000610101E010E012C0F501C080D180F6FC1D
:1005600003C06FEF7FEF02C0692D70E042E050E002
:10057000A40EB51EC6010E94F6038C015FE7F522AA
:1005800014C0F501C080D180F6FC03C06FEF7FEF8F
:1005900002C0692D70E042E050E0A40EB51EC60115
:1005A0000E94EB038C0150E8F52AF3FE07C01AC045
:1005B00080E290E0B3010E940104EA948E2D90E065
:1005C00008171907A8F30EC0F601F7FC8591F7FE8E
:1005D00081916F0190E0B3010E940104E110EA945F
:1005E000015010400115110579F7EAC0943611F059
:1005F000993669F5F7FE08C0F50120813181428105
:10060000538184E090E00AC0F501808191819C01D2
:10061000442737FD4095542F82E090E0A80EB91E84
:100620009FE6F92257FF09C05095409530952195D6
:100630003F4F4F4F5F4FE0E8FE2ACA01B901A101C9
:100640002AE030E00E942D04D82ED21840C0953701
:1006500029F41F2D1F7E2AE030E01DC01F2D197FB9
:100660009F3661F0903720F4983509F0ACC00FC088
:10067000903739F0983709F0A6C004C028E030E080
:100680000AC0106114FD146020E130E004C014FDC4
:10069000166020E132E017FF08C0F501608171812A
:1006A0008281938144E050E008C0F501808191810E
:1006B000BC0180E090E042E050E0A40EB51EA10134
:1006C0000E942D04D82ED2188FE7F82EF122F6FEC4
:1006D0000BC05EEFF522D91438F4F4FE07C0F2FC2B
:1006E00005C08FEEF82202C01D2D01C0192DF4FEA9
:1006F0000DC0FE01ED0DF11D8081803319F499EEDE
:10070000F92208C01F5FF2FE05C003C08F2D867856
:1007100009F01F5F0F2DF3FC14C0F0FE0FC01E1573
:1007200010F09D2C0BC09D2C9E0C911A1E2D06C006
:1007300080E290E0B3010E9401041F5F1E15C0F328
:1007400004C01E1510F4E11A01C0EE2404FF0FC00E
:1007500080E390E0B3010E94010402FF1DC001FD8F
:1007600003C088E790E00EC088E590E00BC0802FC2
:10077000867891F001FF02C08BE201C080E2F7FCB5
:100780008DE290E0B3010E94010406C080E390E096
:10079000B3010E9401049A94D914C0F3DA94F101D0
:1007A000ED0DF11D808190E0B3010E940104DD2078
:1007B000A9F706C080E290E0B3010E940104EA9428
:1007C000EE20C1F743CEF30166817781CB012B96F2
:1007D000E2E10C949E14FC01059061507040011000
:1007E000D8F7809590958E0F9F1F0895FC0161505A
:1007F000704001900110D8F7809590958E0F9F1F43
:1008000008950F931F93CF93DF938C01EB018B819E
:1008100081FF1BC082FF0DC02E813F818C819D8195
:100820002817390764F4E881F9810193F983E88393
:1008300006C0E885F985802F0995892B31F48E81D2
:100840009F8101969F838E8302C00FEF1FEFC80127
:10085000DF91CF911F910F910895FA01AA272830B7
:1008600051F1203181F1E8946F936E7F6E5F7F4F7D
:100870008F4F9F4FAF4FB1E03ED0B4E03CD0670FF9
:10088000781F891F9A1FA11D680F791F8A1F911D4C
:10089000A11D6A0F711D811D911DA11D20D009F49C
:1008A00068943F912AE0269F11243019305D3193DE
:1008B000DEF6CF010895462F4770405D4193B3E0C7
:1008C0000FD0C9F7F6CF462F4F70405D4A3318F06E
:1008D000495D31FD4052419302D0A9F7EACFB4E01F
:1008E000A6959795879577956795BA95C9F70097D7
:1008F0006105710508959B01AC010A2E0694579578
:10090000479537952795BA95C9F7620F731F841FCE
:10091000951FA01D089520E6FC0122830895DF9213
:10092000EF92FF920F931F93CF93DF937C01162FCB
:10093000072FD22E2A981C99FECF406CC701642F36
:100940000E940208812F902F9C01E90110E006C04F
:10095000C70160E00E94020889931F5F1D15C0F364
:100960002A9ADF91CF911F910F91FF90EF90DF9026
:1009700008950F931F93182F092F2A981C99FECFC3
:10098000462B812F902F642F0E940208812F902FD9
:1009900060E00E9402082A9A1F910F9108952A98F8
:1009A0001C99FECF0E9402082A9A08950F931F9364
:1009B000CF93DF938C01EB016BE340EC0E94B90411
:1009C000282F90E08F779070892B49F127FD27C061
:1009D000C8016FE340E80E94B904282F88838E3352
:1009E000F0F4BE016F5F7F4FC8014FE30E948F0498
:1009F000C8016FE340E80E94B9048FAFC8016FE3FC
:100A000040E80E94B904C05CDF4F982F9F7798831D
:100A1000C054D040881F8827881F8EAF01C018821D
:100A2000C80166E30E94CF04C8016AE30E94CF04B4
:100A3000C80164E30E94CF048881DF91CF911F91A8
:100A40000F910895DF92EF92FF920F931F93CF9330
:100A5000DF937C01142F052FD22E2A981C99FECFEC
:100A60006064C7010E940208812F902F9C01E90158
:100A700010E005C0C70169910E9402081F5F1D15A3
:100A8000C8F32A9ADF91CF911F910F91FF90EF90B9
:100A9000DF900895FF920F931F93182F092FF42EC4
:100AA0002A981C99FECF812F902F0E940208812F37
:100AB000902F6F2D0E9402082A9A1F910F91FF908C
:100AC0000895EF92FF920F931F93DF93CF93CDB7CB
:100AD000DEB77C0182E0F7018183C70164E304C0D3
:100AE000913121F4C7016AE30E94CF04C70165E395
:100AF00040EC0E94B904982F8F718D3089F784EFF4
:100B000091E00E944210C7016FE38E01075F1F4F03
:100B1000F80141918F010E944A05C7016FE3A801C6
:100B200029850E942205C70165E30E94CF04C70101
:100B300065E340EC0E94B9048F718351833088F0E3
:100B4000C70166E30E94CF04C7016BE30E94CF0494
:100B5000C70164E30E94CF0481E0F701818380E054
:100B600020C04A9BFECF4A99FECFC7016AE340EC02
:100B70000E94B904082FC70166E30E94CF04C70191
:100B80006BE30E94CF04C70164E30E94CF0481E0BD
:100B9000F701818380E010E00F771070012B09F4DA
:100BA00081E0CF91DF911F910F91FF90EF90089519
:100BB0001F93CF93DF93EC01162F613019F0623051
:100BC000D9F40DC06DE042E20E944A05CE016EE00C
:100BD00041EB0E944A05CE016FE04BE319C06DE086
:100BE00040E10E944A05CE016EE047EA0E944A05B4
:100BF000CE016FE042E60CC06DE041E20E944A0582
:100C0000CE016EE042E60E944A05CE016FE046E763
:100C10000E944A051B83DF91CF911F9108950F9386
:100C20001F93CF93DF93EC01162F042F8C8186172F
:100C300079F0CE016AE0412F0E944A051C8300230F
:100C400039F080E692E060E070E0412F0E942E08CB
:100C5000DF91CF911F910F9108950F931F93CF9321
:100C6000DF93EC01162F042F8F81861779F0CE01C8
:100C700069E0412F0E944A051F83002339F080E676
:100C800092E064E070E0412F0E942E08DF91CF9146
:100C90001F910F910895FF920F931F93CF93DF93AE
:100CA000EC01162F042FF22E8D81861719F48E81F8
:100CB0008417E1F0CE0164E0412F0E944A05CE0185
:100CC00065E0402F0E944A051D830E83FF2071F0CE
:100CD00080E692E062E070E0412F0E942E0880E6FC
:100CE00092E063E070E0402F0E942E08DF91CF91E8
:100CF0001F910F91FF9008951F93CF93DF93EC0105
:100D000080E692E060E070E00E942708682F8A3059
:100D100020F4CE0140E00E940F0680E692E062E0FF
:100D200070E00E942708182F80E692E063E070E0F0
:100D30000E942708482F812F81508E3F20F0842F5A
:100D400081508E3F28F4CE01612F20E00E944B0697
:100D500080E692E064E070E00E942708682F882314
:100D600021F0CE0140E00E942D06DF91CF911F912E
:100D70000895FB01242F608141810E944B06089554
:100D80000F931F938C0160E04EE20E944A05C80158
:100D900061E04EE20E944A05C80162E046E00E941E
:100DA0004A05C80163E047E00E944A05C80166E0C1
:100DB0004DE30E944A05C80167E046E00E944A05EB
:100DC000C80168E045E00E944A05C80165EB47E4B8
:100DD00020E00E944B06C8016FEF40E00E942D0604
:100DE000C80160E040E00E940F06C8016BE048E0E7
:100DF0000E944A05C8016CE040E00E944A05C80113
:100E000060E00E94D805C80160E14AEC0E944A05F2
:100E1000C80161E143E80E944A05C80162E143E973
:100E20000E944A05C80163E142E20E944A05C801E6
:100E300064E148EF0E944A05C80165E145E30E946C
:100E40004A05C80166E147E00E944A05C80167E11A
:100E500040E20E944A05C80168E148E10E944A0553
:100E6000C80169E146E10E944A05C8016AE14CE611
:100E70000E944A05C8016BE143E40E944A05C8018B
:100E80006CE140E40E944A05C8016DE141E90E941D
:100E90004A05C8016EE147E80E944A05C8016FE1B2
:100EA0004BE60E944A05C80160E24BEF0E944A05EA
:100EB000C80161E246E50E944A05C80162E240E1DC
:100EC0000E944A05C80163E249EE0E944A05C80132
:100ED00064E24AE20E944A05C80165E240E00E94DD
:100EE0004A05C80166E24FE10E944A05C80167E26F
:100EF00041E40E944A05C80168E240E00E944A05B8
:100F0000C80169E249E50E944A05C8016AE24FE763
:100F10000E944A05C8016BE24FE30E944A05C801DE
:100F20006CE241E80E944A05C8016DE245E30E9477
:100F30004A05C8016EE249E00E944A051F910F91DF
:100F40000895CF93DF93EC012A9A85E090E00E9408
:100F500042102A988AE090E00E9442102A9A89E280
:100F600090E00E9442102A981C99FECFCE0160E3C7
:100F70000E9402081C99FECF2A9ACE010E94C00648
:100F8000CE010E947C06DF91CF9108950F931F93AD
:100F90008C010E94080882E060E00E941111C801E3
:100FA0000E94A107C8016EE3F80142810E944A0530
:100FB0001F910F9108951F920F920FB60F92112457
:100FC0000F900FBE0F901F9018951F920F920FB6A3
:100FD0000F9211240F900FBE0F901F9018950F9332
:100FE0001F938C0103960E948B04F801158E148EBA
:100FF000118210821F910F91089582E492E00E9465
:10100000EF0708956EBD0DB407FEFDCF8EB50895B0
:101010008AE061E00E9450118AE061E00E941111B3
:101020008BE061E00E9411118CE060E00E941111E0
:101030008DE061E00E9411118DE061E00E9450118D
:101040008BE060E00E94501180E58CBD0895F99915
:10105000FECF72BD61BDF89A80B50895F999FECFB3
:101060001FBA72BD61BD40BD0FB6F894FA9AF99AE5
:101070000FBE0895FC01EC59FF4F119211928FEFB2
:101080009FEF8193919310820895CF93DF93DC01BA
:10109000AA59BF4F11961C921E92ED0108C0E61787
:1010A00011F481E011C02F5F3F4F398328832881DD
:1010B0003981FC01E20FF31FE081EE2381F78FEF0E
:1010C0009FEF8D939C9380E0DF91CF910895FF92E5
:1010D0000F931F93CF93DF93EC01CC59DF4FE8813F
:1010E000F981C456D040EC0FFD1F60836B3339F497
:1010F000C859DF4F81E08883C856D0401AC06A3093
:1011000011F06623B1F4FE01EC59FF4FA081B181CB
:10111000AC0FBD1F1C9211821082CA59DF4F8FEF96
:101120009FEF899399931882C856D040FF24F39477
:1011300010C0C859DF4F8881C856D040882341F479
:10114000FE01EC59FF4F808191810196918380834C
:10115000FF248E010C591F4FF80180819181843644
:10116000910554F08DE293E068E271E00E94AF0EC9
:10117000F8011182108218828F2DDF91CF911F917B
:101180000F91FF900895CF93DF93EC01CA59DF4F81
:101190002881398137FF0BC08DE293E069E471E06B
:1011A0000E94AF0E20E030E040E050E010C02F5F22
:1011B0003F4F820F931F60E070E040E050E00E94DC
:1011C000BB009B01AC018FEF9FEF99838883B9012E
:1011D000CA01DF91CF910895FC01DB01E657FF4F73
:1011E0008081EA58F040882319F420E030E00AC0FA
:1011F000E55BFF4F8081EE5BFF4F80838C939F0107
:1012000021543040C90108950F931F93CF93DF936A
:10121000EC0180E00E94E80E0E94080AC657DF4FEA
:101220008881CA58D040882331F08DE293E06CEB7E
:1012300071E00E94B20E8E01075B1F4FCE01B80114
:101240000E94D604882379F0C957DF4F8881C75898
:10125000D040882341F0F8018081823020F0C657C9
:10126000DF4F81E0888380E06EE27BE042E050E087
:101270000E94C50EDF91CF911F910F9108950F939A
:101280001F93CF93DF93EC01FA01DE0190E00BC0D6
:10129000319611969B3339F48DE293E066ED71E05F
:1012A0000E94B20E62C080811B968C931B979F5F39
:1012B0008081882369F76987C457DF4F8881CC58BC
:1012C000D0408A879E5F98871C2F0D2FCE0165E343
:1012D0000E94CF04C257DF4F8881CE58D040882368
:1012E000A1F08DE293E06A854AE050E00E949D0EF5
:1012F0008DE293E060EF71E00E94AF0EBE01655F8A
:101300007F4F8DE293E00E94AF0E2DB73EB7215480
:1013100030400FB6F8943EBF0FBE2DBFADB7BEB77D
:101320001196FE01389681E401900D928150E1F70B
:10133000812F902F0E9461052DB73EB72F5B3F4F45
:101340000FB6F8943EBF0FBE2DBF882339F48DE24F
:1013500093E06BEF71E00E94B20E02C00E94080A97
:10136000812F902F64E30E94CF04DF91CF911F91D2
:101370000F910895BF92CF92DF92EF92FF920F9359
:101380001F938C01B62E0E948B049BE8E92EF12C52
:10139000E00EF11E87ECF70180838CE8C82ED12C7B
:1013A000C00ED11EF601B08203571F4FF801108204
:1013B00003501040F80110820C5F1F4FF80110829B
:1013C0000E581040C8010E94C607C801B70140E08E
:1013D0000E94B906C801F601608140E00E942D0616
:1013E000C80167E046E00E944A05C80164E30E9424
:1013F000CF0480E06EE27BE042E050E00E94C50E48
:101400001F910F91FF90EF90DF90CF90BF900895C4
:1014100081E08093A40208950F931F9389E690E0E2
:101420000E94EB0F182F092F0E943A081093A00278
:101430000093A10289E690E00E94EB0F182F092F7C
:101440000E943A081093A2020093A3021F910F91E9
:101450000895BC018DE293E00E94AF0E0895682FBD
:1014600086E00E94501108950F931F930DE213E040
:10147000C80140E056E960E070E00E94460CC801F7
:101480006CE072E00E94B20E84E061E00E941111F3
:1014900084E060E00E94501180E060E00E94111141
:1014A00086E061E00E94111180E090E00E942F0A26
:1014B0008FE890E00E94EB0F8C0164E00E94BA0973
:1014C00010939F0200939E0202571F4F81E0F80184
:1014D000808310929D021092A4021F910F91089593
:1014E000AF92BF92CF92DF92EF92FF920F931F9332
:1014F00080E00E94EF10AA2797FDA095BA2FBC01AB
:10150000CD010E94C7127B018C0120E030E04AE748
:1015100054E40E9498135B016C0160E070EC8FE76B
:1015200094E4A80197010E94F8119B01AC01C60147
:10153000B5010E945D1224E43FEA4EEA5DE30E9499
:101540005D120E9458139B01AC0160E070E889E5D0
:1015500095E40E945D1223E333E948E853E40E94D6
:10156000F8111F910F91FF90EF90DF90CF90BF90F7
:10157000AF900895FF920F931F93CF93DF93EC01E9
:10158000F62E63E40E944508882309F461C0CE0169
:101590000E94C3086130710579F06230710524F44E
:1015A000672B09F455C049C062307105A1F0633062
:1015B000710509F042C04CC0CE0168E40E944508A4
:1015C000882309F445C0CE010E94C308DC01CB0189
:1015D0000E942F0A3DC00E94700A2DB73EB72850C6
:1015E00030400FB6F8943EBF0FBE2DBFEDB7FEB72B
:1015F000319601E612E0ADB7BEB712961C930E937A
:10160000119722E132E033832283648375838683DA
:1016100097830E94EA012DB73EB7285F3F4F0FB670
:10162000F8943EBF0FBE2DBF80919E0290919F0205
:101630006F2DA8010E943F090BC089E192E00E9432
:10164000290ACE010E94290A8BE292E00E94290A0F
:10165000DF91CF911F910F91FF90089581E08093CA
:10166000A40280919E0290919F02009711F00E9427
:10167000040908958091A402882311F184E00E9456
:10168000A41160E0892B09F461E084E00E9450110C
:1016900064E670E080E090E00E94871084E00E94A1
:1016A000A41160E0892B09F461E084E00E945011EC
:1016B00064E670E080E090E00E9487101092A4023F
:1016C0000895FF920F931F93DF93CF930F92CDB79F
:1016D000DEB70E943A0B80919E0290919F02BE015C
:1016E0006F5F7F4F0E94EC088C01009719F1FF2477
:1016F000F801EF0DF11D8091A2029091A30260818B
:101700000E946708882341F069818091A20290912C
:10171000A30270E00E94BA0AF394F801EF0DF11DE4
:101720008081882329F7E0919E02F0919F02E6577D
:10173000FF4F10828DE293E00E94C40C892BA9F028
:101740008DE293E00E94F50C682F8091A0029091A9
:10175000A1020E946708882341F08091A002909125
:10176000A1026FEF7FEF0E94BA0A0F90CF91DF9135
:101770001F910F91FF90089508951F920F920FB639
:101780000F9211242F933F934F938F939F93EF9337
:10179000FF938091C00082FD1DC04091C600209142
:1017A000E5023091E6022F5F3F4F2F73307080913A
:1017B000E7029091E8022817390771F0E091E502FD
:1017C000F091E602EB55FD4F40833093E602209303
:1017D000E50202C08091C600FF91EF919F918F9129
:1017E0004F913F912F910F900FBE0F901F90189522
:1017F000E0913903F0913A03E05CFF4F81919191C0
:1018000020813181821B930B8F739070892B11F093
:101810000E94BC0B08951F920F920FB60F921124D5
:101820002F933F938F939F93EF93FF9320912903DF
:1018300030912A0380912B0390912C0328173907AC
:1018400031F48091C1008F7D8093C10014C0E0917C
:101850002B03F0912C03E751FD4F208180912B0346
:1018600090912C0301968F73907090932C0380932A
:101870002B032093C600FF91EF919F918F913F9191
:101880002F910F900FBE0F901F901895AF92BF929F
:10189000DF92EF92FF920F931F93CF93DF93EC01B0
:1018A0007A018B01DD24D39491E0A92EB12CEC892F
:1018B000FD89DD2069F0C50108A002C0880F991FCD
:1018C0000A94E2F7808360E874E88EE190E005C056
:1018D000108260E472E48FE090E0A80197010E941A
:1018E0004F14215030404040504056954795379511
:1018F000279580E12030380720F0DD2011F0DD242D
:10190000D6CFE889F9893083EA89FB89208319A237
:10191000EE89FF89408121E030E0C9010C8C02C0D2
:10192000880F991F0A94E2F7482B4083EE89FF89BC
:101930004081C9010D8C02C0880F991F0A94E2F7FB
:10194000482B4083EE89FF894081C9010E8C02C07B
:10195000880F991F0A94E2F7482B4083EE89FF898C
:1019600080810F8C02C0220F331F0A94E2F720956A
:1019700028232083DF91CF911F910F91FF90EF904B
:10198000DF90BF90AF900895DC011C96ED91FC9123
:101990001D97E05CFF4F2191319180819181281B3F
:1019A000390B2F733070C9010895DC011C96ED913D
:1019B000FC911D97E05CFF4F20813181E054F040A5
:1019C000DF01AE5BBF4F8D919C91119728173907AE
:1019D00019F42FEF3FEF07C08D919C91E80FF91F8D
:1019E0008081282F30E0C9010895DC011C96ED911B
:1019F000FC911D97E05CFF4F20813181E054F04065
:101A0000DF01AE5BBF4F8D919C911197281739076D
:101A100019F42FEF3FEF10C08D919C911197E80FB3
:101A2000F91F20818D919C91119701968F73907071
:101A300011969C938E9330E0C9010895DC01919634
:101A40008C919197882339F05496ED91FC9155979C
:101A5000808186FFF9CF91961C920895CF93DF93F2
:101A6000EC01EE85FF85E05CFF4F20813181E05481
:101A7000F0402F5F3F4F2F733070DF01AE5BBF4FE1
:101A80008D919C91119728173907D1F3E05CFF4F96
:101A900080819181E054F040E80FF91F6083EE856A
:101AA000FF85E05CFF4F31832083EE89FF89208131
:101AB00081E090E00F8C02C0880F991F0A94E2F732
:101AC000282B208381E089A3EC89FD8980818064B3
:101AD000808381E090E0DF91CF91089510923003F0
:101AE00010922F0388EE93E0A0E0B0E080933103E2
:101AF00090933203A0933303B093340386E392E0D0
:101B000090932E0380932D0385EA92E090933A03FD
:101B10008093390389EE92E090933C0380933B03DA
:101B200085EC90E090933E0380933D0384EC90E03D
:101B30009093400380933F0380EC90E090934203A6
:101B40008093410381EC90E090934403809343039E
:101B500082EC90E0909346038093450386EC90E0FE
:101B6000909348038093470384E08093490383E084
:101B700080934A0387E080934B0385E080934C0376
:101B800081E080934D030895CF92DF92EF92FF9210
:101B90000F931F93CF93DF937C016B018A01C0E009
:101BA000D0E00FC0D6016D916D01D701ED91FC9190
:101BB0000190F081E02DC7010995C80FD91F015090
:101BC00010400115110571F7CE01DF91CF911F91E2
:101BD0000F91FF90EF90DF90CF900895EF92FF92DA
:101BE0000F931F938C01DC01ED91FC910190F0812A
:101BF000E02D6DE009957C01D801ED91FC910190FB
:101C0000F081E02DC8016AE009959C012E0D3F1D71
:101C1000C9011F910F91FF90EF900895CF93DF932B
:101C2000EC016115710519F420E030E00FC0DB0113
:101C30000D900020E9F71197A61BB70BE881F981F9
:101C40000280F381E02DAD0109959C01C901DF916E
:101C5000CF9108954F925F927F928F929F92AF9211
:101C6000BF92CF92DF92EF92FF920F931F93DF9379
:101C7000CF93CDB7DEB7A1970FB6F894DEBF0FBEF6
:101C8000CDBF2C01742ECB01223008F42AE019A21A
:101C900031E2C32ED12CCC0EDD1E822E9924AA2433
:101CA000BB24672D752FA50194010E944F14790163
:101CB0008A01C801B701A50194010E943014472D83
:101CC000461B0894C108D1084A3014F4405D01C095
:101CD000495CF6014083E114F1040105110521F08E
:101CE0007E2C5F2DC801DDCFC201B6010E940E0E11
:101CF000A1960FB6F894DEBF0FBECDBFCF91DF9196
:101D00001F910F91FF90EF90DF90CF90BF90AF9019
:101D10009F908F907F905F904F900895DC012115E8
:101D2000310541F4ED91FC910190F081E02D642F9B
:101D3000099508950E942A0E0895EF92FF920F933D
:101D40001F939A01E62EFF2400E010E0B801A701DE
:101D50000E948E0E1F910F91FF90EF9008950E94A8
:101D60000E0E0895EF92FF920F931F937C010E9435
:101D70000E0E8C01C7010E94EE0D080F191FC8013D
:101D80001F910F91FF90EF900895823000F5E82F9A
:101D9000F0E0EE0FFF1FE15BFC4F7183608388234F
:101DA00019F08130A1F408C0809169008C7F842BE8
:101DB00080936900E89A089580916900440F551F47
:101DC000440F551F837F842B80936900E99A0895FF
:101DD000823080F4882319F0813021F402C0E89821
:101DE00001C0E998E82FF0E0EE0FFF1FE15BFC4F28
:101DF0001182108208951F920F920FB60F92112434
:101E00002F933F934F935F936F937F938F939F9302
:101E1000AF93BF93EF93FF9380914F039091500343
:101E2000892B29F0E0914F03F09150030995FF9120
:101E3000EF91BF91AF919F918F917F916F915F9142
:101E40004F913F912F910F900FBE0F901F901895BB
:101E50001F920F920FB60F9211242F933F934F931F
:101E60005F936F937F938F939F93AF93BF93EF9302
:101E7000FF938091510390915203892B29F0E091B7
:101E80005103F09152030995FF91EF91BF91AF91EA
:101E90009F918F917F916F915F914F913F912F9182
:101EA0000F900FBE0F901F901895CF93DF930E9455
:101EB0004C100E94340AC8EFDBE00E94610B2097AF
:101EC000E1F30E94F80BF9CF0F931F93CF93DF93A9
:101ED000BC018230910510F462E070E0E0915C0397
:101EE000F0915D03A0E0B0E040E050E024C08081CC
:101EF000918186179707D0F08617970771F4828132
:101F00009381109729F013969C938E9312972CC06F
:101F100090935D0380935C0327C04115510519F030
:101F20008417950718F4EF018D01AC01DF01828160
:101F300093819C01F9013097D1F641155105F9F0D3
:101F4000CA01861B970B8430910580F48A819B819E
:101F50000115110521F0F8019383828304C0909349
:101F60005D0380935C03FE0132962FC0FE01E80FF3
:101F7000F91F6193719302979983888326C08DB767
:101F80009EB78857904020912D0230912E0228173D
:101F90003907C8F4AC01421B530B4617570798F09A
:101FA000CB0102964817590770F0820F931F909348
:101FB0002E0280932D029093300280932F02F9011C
:101FC0006193719302C0E0E0F0E0CF01DF91CF9127
:101FD0001F910F9108950E94640F08951F920F9210
:101FE0000FB60F9211242F933F934F935F936F93EC
:101FF0007F938F939F93AF93BF932091570330911B
:1020000058034091590350915A0370915B03DA01D0
:10201000C9010296A11DB11D672F6A5F6D3730F0AF
:102020006D57DA01C9010396A11DB11D60935B03D1
:102030008093570390935803A0935903B0935A0386
:102040008091530390915403A0915503B09156038E
:102050000196A11DB11D8093530390935403A09347
:102060005503B0935603BF91AF919F918F917F918C
:102070006F915F914F913F912F910F900FBE0F90F5
:102080001F901895019739F0019729F0880F991F33
:1020900001970197F1F70895789484B5826084BD23
:1020A00084B5816084BD85B5826085BD85B581605C
:1020B00085BDEEE6F0E0808181608083E1E8F0E0BC
:1020C0001082808182608083808181608083E0E8EB
:1020D000F0E0808181608083E1EBF0E080818460CA
:1020E0008083E0EBF0E0808181608083EAE7F0E0CC
:1020F0008081846080838081826080838081816030
:1021000080838081806880831092C1000895EF925F
:10211000FF920F931F93CF93DF937B018C013FB707
:10212000F8948091530390915403A0915503B0917A
:10213000560326B5A89B05C02F3F19F00196A11D97
:10214000B11D3FBFBA2FA92F982F8827820F911D4D
:10215000A11DB11D53E0880F991FAA1FBB1F5A95DF
:10216000D1F7EC0130C00E94F7113FB7F89480918D
:10217000530390915403A0915503B091560326B593
:10218000A89B05C02F3F19F00196A11DB11D3FBFAF
:10219000BA2FA92F982F8827820F911DA11DB11D3D
:1021A00033E0880F991FAA1FBB1F3A95D1F78C1BEC
:1021B0009D0B885E9340B8F20894E108F10801098C
:1021C0001109C851DC4FE114F1040105110559F65C
:1021D000DF91CF911F910F91FF90EF900895982F6D
:1021E0008E3008F09E509770809131028295880F52
:1021F000880F807C892B80937C0080917A0080649A
:1022000080937A0080917A0086FDFCCF209178003F
:1022100040917900942F80E030E0282B392BC901C0
:102220000895CF93DF93482F50E0CA018C509F4F01
:10223000FC01349140525F4FFA018491882369F187
:1022400090E0880F991FFC01EE53FF4FA591B491C8
:10225000FC01E453FF4FC591D491662351F42FB78D
:10226000F8948C91932F909589238C93888189235E
:102270000BC0623061F42FB7F8948C91932F909536
:1022800089238C938881832B88832FBF06C09FB7B7
:10229000F8948C91832B8C939FBFDF91CF910895FD
:1022A000482F50E0CA01885F9E4FFC012491CA016B
:1022B0008C509F4FFC01949140525F4FFA01349132
:1022C000332309F440C0222351F1233071F024302C
:1022D00028F42130A1F0223011F514C02630B1F0DD
:1022E0002730C1F02430D9F404C0809180008F776A
:1022F00003C0809180008F7D8093800010C084B5E2
:102300008F7702C084B58F7D84BD09C08091B000F5
:102310008F7703C08091B0008F7D8093B000E32F52
:10232000F0E0EE0FFF1FE453FF4FA591B4912FB7DC
:10233000F894662321F48C919095892302C08C91A6
:10234000892B8C932FBF0895682F70E0CB01885F95
:102350009E4FFC012491CB018C509F4FFC01449176
:1023600060527F4FFB019491992319F420E030E0F3
:102370003CC0222351F1233071F0243028F4213065
:10238000A1F0223011F514C02630B1F02730C1F091
:102390002430D9F404C0809180008F7703C08091ED
:1023A00080008F7D8093800010C084B58F7702C03D
:1023B00084B58F7D84BD09C08091B0008F7703C044
:1023C0008091B0008F7D8093B000892F90E0880FBE
:1023D000991F8A529F4FFC01A591B4918C9120E0E6
:1023E00030E0842311F021E030E0C9010895089520
:1023F0005058BB27AA270ED01CC10DD130F012D1E6
:1024000020F031F49F3F11F41EF402C10EF4E09568
:10241000E7FBF8C0E92F1ED180F3BA1762077307F4
:102420008407950718F071F49EF536C10EF4E09517
:102430000B2EBA2FA02D0B01B90190010C01CA017E
:10244000A0011124FF27591B99F0593F50F4503E29
:1024500068F11A16F040A22F232F342F4427585F1B
:10246000F3CF469537952795A795F0405395C9F733
:102470007EF41F16BA0B620B730B840BBAF09150EB
:10248000A1F0FF0FBB1F661F771F881FC2F70EC08A
:10249000BA0F621F731F841F48F48795779567955D
:1024A000B795F7959E3F08F0B3CF9395880F08F046
:1024B0009927EE0F9795879508950CD0BAC0B2D0A2
:1024C00040F0A9D030F021F45F3F19F09BC05111CA
:1024D000E4C09EC0BFD098F39923C9F35523B1F34C
:1024E000951B550BBB27AA2762177307840738F083
:1024F0009F5F5F4F220F331F441FAA1FA9F333D0E2
:102500000E2E3AF0E0E830D091505040E695001C95
:10251000CAF729D0FE2F27D0660F771F881FBB1F51
:10252000261737074807AB07B0E809F0BB0B802D2B
:10253000BF01FF2793585F4F2AF09E3F510568F077
:1025400061C0ABC05F3FECF3983EDCF386957795B6
:102550006795B795F7959F5FC9F7880F911D969579
:10256000879597F90895E1E0660F771F881FBB1FD5
:10257000621773078407BA0720F0621B730B840B82
:10258000BA0BEE1F88F7E0950895E89409C097FB11
:102590003EF490958095709561957F4F8F4F9F4F3A
:1025A0009923A9F0F92F96E9BB279395F69587957E
:1025B00077956795B795F111F8CFFAF4BB0F11F441
:1025C00060FF1BC06F5F7F4F8F4F9F4F16C08823E8
:1025D00011F096E911C0772321F09EE8872F762F1E
:1025E00005C0662371F096E8862F70E060E02AF05F
:1025F0009A95660F771F881FDAF7880F969587954B
:1026000097F9089597F99F6780E870E060E0089572
:102610009FEF80EC089500240A94161617061806FA
:102620000906089500240A941216130614060506D6
:102630000895092E0394000C11F4882352F0BB0F67
:1026400040F4BF2B11F460FF04C06F5F7F4F8F4FCA
:102650009F4F089557FD9058440F551F59F05F3F05
:1026600071F04795880F97FB991F61F09F3F79F0B4
:1026700087950895121613061406551FF2CF469536
:10268000F1DF08C0161617061806991FF1CF8695B8
:102690007105610508940895E894BB27662777279C
:1026A000CB0197F908950EF0A6C0B2CF6894AACFD7
:1026B000D9DFC8F39923D1F3C6F3DF93CF931F93E8
:1026C0000F93FF92C92FDD2788232AF02197660FE9
:1026D000771F881FDAF720E030E040E85FEB9FE3E8
:1026E000883920F0803E30F021968F7782DEE8E650
:1026F000F0E003C07EDEE5E9F0E08DD08B01BE01A5
:10270000EC01FB2E6F5771097595771F880B990B9C
:102710003EDF28E132E741E35FE316D0AF2D9801B9
:10272000AE01FF900F911F91CF91DF9173DE81CFAA
:102730000BD07FCF70DF28F075DF18F0952309F0FC
:1027400061CF66CF1124A9CF85DFA0F3959FD1F388
:10275000950F50E0551F629FF001729FBB27F00D4F
:10276000B11D639FAA27F00DB11DAA1F649F6627A4
:10277000B00DA11D661F829F2227B00DA11D621FF3
:10278000739FB00DA11D621F839FA00D611D221FAD
:10279000749F3327A00D611D231F849F600D211D91
:1027A000822F762F6A2F11249F5750408AF0E1F034
:1027B00088234AF0EE0FFF1FBB1F661F771F881F7D
:1027C00091505040A9F79E3F510570F01BCF65CF47
:1027D0005F3FECF3983EDCF3869577956795B79568
:1027E000F795E7959F5FC1F7FE2B880F911D969592
:1027F000879597F908959F3F49F0915028F4869561
:1028000077956795B7959F5F80389F4F880F96950E
:10281000879597F90895DF93CF931F930F93FF92B6
:10282000EF92DF927B018C01689405C0DA2EEF01F4
:102830008BDFFE01E894A591259135914591559145
:10284000AEF3EF01E7DDFE019701A801DA9479F715
:10285000DF90EF90FF900F911F91CF91DF9108953E
:10286000629FD001739FF001829FE00DF11D649F74
:10287000E00DF11D929FF00D839FF00D749FF00D00
:10288000659FF00D9927729FB00DE11DF91F639FA1
:10289000B00DE11DF91FBD01CF0111240895A1E282
:1028A0001A2EAA1BBB1BFD010DC0AA1FBB1FEE1FCA
:1028B000FF1FA217B307E407F50720F0A21BB30B15
:1028C000E40BF50B661F771F881F991F1A9469F791
:1028D00060957095809590959B01AC01BD01CF01ED
:1028E0000895EE0FFF1F0590F491E02D09949111CA
:1028F00006C0803219F089508550D0F70895992785
:10290000882708952F923F924F925F926F927F9205
:102910008F929F92AF92BF92CF92DF92EF92FF92EF
:102920000F931F93CF93DF93CDB7DEB7CA1BDB0B9B
:102930000FB6F894DEBF0FBECDBF09942A88398840
:1029400048885F846E847D848C849B84AA84B98447
:10295000C884DF80EE80FD800C811B81AA81B98153
:10296000CE0FD11D0FB6F894DEBF0FBECDBFED0167
:062970000895F894FFCF6A
:10297600436F6D6D616E643A20537472696E6720A1
:10298600657870656374656420627574206E6F7413
:10299600207365656E2E0A00436F6D6D616E64204F
:1029A600627566666572206C656E677468206F7600
:1029B6006572666C6F772E0A00436F6D6D616E648B
:1029C6003A20417474656D707420746F207265616D
:1029D60064206120636F6D6D616E64206C6F6E673D
:1029E600206265666F726520612073656172636837
:1029F6002E0A00436F6D6D616E643A2041747465F2
:102A06006D707420746F2072656164206120474385
:102A16006F646520666C6F6174206265666F7265AF
:102A26002061207365617263682E0A004F766572B5
:102A360077726974696E6720696E7075742070614B
:102A4600636B657421005472616E736D69742062E4
:102A56007566666572206F766572666C6F772100A3
:102A66002073656E64696E673A20005472616E73F6
:102A76006D6974206661696C6564210073746172A6
:102A8600740043322025660A00556E6B6E6F776EB2
:102A960020636F6D6D616E643A20000A0060036406
:102AA6000001000000002E0DC40DC40CF50CD50C61
:022AB6001E0DF3
:00000001FF
